:020000040800F2
:10000000F07B00208D690108BDC20008BFC2000856
:10001000C1C20008C3C20008C5C200080000000039
:10002000000000000000000000000000C7C200083F
:10003000C9C2000800000000AB9F0108CBC2000845
:10004000A7690108A7690108A7690108A76901084C
:10005000A7690108A76901080FC6000821C60008A2
:1000600033C6000845C6000857C60008A76901083E
:10007000A7690108A7690108A7690108A76901081C
:10008000A7690108A7690108F7040208A769010820
:100090000BC600080DC60008A769010869C600085C
:1000A000A7690108A7690108A769010877C40008C2
:1000B000AFC4000823C5000897C50008A769010858
:1000C000A7690108A7690108A7690108A7690108CC
:1000D000A7690108F9C300081DC400082FC400085F
:1000E000FDC60008A7690108A7690108A7690108FA
:1000F000A7690108A7690108A7690108A76901089C
:10010000A7690108333E0208A7690108A769010829
:1001100041C4000853C40008A7690108A769010881
:1001200011050208A7690108A7690108A769010864
:10013000A7690108A7690108A7690108A76901085B
:10014000A7690108A7690108A7690108A76901084B
:10015000A7690108A7690108A769010865C4000823
:10016000A7690108A7690108A7690108A76901082B
:10017000A7690108A7690108A7690108A76901081B
:10018000A7690108A769010851847A030A00096870
:10019000010203040607080913ED451B20FD0413A3
:1001A0000D461B20C9081AD5041AE10481E0D7BA0C
:1001B000A95AA16A99E591C48A0384747D8977C894
:1001C00071546C286740629A5D315902550A514753
:1001D0004DB449504619430B40243D633AC5374955
:1001E00035EC32AD308B2E832C952ABF2810275545
:1001F00025BF233D22CD206F1F201EE21CB21B9085
:100200001A7B19731878178716A115C614F4132BC7
:10021000136C12B41105115D10BD0F230F900E0465
:100220000E7D0DFC0C800C090C980B2B0BC20A5E8A
:100230000AFE09A2094909F508A30855080A08C2D7
:10024000077D073A07FA06BD0682064A061306DF4F
:1002500005AC057C054E052105F604CC04A5047EFD
:1002600004590436041404F303D303B40397037A44
:10027000035F0345032B031303FB02E402CE02B921
:1002800002A40291022D01020304042506070809B5
:100290000241FD1EF3B20108AD041A93041A810451
:1002A0001A9F04258CA80508121013D4012220746B
:1002B000024001A9241A90246A10242C040240A7A9
:1002C0002928A9241A94246A2024350802400429E4
:1002D00028A9241A98246A30241C0C02407911DAC7
:1002E00003241A9C246A40243510024010294CA98A
:1002F000241AA0246A50241C140240B911DA0524DF
:100300001AA4246A60243518024040022E061A40BE
:100310007912401A0804112A013F39D001126A08E3
:10032000012A2801790E7901CBA010017A04015924
:10033000113A41010A11010149203A42010A110210
:1003400001291E022008E980E901091279297C5956
:1003500008091278397C690962FF02120100000065
:020000040800F2
:10C00000DFF80CD018F0FCFC0048004729C20008FB
:10C01000F07B002011F02DBA10B50FF0DAFD0FF013
:10C02000C1FE0024204601F04DFA641CE4B2062C47
:10C03000F8D310BD08B562208DF8000000208DF8FF
:10C04000010068460FF055FB63208DF800000120C9
:10C050008DF8010068460FF04CFB64208DF800005D
:10C0600002208DF8010068460FF043FB65208DF833
:10C07000000003208DF8010068460FF03AFB08BD70
:10C0800010B50BF035F804200FF0EDFD0FF0A7FA16
:10C0900000F092FD10F040FA00F08AFF0AF077F904
:10C0A00000F0D2FC00F0A2FC00F060FC00F034FCD8
:10C0B00000F086FC10F010FC10F047FD0FF0BEFA07
:10C0C000FFF7B8FF6E4814F0B0F909F090FF0AF0DE
:10C0D000EDFA08F0C5FF14F09AFB07F0E1FA11F051
:10C0E000AFF900211B2011F0BCFB4FF6FF734FF49A
:10C0F0007A72022100200FF03DFDBDE810400120C2
:10C1000000F04ABC10B5817821B1012907D011296E
:10C1100005D102E0FFF7B4FF01E003F057FE002075
:10C1200010BD10B58178808806F08BFB002010BD13
:10C13000544810B50168491C016000F054FC06F039
:10C14000D2FDBDE810400AF077BA10B58078042817
:10C150000DD2DFE800F0020C0905FFF7E9FF06E069
:10C16000002000F0E5FB02E0002000F00BFC0020C6
:10C1700010BD10B50446012000F0E4FB4249002048
:10C180000870E078414C20704148006840780928E8
:10C1900009D00D280AD00DF0FBFD10B120780DF06C
:10C1A0000AFE002010BD0DF024FDF6E70DF071FD34
:10C1B000F3E70178C91E09290ED2DFE801F0050B6B
:10C1C0000D0D070D09060800BFE79BE7A9E7D0E7BB
:10C1D00014F08EB901F06ABA00207047E9E710B593
:10C1E00000210A200FF0B9FB002805D00021817042
:10C1F000BDE810400FF0C8BB10BD08B5AFF2230377
:10C200004FF40062234903200FF0F3FB6A4622A19A
:10C2100003200EF01CFEFFF7E2FF0022642311460C
:10C2200010460EF084FFF8E700B587B00DF088FEE9
:10C230000FF0C2FF00214FF000600AF0EEFB4FF458
:10C24000A0600AF0B5FB0DF07EFF16480DF1040C5E
:10C25000032300224FF400718CE80F0006200346F0
:10C260000090114A002111480EF096FC05AA10A179
:10C2700006200EF0ECFD0EF06EF807B0002000BDB9
:10C2800040420F000000002090010020910100209A
:10C29000E0F70208480400204D61696E2D54617377
:10C2A0006B00000048240020442C0020FBC1000843
:10C2B000526F6F742D5461736B0000007047FEE77E
:10C2C000FEE7FEE7FEE77047704710B50DF04CFE45
:10C2D000FE49097819B1FE4A1178491C11700DF018
:10C2E00047FE0EF04BF8BDE810400DF0C4BFF8B5A6
:10C2F000054600EB0510C0EBC511F64800EB8104C4
:10C3000040F22551D4F890010BF0BDF850B1D4F8AB
:10C3100090010BF021F88DF80000E8B20122694687
:10C3200001F008F840F227773946D4F890010BF075
:10C33000AAF840F2266620B3B4F88011B4F882015E
:10C34000814204D100223946D4F8900117E0015D02
:10C35000D4F890010AF0FCFF94F88201401C00F030
:10C360007F00A4F8820194F89C11002926D1B4F82A
:10C370008011814209D101223146D4F890010BF09D
:10C3800060F894F89C01002818D13146D4F8900147
:10C390000BF079F8002811D0B4F88001B4F88211BC
:10C3A00088420BD1E8B2002100F02FFF3146D4F8CB
:10C3B0009001BDE8F84000220BF043B8F8BD38B555
:10C3C000044600EB0410C0EBC411C24800EB810529
:10C3D00040F22551D5F890010BF055F800280AD00D
:10C3E000D5F890010AF0B8FF8DF80000E0B2012204
:10C3F000694600F09FFF38BD10B5B74C40F225519B
:10C4000020460BF040F8002807D020460AF0A4FF91
:10C41000BDE81040C0B200F006BC10BDAD4890F8B9
:10C42000590301284FF0010000D060E7C7E7A94891
:10C4300090F8150501284FF0020000D057E7BEE73D
:10C44000A44890F8D10601284FF0030000D04EE731
:10C45000B5E7A04890F88D0801284FF0040000D0FF
:10C4600045E7ACE79B4890F8490A01284FF00500E2
:10C4700000D03CE7A3E710B5984C022120460CF011
:10C48000CEFF002812D0022120460CF0D4FF204617
:10C490000CF070FF81B2204601F57A710CF0BDFD01
:10C4A0000221BDE81040032010F055BF10BD10B5AB
:10C4B00001218C0720460CF0B2FF38B10121204643
:10C4C0000CF0B9FF0121002010F045FF02212046A9
:10C4D0000CF0A5FF38B1022120460CF0ACFF022180
:10C4E000002010F038FF042120460CF098FF38B1EE
:10C4F000042120460CF09FFF0421002010F02BFFA8
:10C50000082120460CF08BFF002809D00821204686
:10C510000CF091FF0821BDE81040002010F01BBF77
:10C5200010BD10B56E4C012120460CF078FF38B1DB
:10C53000012120460CF07FFF0121084610F00BFF7F
:10C54000022120460CF06BFF38B1022120460CF08E
:10C5500072FF0221012010F0FEFE042120460CF0A3
:10C560005EFF38B1042120460CF065FF0421012054
:10C5700010F0F1FE082120460CF051FF002809D0F0
:10C58000082120460CF057FF0821BDE8104001208B
:10C5900010F0E1BE10BD10B5524C012120460CF048
:10C5A0003EFF38B1012120460CF045FF0121022059
:10C5B00010F0D1FE022120460CF031FF38B10221EB
:10C5C00020460CF038FF0221084610F0C4FE04217A
:10C5D00020460CF024FF38B1042120460CF02BFF3C
:10C5E0000421022010F0B7FE082120460CF017FFAE
:10C5F000002809D0082120460CF01DFF0821BDE8C5
:10C600001040022010F0A7BE10BD7047704710B553
:10C6100001200DF0DCF9BDE8104000200EF0AFBFA6
:10C6200010B502200DF0D3F9BDE8104001200EF046
:10C63000A6BF10B504200DF0CAF9BDE810400220D5
:10C640000EF09DBF10B508200DF0C1F9BDE81040F7
:10C6500003200EF094BF10B510200DF0B8F9BDE81E
:10C66000104004200EF08BBF10B520200DF0A6F96D
:10C6700028B120200DF0ABF905200EF080FF4020FE
:10C680000DF09CF928B140200DF0A1F906200EF024
:10C6900076FF80200DF092F928B180200DF097F9F7
:10C6A00007200EF06CFF4FF4807420460DF086F9E1
:10C6B00028B120460DF08BF908200EF060FF4FF4F2
:10C6C000007420460DF07AF900280DE09D0100204D
:10C6D000980100203C34002000100140000001407F
:10C6E000000400400008004007D020460DF06FF91C
:10C6F000BDE8104009200EF042BF10BD10B54FF448
:10C70000806420460DF05AF928B120460DF05FF9FB
:10C710000A200EF034FF4FF4006420460DF04EF96D
:10C7200028B120460DF053F90B200EF028FF4FF4EE
:10C73000805420460DF042F928B120460DF047F90B
:10C740000C200EF01CFF4FF4005420460DF036F97B
:10C7500028B120460DF03BF90D200EF010FF4FF4EC
:10C76000804420460DF02AF928B120460DF02FF91B
:10C770000E200EF004FF4FF4004420460DF01EF989
:10C78000002807D020460DF022F9BDE810400F2008
:10C790000EF0F5BE10BD00000CB50020544901900C
:10C7A00000900A6842F480320A604FF4A0430A689D
:10C7B00002F400320092019A521C0192009A12B9BE
:10C7C000019A9A42F3D10A68920334D5012000906D
:10C7D00047484030026842F0805202604548026893
:10C7E00042F4404202604248083002680260026837
:10C7F00042F400420260026842F4A0520260031F49
:10C800003D4A1A600A6842F080720A600A68920122
:10C81000FCD53A4A40F205711160016821F003012C
:10C820000160016841F0020101600168C1F381010A
:10C830000229FAD10CBD00900CBD314810B5016839
:10C8400041F4700101602A48016841F00101016072
:10C85000274A00210832116002682A4B1A40026000
:10C86000031D294A1A60026822F4802202602048CF
:10C870000C300160FFF790FF21494FF000608039D4
:10C88000086010BD70B51A4C083420681F4A10F0BB
:10C890000C011F4804D01F4D042903D0082903D0E0
:10C8A00002601BE0056019E01149091D0B68C3F324
:10C8B00080560B6803F03F0316B1B5FBF3F201E0BD
:10C8C000B2FBF3F20B680968C3F388135A43C1F350
:10C8D0000141491C4900B2FBF1F1016021680C4A99
:10C8E000C1F30311121D515C0268CA40026070BDA1
:10C8F000003802400070004019544007003C0240DC
:10C9000088ED00E0FFFFF6FE103000240024F40064
:10C910000400002040787D0110B540F201210E2076
:10C920000EF000FD0121BDE810400E200EF026BDE6
:10C9300008B1002100E001210E200EF01FBD0E20E5
:10C940000EF02BBD10B504000CD00120FFF7F0FF56
:10C95000642014FB00F200230121BDE810400320F5
:10C960000FF008B9BDE810400020E1E710B540F233
:10C97000012146200EF0D6FC0021BDE810404620E3
:10C980000EF0FCBC08B1012100E0002146200EF0B1
:10C99000F5BC46200EF001BD10B504000CD00120FE
:10C9A000FFF7F0FF642014FB00F200230121BDE833
:10C9B000104002200FF0DEB8BDE810400020E1E793
:10C9C00010B540F201210D200EF0ACFC0121BDE8B4
:10C9D00010400D200EF0D2BC08B1012100E0002172
:10C9E0000D200EF0CBBC0D200EF0D7BC10B50121F0
:10C9F00088030AF0E2FA124812490078BDE81040B4
:10CA00000EF090BC0E4910B5085C0EF0AAFC002890
:10CA100000D0012010BD2DE9F04100252C46012752
:10CA20002046FFF7EFFF18B107FA04F62E43B5B220
:10CA3000641C14F0FF04F3D02846BDE8F081000028
:10CA4000066B0208000200012DE9F047454E464FF3
:10CA5000002440F2012906F10A08305D49460EF033
:10CA600061FC18F80410305D0EF088FC07EB4410F0
:10CA70000546202117F0CCFA2C70641C0A2CECDB44
:10CA8000BDE8F0870122824012F4FC7F354A105C39
:10CA900001D011B100210EF071BC0121FBE7012191
:10CAA000814011F4FC7F2F4910B5085C06D00EF0D0
:10CAB00058FC08B1002010BD012010BD0EF051FC43
:10CAC000C0B210BD2749085C0EF067BC10B5044623
:10CAD00000780021FFF7D6FFE069002802D0BDE80A
:10CAE0001040004710BD7CB50D461F4901EB4014B6
:10CAF0000121E261FFF7C6FF201DAFF22F03CDE950
:10CB000000402A46002110460FF015F97CBD2DE9A2
:10CB1000F04100252C4601272046FFF7C0FF18B141
:10CB200007FA04F62E43B5B2641CE4B20A2CF3D320
:10CB30002846BDE8F08110B5002400212046FFF70B
:10CB4000A1FF641CE4B20A2CF7D310BD10B5002479
:10CB500001212046FFF796FF641CE4B20A2CF7D3AC
:10CB600010BD0000076B0208482C002070B5074D6F
:10CB70000446C1B228460AF0EBFB402128460AF0E1
:10CB800078FC0028F9D0204670BD0000001001405C
:10CB900010B50C46480702D000200DF030F9E00631
:10CBA00009D565480078C10701D1800703D5BDE8E4
:10CBB000104010F0EFBB10BD10B586B000244FF44C
:10CBC000E1300090ADF808400C20ADF80440ADF81D
:10CBD0000A00ADF80640ADF80C40694620460FF05B
:10CBE000D7FF25208DF810000F208DF811008DF84B
:10CBF000124001208DF8130004A809F0DEFE012286
:10CC000040F225514D480AF01CFC4FF402714C488B
:10CC100017F0FEF9AFF287004949C1F804020DF0A0
:10CC200075F906B010BD464991F80022885491F874
:10CC30000002401C81F80002D1F8042204210020E7
:10CC4000104710B53D4C014620460AF081FB4021BB
:10CC500020460AF00EFC0028F9D010BD70B50D4634
:10CC60000646002404E0305DFFF7EBFF641CE4B2ED
:10CC7000AC42F8D332481021D0F80422BDE870400D
:10CC80000020104770B5BF2A11D82E4B1C682270A7
:10CC90001D6809246C701C68A0701868C01C17F00F
:10CCA0009EF929480078BDE870400DF084B870BD49
:10CCB0004030C0B2E6E710B514460A4608B100207D
:10CCC00010BDE1B21046FFF7C9FF204610BD78B98C
:10CCD0001B4890F8003290F80122934208D0825C01
:10CCE0000A7090F80112491C80F801120120704767
:10CCF0000020704710B5044617F09FF92146C2B2D4
:10CD0000BDE810403020BDE70FB4104900B50968F8
:10CD100091B0884207DC14AA6846139918F01EF9EE
:10CD20006846FFF7E7FF11B05DF814FB052801D254
:10CD3000064908607047000097010020001001407C
:10CD4000882D0020E4F7020891010020180000203F
:10CD5000D64870470FF0EABB0FF051BC70B5D44B0A
:10CD60001C6822701D6809246C701C68A07018680B
:10CD7000C01C17F034F9CF480078BDE870400DF0C2
:10CD80001AB8CD4902680A6042684A600089088181
:10CD90000A460A218320DDE7C7490A6802604A681B
:10CDA0004260098901810A20704710F023BD10F00C
:10CDB000F2BCC349C148086070470020704770B595
:10CDC0001500BA4C4FF00002A4F103040A6004D02D
:10CDD000012D06D0022D09D10CE0B74922780A3185
:10CDE00002E0B54962782A3117F0F9F8605D401C1D
:10CDF000C0B270BDB049A2785231F5E7F8B514461B
:10CE000082781D460646012A05D0022A03D0032A4D
:10CE100001D0FF20F8BD6946E01C521EFFF7CFFF8E
:10CE2000B178A170401C20701021617029780844ED
:10CE3000801C28700020F8BD70B59C4C1500A4F132
:10CE4000030404D0012D0DD0022D17D11AE0C11C0E
:10CE5000994822780A3017F0C2F8974A21780A32A6
:10CE6000802009E0C11C944862782A30064617F0F9
:10CE7000B6F8617832468120FFF76CFF605D401C98
:10CE8000C0B270BDC11C8C48A2785230064617F063
:10CE9000A6F8A17832468220EEE7F8B51D46144682
:10CEA0000F46064610F0E5FAB278012A05D0022AAC
:10CEB00003D0032A01D0FF20F8BD39463046521E68
:10CEC000FFF7BAFFB2786946E01C521EFFF777FF02
:10CED00000202070D02060702878801C28700020EE
:10CEE000F8BD2DE9FC411546C27987788179CDE9F5
:10CEF00000121C4643790279C178002607F26C7053
:10CF00000FF0B1FC2E70C02068702078801C20705B
:10CF1000BDE8FC8170B51D4614460FF016FE0620D4
:10CF20002070C120607067480179A1F26C71A17016
:10CF30008179E170C1792171017861714178A171C4
:10CF40008078E07128780830287070BD70B515467B
:10CF500042780024D12A11D006DCC02A14D0C12A7C
:10CF600017D0D02A21D104E0F02A1BD0F12A1CD1FD
:10CF700014E00A462946FFF790FF03E00A462946D7
:10CF8000FFF73CFF044610E00A462946FFF7A9FFD9
:10CF90000BE00A462946FFF7BDFF06E00120FFF738
:10CFA000FBFC02E00120FFF7CDFC204670BDCDE781
:10CFB000414810B52221723017F02AF8424A022166
:10CFC00021200FF01CFB404C08B1002020803E4A7D
:10CFD0000821921C22200FF012FB38B933493A483D
:10CFE00022221431801C17F03DF868B12F48364AD0
:10CFF000C01E921C50F8171F44F8021F4068606062
:10D0000008212220FFF7A6FE2B4A0A218320FFF7E2
:10D01000A3FE38B128482DA10A6802604968416022
:10D0200058210172244A10217232B2200FF0E7FA1F
:10D0300020B1214828A1723017F021F81E4A102192
:10D0400083321446B3200FF0DAFA18B124A1204637
:10D0500017F015F8184A20210A3280200FF0CFFA75
:10D0600028B11548FF2220210A3016F0CAFF124AC3
:10D0700028212A32144681200FF0C1FA20B1FF2264
:10D080002821204616F0BDFF0B4A202152321446BB
:10D0900082200FF0B4FA002806D02046FF22BDE817
:10D0A0001040202116F0ADBF10BD00001E6B02081D
:10D0B000E4F7020891010020903300200400FA05F3
:10D0C0000CED00E0786400201E00002057444D4223
:10D0D0002D5858585800000041444D494E0000005A
:10D0E000383630383630000038B50D4600EB0011C8
:10D0F000C1EBC011FE4800EB810494F88C01A842FA
:10D1000009D0D4F8B8013DB1002804D10DF0ABFA34
:10D11000C4F8B80128B938BD18B16A4601210DF02C
:10D120008CFB84F88C5138BDF0B5064600EB061038
:10D13000C0EBC611EE4885B000EB8104D4F8AC1109
:10D14000002960D030468847D4F8900100285AD092
:10D1500094F894018DF810000F208DF8110000252F
:10D160008DF8125001278DF8137004A804F5C874C7
:10D1700009F023FCD4F80E000090A07CDD4931F8C2
:10D180001000ADF80400E07C091D31F81000ADF886
:10D190000600207D891D31F81000ADF808000C2034
:10D1A000ADF80C50ADF80A00207A69460FF0F0FC9B
:10D1B0002068012240F22551A4F5C8740AF041F913
:10D1C000CB48183850F8261051B994F88C1140F813
:10D1D000267084F88C513046C4F8B851FFF784FFAC
:10D1E00094F8A501A4F8880194F89C0100280AD1BC
:10D1F00094F8A80140F201210EF094F894F8A801E7
:10D2000000210EF0BBF805B0F0BD00EB0012C2EB40
:10D21000C012B74800EB820090F89C21002A07D189
:10D2200090F8A80109B1012100E000210EF0A6B894
:10D23000704710B50024E0B2FFF776FF641C062C9F
:10D24000F9DB10BD2DE9F04115460F4602460628D0
:10D250001ED202EB0210C0EBC211A54800EB810404
:10D2600094F89D0108B1002655E0B4F88211B4F895
:10D270008001814201D1802007E0081A8030C11767
:10D2800000EB516121F07F01401A80B2A84202D226
:10D290000020BDE8F08101211046FFF7B6FFB4F889
:10D2A0008001B4F88211884203D3C0F18002AA42FF
:10D2B0000ADD20442A46394616F091FEB4F8800172
:10D2C0002844A4F8800110E02044394616F087FE77
:10D2D000B4F88001C0F18000C119281A85B2204637
:10D2E0002A4616F07CFEA4F88051012240F22771F4
:10D2F000D4F890010AF0A5F80FE0B95DD4F89001D8
:10D300000AF026F84021D4F890010AF0B2F800287B
:10D31000F8D0761CB6B2AE42EFD30120B9E700EBED
:10D320000012C2EBC010724A002102EB8000A0F88C
:10D330008A1170472DE9F04107460E4600EB0710B1
:10D34000C0EBC7116A48154600EB8104B4F886C1EA
:10D35000B4F884118C4502D14FF4807209E0ACEB33
:10D36000010202F58072D31702EB136323F0FF036F
:10D37000D21A92B2AA4201D200208AE7802207EB99
:10D380000713C3EBC71302EB8303614503D3C1F556
:10D390008072AA420BDD084418442A46314616F032
:10D3A0001EFEB4F884012844A4F8840113E0084464
:10D3B0001844314616F013FEB4F88401C0F58070AD
:10D3C0000644281A85B204F180002A46314616F038
:10D3D00006FEA4F884513846FFF7A1FFD4F8B42123
:10D3E00022B1012D02D1317838469047012050E713
:10D3F00000EB0012C2EBC0123D4800EB8200A0F827
:10D400008811A0F88A1170472DE9F047074600EB14
:10D410000710374DC0EBC71005EB80048846B4F801
:10D420008601B4F88411C0F580700844C11700EB80
:10D43000116121F0FF01401A80B21646824200D3EA
:10D44000C6B2E6B30CF090FD8146B4F88601B4F89C
:10D450008421802107EB0713C3EBC71301EB830182
:10D46000904204D2284401443246404613E0C0F5BD
:10D470008072B242F6DC28440144404616F0AFFD0B
:10D48000B4F88601C0F58070311A0A04120C04D079
:10D4900004F18001404416F0A2FD94F88601304466
:10D4A000C0B2A4F88601B4F88411884204D10020E7
:10D4B000A4F88401A4F8860148460CF059FD3046D2
:10D4C000BDE8F08770B5054600EB0510C0EBC5114F
:10D4D000074800EB8100B0F88621B0F884118A4239
:10D4E00034D0B0F88A315B1C9BB2A0F88A3103E0DB
:10D4F0003C3400203C6B0208B0F88841A34225D39D
:10D50000C2F580721144CA1701EB126222F0FF02C9
:10D51000891A8EB290F88C1131B1D0F8B801BDE8FB
:10D52000704001210DF0C4B9314604200EF015FA07
:10D5300004000BD0F2B204F108012846FFF764FFA3
:10D54000A5702046BDE870400EF01EBA70BD00EB1D
:10D550000011C1EBC0125E4901EB8201B1F88821D4
:10D56000A1F88A21AEE770B500EB001100F11003BD
:10D57000C1EBC011564800EB810404F5CF7215468B
:10D580000A2118460FF03BF820B12846FF220A2155
:10D5900016F037FDD4F89E01B0F5E13F03D94FF402
:10D5A0001650C4F89E0194F8A2110020022901D35C
:10D5B00084F8A20194F8A311032901D384F8A301EC
:10D5C00094F8A411032901D384F8A40194F8A511B7
:10D5D0000A20FA2901D80A2901D284F8A50170BDD0
:10D5E00000EB0011C1EBC010394901EB800090F84D
:10D5F0008C01704700EB0011C1EBC011344800EB07
:10D600008100B0F88611B0F88401814201D1012077
:10D61000704700207047F8B504460E4600EB041032
:10D62000C0EBC4112A48154600EB810292F88C0128
:10D6300000280FD07BB12046FFF7DCFF58B1D2F8AD
:10D64000B8016A4619460DF097F82A463146204639
:10D65000FFF7DAFEF8BD2A4631462046BDE8F8401D
:10D66000D2E610B5044600EB04101949C0EBC41013
:10D6700001EB8000D0F8900109F08EFD2046BDE856
:10D68000104051E500EB0011C1EBC011104800EB58
:10D690008100B0F88211B0F88001081A8030C117FB
:10D6A00000EB516121F07F01401A704710B581787D
:10D6B00006290AD201EB0112C2EBC112044901EBA7
:10D6C0008201D1F8B01101B18847002010BD0000DF
:10D6D0003C340020FE49CA69824201D0C1E90702F8
:10D6E0007047F0B5002200E0521C8356202BFBD07F
:10D6F000092BF9D084562D2C06D000BF4FF001061F
:10D7000005D02B2B03D003E04FF0FF36F8E7521C77
:10D7100000236FF02F040B6007E00D68521C05EB2F
:10D72000850504EB45052B440B608356A3F13005BA
:10D73000092DF2D9835C2E2B00D1521C01230AE063
:10D740000F6803EB830307EB870704EB47073D44B0
:10D750005B00521C0D608556A5F13007092FEFD9EB
:10D7600008684FF47A7270430860934204D2B2FBA7
:10D77000F3F242430A60F0BDB3FBF2F2B0FBF2F009
:10D780000860F0BD10B50178082905D2DFE801F086
:10D79000042337372D9045794078012870D1012135
:10D7A00096E00720FFF76EF901210820FFF76AF9DC
:10D7B00001210BE00420FFF765F900210720FFF7A6
:10D7C00061F900210820FFF75DF90021BDE8104054
:10D7D0000620FFF757B900210520FFF753F9012173
:10D7E0000320FFF74FF9002112E000210520FFF789
:10D7F00049F900210320FFF745F90121DAE701216A
:10D800000520FFF73FF900210320FFF73BF9012135
:10D810000420FFF737F90121C3E74078042815D029
:10D8200005284FF000014FF005001DD0FFF72AF941
:10D8300000210320FFF726F900210420FFF722F939
:10D8400000210720FFF71EF90021AEE70021052087
:10D85000FFF718F901210320FFF714F90021042034
:10D86000FFF710F900219CE7FFF70CF901210320D5
:10D87000FFF708F900210420FFF704F9012112E065
:10D880001BE0407802288AD0032816D10121052008
:10D89000FFF7F8F800210320FFF7F4F80121042036
:10D8A000FFF7F0F800210720FFF7ECF8012189E7E6
:10D8B000407806280BD00728E5D000210520FFF787
:10D8C000E1F800210320FFF7DDF8002172E70021D5
:10D8D0000520FFF7D7F80021BDE77047F8B5102203
:10D8E00000217C480EF010FF7A48203808F0EEFB4B
:10D8F000784C203C206A401C02D10FF009F92062CC
:10D90000E08D4FF6FF750026A84200D1E685606ADB
:10D91000401C02D10FF0FCF86062A06A401C02D1EA
:10D920000FF0F6F8A062A08DA84200D1A685D4F829
:10D93000F401009068A340F229226CA104200EF0AB
:10D940007DF9F8BD1022002162480EF005BF614844
:10D9500010B502221021FC300EF0D6FE18B966A1D7
:10D960000020FFF7D1F95B482038B0F81C11A1F571
:10D970007F42FF3A02D10021A0F81C1110BD55488A
:10D9800010B502221021FC300EF0E6FE002804D172
:10D99000BDE810405CA1FFF7B7B910BD70B54D4DA3
:10D9A000203DB5F81C41FFF7D2FFB5F81C01A0429D
:10D9B00004D0A5F81C41BDE87040E0E770BD10B58B
:10D9C00008281AD2434A203A02EBC00494F8CC004B
:10D9D00051EAC07211D0C20702D000290DD103E074
:10D9E00011B140F0010001E020F0010084F8CC000A
:10D9F00021B10FF08DF8C4F8D00010BD20F0020066
:10DA000084F8CC0010BDF0B501250024264603E0C3
:10DA100005EB85056D00761C9642F9DB90FBF5F66B
:10DA200090FBF5F705FB160C3B4E0A2097FBF0FE2A
:10DA300000FB1E7E97FBF0F70EF1300E06F804E0B7
:10DA4000641C002FF2DC27464FF0200E04E000BFDC
:10DA500006F804E0641C7F1C8F42F9DB002105E01E
:10DA6000671A374417F8017C5F54491CA142F7DB61
:10DA70002E21195500210AE095FBF0F59CFBF5F6E7
:10DA800030361E559CFBF5F605FB16CC491C641C74
:10DA90009142F1DB00201855F0BDF0B501250024BE
:10DAA000264603E005EB85056D00761C9642F9DB02
:10DAB00090FBF5F690FBF5F705FB160C164E20369D
:10DAC0005FF00A0097FBF0FE00FB1E7E26E00000E0
:10DAD0002C000020C0420020756C5546436C6561E7
:10DAE0006E54696D65203D20256400006469737083
:10DAF0006C61792E63000000726561642071747737
:10DB0000206661696C000000777269746520717429
:10DB100077206661696C0000A83E002097FBF0F753
:10DB20000EF1300E06F804E0641C002FCADC274614
:10DB30004FF0200E04E000BF06F804E0641C7F1CD8
:10DB40008F42F9DB002105E0671A374417F8017CA2
:10DB50005F54491CA142F7DB00210BE095FBF0F577
:10DB60009CFBF5F630361E559CFBF5F605FB16CCF6
:10DB7000491C641C9142F1DB00201855F0BD0B4696
:10DB8000012202213FE70B46032201213BE710B5AA
:10DB9000044604210A200DF0E0FE002806D01121E1
:10DBA00081708460BDE810400DF0EEBE10BD70B510
:10DBB0000EF0AEFFFE490A6822F007030B60B1F8D1
:10DBC0008440FC4AB4BB0C6A844214D2041BB4FBEC
:10DBD000F2F5B1F86040AC4203D814B143F0010350
:10DBE0000B60CC8DB1F862309C4204D31BB10B6842
:10DBF00043F001030B608B6A83421BD2C31AB3FB51
:10DC0000F2F4B1F86430A34204D81BB10B6843F0BE
:10DC100002030B60B1F866308C8D03EB4305B4EB67
:10DC2000450F07D303EB43035B0003D00B6843F0BE
:10DC300002030B604B6A83420CD2C01AB0FBF2F2B3
:10DC4000B1F86800904205D8002803D0086840F079
:10DC50000400086070BD814205D9D54A081A52F8FF
:10DC6000C83F184410607047F8B506461D460C467C
:10DC7000104616F0E2F9D049C9690A78009549784A
:10DC800002FB006021448BB2A1B280B240F23F128D
:10DC900007F035FEF8BD38B5C74C1546FF2810D142
:10DCA000FF290ED1104616F0C8F9E1690A784978C3
:10DCB000520850437822A2EB5102C0F1A000A2EB1F
:10DCC0005101BB4A89B280B2538B0093138BE26936
:10DCD00094682A46A04738BD2DE9F843DFF8D08282
:10DCE000B34CA8F1780800252F46A01DD8F87C6019
:10DCF000FFF748FD2079072810D2DFE800F00F0E6B
:10DD000008040F0F0B0000210920FEF7BBFE0125C0
:10DD10002F4603E06079052800D10125B8F87E1070
:10DD2000D4F8C090A8F87C100820A071E0710EF023
:10DD3000EFFE0146C4F8C00015B14846FFF78BFF5F
:10DD400047B12068410505D4D4F8981011B140F4CA
:10DD5000806020602079002503280CD2DFE800F0E5
:10DD6000020B070016F0FF0F05D0658203E00121CA
:10DD70000920FEF787FE208840040FD58DF800505B
:10DD800001208DF801000B208DF8020020798DF81C
:10DD9000030004226946A12008F064FCBDE8F88372
:10DDA00010B50FF066FB824808300189C180083841
:10DDB0000A21017492214174FF21417310BD70B595
:10DDC00002282DED068BADF54A7DB0EE408A7DD15F
:10DDD000774C0326784D94F82501022810D10120B4
:10DDE000686018EE100A16F0E6FB74A34FF4826226
:10DDF0000096CDE90201AFF20C3104200DF01EFFB8
:10DE000094F82501032861D118EE100A16F0D3FB0F
:10DE100070A340F215420096CDE90201AFF2343111
:10DE200004200DF00BFF686840B118EE100A16F0E0
:10DE3000C2FB41EC100B6D4808F064FC6B48D0F855
:10DE40003003002842D069494FF44A7210316846C5
:10DE500016F0C5F865480FC808F097FCB0EE408A88
:10DE6000F0EE608A8DED008B61A340F21F42AFF2AD
:10DE7000843104200DF0E2FE9FED620B51EC180B93
:10DE800053EC102B16F0AAFB3AD29FED600B51EC2D
:10DE9000180B53EC102B16F081FA41EC190B9FED87
:10DEA0005D1BB0EE480AF0EE680A17F075FA9FEDB8
:10DEB0005B1B51EC100B53EC112B16F06FFA41EC7D
:10DEC0001A0B9FED581BB0EE480A00E04CE0F0EE54
:10DED000680A17F061FA9FED551B51EC100B53ECDB
:10DEE000112B16F05BFA53EC1A2B16F0B0F953EC29
:10DEF000192B16F04DFA41EC100B9FED4E1B11E063
:10DF0000B0EE480AF0EE680A17F062F89FED4B1B7E
:10DF100051EC100B53EC112B16F040FA41EC100BA6
:10DF20009FED481B51EC100B53EC112B16F08FF9A1
:10DF300016F084FBC4F8B000B0F1804F03DAB0EE05
:10DF4000000A84ED2C0A94ED100AD4ED2C0A4FF44B
:10DF50004E71B8EE400A254820EE800A84ED2C0A66
:10DF600016F056F8002068600DF54A7DBDEC068B72
:10DF700070BDF0B502282DED068B85B0B0EE408A5D
:10DF800015D10B4D0027032695F825010A4C0228D0
:10DF900061D10120C4E9020718EE100A16F00BFB4C
:10DFA00006A340F249420096CDE902014EE0CAE0E4
:10DFB000A0420020805101002C0000204F20636807
:10DFC0006C3A2564203A205265733A256620200A6F
:10DFD00000000000462063686C3A2564203A205215
:10DFE00065733A256620200A00000000E83E002004
:10DFF000544F432056616C75653A20256620200AEF
:10E0000000000000000000000000044000000000CC
:10E010000034B1400000000000000040000000009B
:10E0200000E49F40000000000000084000000000E5
:10E0300000B873C00000000000F6A840A4703D0ABC
:10E04000D7233DC00000000000004540AFF26451FE
:10E0500004200DF0F3FD95F82501032873D118EE87
:10E06000100A16F0A8FAAFF2940340F24E4200965E
:10E07000CDE90201AFF28C5104200DF0DFFDA06864
:10E0800070B1E06864280BDA18EE100A16F093FA03
:10E0900041EC100BFD4808F015FCE068401CE06006
:10E0A000E06864284FD1F94890ED168B8DED008B18
:10E0B000AFF2C40340F25942AFF2D05104200DF048
:10E0C000BDFD1FED300B51EC180B53EC102B16F06F
:10E0D00085FA39D251EC180B1FED340B53EC102B91
:10E0E00016F05CF941EC1A0B1FED361BB0EE480A36
:10E0F000F0EE680A17F050F91FED381B51EC100BC9
:10E1000053EC112B16F04AF941EC190B1FED3B1B98
:10E11000B0EE480AF0EE680A17F03EF91FED3D1B1D
:10E1200051EC100B53EC112B16F038F953EC192B62
:10E1300016F08DF853EC1A2B16F02AF941EC100B5F
:10E140001FED441B12E032E0B0EE480AF0EE680A20
:10E1500016F03EFF1FED471B51EC100B53EC112B3B
:10E1600016F01CF941EC100B1FED4A1B51EC100B83
:10E1700053EC112B16F06BF816F060FAC5F8B000EE
:10E18000B0F1804F03DAB0EE000A85ED2C0A95ED70
:10E19000100AD5ED2C0A6021B8EE400ABB4820EEEB
:10E1A000800A85ED2C0A15F033FFA760E76005B003
:10E1B000BDEC068BF0BD70B504002DED028B8AB06E
:10E1C0009FEDB30A8DED010A8DED070A04D0012CF5
:10E1D00008D0022C14D10AE008AA07A901A806F069
:10E1E000D5F80DE007A901A806F082F908E007A913
:10E1F00001A806F017FA20469DED010AFFF7B9FEC7
:10E200009DED070ADFEDA30AA0494FF47A73803130
:10E2100060EE200A01EB84014A6CFDEEE00AB2FBDD
:10E22000F3F210EE900A4243C1F8A4209DED018A5A
:10E23000DFED990A91ED0E1A68EE201AB8EE411A38
:10E2400021EE811AC1EE201AFDEEE10A10EE900ACD
:10E25000C1F898001CB1012C12D0022C2CD144F230
:10E260005062904203DB44F21870C1F89800D1F874
:10E27000B420824201DAC1F8B4000CB1012C1BD1E8
:10E2800010EE100A16F097F905460E4618EE100A21
:10E2900016F091F90246BDF82000CDE90221641C78
:10E2A0007EA30495009440F2AC42AFF2C071CDE978
:10E2B000056004200DF0C2FC0AB0BDEC028B70BDFD
:10E2C00010B50020FEF79EFB28B101210720FFF7C3
:10E2D00076FB002010BD00210720FFF770FB012016
:10E2E00010BD7047694A8032126B1AB1022A01D000
:10E2F00075A2D0E476A2FCE72DE9F041774A88B018
:10E3000005AB07CA614C83E80700803401A9B4F863
:10E310001C01FFF734FC01A815F08FFE704F401C64
:10E32000F9690A7852085043C0F1A0054878C0F155
:10E330004A0601A815F081FEFA69117801FB005820
:10E34000608B0090A8B29568238BB1B201AAA84750
:10E35000FD6905AA68788119081A618B0091216B03
:10E36000238BAC6852F8212081B208F10A0080B2F8
:10E37000A04708B0BDE8F081444810B58030408B1C
:10E3800007F078FEBDE81040B6E72DE9FF4F87B0F3
:10E39000DFF8F8A007460AF1800A09988B46C10702
:10E3A000BAF81A60149C5046DFF834811D46059473
:10E3B00000EB870967D0A4F11E000690012F3AD127
:10E3C0005046BAF86E10006B21B128B1022805D072
:10E3D00044A104E046A102E046A100E048A101A852
:10E3E00015F04DFE01A815F028FED8F81C200B30C2
:10E3F000117800FB0150B0F5A07F02DB2D1A05F269
:10E400003B15BAF872000096012802D0069881B236
:10E4100000E0A1B2A5F12800D2F808C080B2002324
:10E4200001AAE04701A815F008FED8F81C100978E9
:10E4300000FB01556D1FBAF86A0050EA070102D0CF
:10E4400001286DD06DE0D9F89800B0F57A7F07DB30
:10E450006421323090FBF1F0012201AB022169E02E
:10E460002AA101A815F00BFE01AA2AA12A4816F03C
:10E4700059FDBBF1000F02D02848FFF72BF91FB15F
:10E48000012F66D070E0BEE05FE049E0204200204E
:10E49000000000000000C84200007A4463686C3A43
:10E4A0002564203A205265733A2566202C202020CE
:10E4B00020543A2566202C2020202052743A2564CE
:10E4C000203B2020200A0000CBAECFE4BFD50000C7
:10E4D000456D7074792054616E6B0000546B0208B6
:10E4E0002C000020BDF8CBAE202020200000000032
:10E4F00020200000466565642020202000000000E8
:10E5000045696E67616E672000000000203C203185
:10E510000000000025730000902F00201C45002003
:10E520005FB1D9F898006421401D90FBF1F001AB78
:10E5300001220121FFF767FA96E7F749DAF8980018
:10E5400001AB91FBF0F00322F3E7A1B2A8B2009671
:10E550000FE0BAF86E1099B1BAF87200012803D032
:10E560000698009681B201E0A1B20096A5F12300C1
:10E5700080B2D8F81C200023D2F808C0E74AE04750
:10E58000E64815F05AFD0146D8F81C00027840789C
:10E5900001FB02550319BBF1000F03D0D8F820008E
:10E5A000FFF798F8D8F81C0040781C1ABAF86A00EF
:10E5B000384309D0DAA2AFF2A401D84816F0B2FC71
:10E5C0002FB1012F07D012E0D7A2D9A1F5E7A1B250
:10E5D000A8B2009610E0BAF86E1099B1BAF87200BD
:10E5E000012804D0A4F11E0081B2009601E0A1B27E
:10E5F0000096A5F1230080B2D8F81C20002397686C
:10E60000C64AB8471E340998800729D5D9F8A4000E
:10E610006421323090FBF1F00122574601AB1146E4
:10E62000FFF7F1F9386B20B1022802D001AAC1A18D
:10E6300001E001AAC2A1B94816F074FC3879062895
:10E6400002D0BBF1010F13D0A1B2A5F15A00009680
:10E65000D8F81C2080B200239768B04AB8471E340F
:10E660000998000744D5BAF87210012905D03FE097
:10E67000A1B2A5F18C000096EAE79AED2C0AB34905
:10E6800010EE100A88420CDDB1A1A44816F04AFC35
:10E69000A4F11E0081B2283D0096A8B2D8F81C2033
:10E6A00021E0D8F800004746012826D0DFEDAC0A6B
:10E6B00030EE200A5FED880A01AB002280EE201ABE
:10E6C0000321BDEEC10A10EE100AFFF7E6F901AA18
:10E6D000A4A1924816F026FCA4F11E00009681B277
:10E6E000283DFA69A8B2002395688C4AA8471E34D1
:10E6F00005980BB0201ABDE8F08F9EA1874816F050
:10E7000011FCE9E79F480168CA072BD18A0729D481
:10E71000490727D490F8CC10890723D490F8D41057
:10E7200089071FD490F8DC1089071BD490F8E410F7
:10E73000890717D490F80411C90713D190F8EC1089
:10E7400089070FD490F8F41089070BD490F8FC10C7
:10E75000890707D4817B052904D0C07B502801D0CC
:10E760000020704701207047F8B5864D07461646D1
:10E77000B5F884000C4600287DD1A87B01287AD00A
:10E78000022878D02879012803D0022801D0032854
:10E7900079D195F8CC00C0070CD00EF0B9F9D5F8B6
:10E7A000D010401AB42805D395F8CC0040F00200F0
:10E7B00085F8CC0095F8D400C0070CD00EF0A8F96D
:10E7C000D5F8D810401AB42805D395F8D40040F0F5
:10E7D000020085F8D40095F8DC00C0070CD00EF0DC
:10E7E00097F9D5F8E010401AB42805D395F8DC0065
:10E7F00040F0020085F8DC0095F8E400C0070CD07A
:10E800000EF086F9D5F8E810401AB42805D395F82B
:10E81000E40040F0020085F8E40095F8EC00C00741
:10E820000CD00EF075F9D5F8F010401A0A2805D36F
:10E8300095F8EC0040F0020085F8EC0095F8F40043
:10E84000C0070CD00EF064F9D5F8F810401A0A2869
:10E8500005D395F8F40040F0020085F8F40095F82F
:10E86000FC00C0070FD00EF053F9D5F80011401A84
:10E870000A2808D301E02CE005E095F8FC0040F000
:10E88000020085F8FC00FFF73DFF2979062903D037
:10E8900048B1B5F8721031B1F0070FD003223B46F2
:10E8A0000021009405E0F00708D003223B46012137
:10E8B00000940020FFF769FD04441E34B00709D41A
:10E8C000700706D53B460822002102200094FFF77E
:10E8D0005CFDF8BD01223B46002110460094FFF785
:10E8E00054FD0444ECE770B5264C14263546608B85
:10E8F00007F0C0FB206B70B102284DD022A2294640
:10E900003046FFF7C8F9FFF7F7FCBDE87040052275
:10E9100050215A2028E73DE040420F00902F002070
:10E92000A6CC532F636D00004DA6B82E636D00007A
:10E9300020257300CBAECEC22020202573A1E60097
:10E9400054656D702E20202573A1E60000504348C9
:10E95000544F432020203E3230302070706200003F
:10E960000000FA43544F432020202025732070706C
:10E9700062000000544F43202020202D2D20707075
:10E9800062000000A0420020B6A8C1BFC8A1CBAE63
:10E9900000000000EFA2B2E7F4A2B0E710B5F74C18
:10E9A000608B07F067FB206B60B102280CD0F4A2EB
:10E9B00014210846FFF76FF905225021BDE81040E9
:10E9C0005A20D1E6F0A2F3E7EAA2F1E710B5EB4C4A
:10E9D000608B07F04FFB206B60B102280CD0ECA2DB
:10E9E0000A210846FFF757F905225021BDE81040DB
:10E9F0005A20B9E6E8A2F3E7EBA2F1E710B5DF4C45
:10EA0000608B07F037FB206B60B102280CD0E0A2CE
:10EA10000A210846FFF73FF905225021BDE81040C2
:10EA20005A20A1E6DCA2F3E7DFA2F1E710B5D34C50
:10EA3000608B07F01FFB206B60B102280CD0D4A2C2
:10EA400014210846FFF727F905225021BDE81040A0
:10EA50005A2089E6D0A2F3E7D3A2F1E710B5C74C5C
:10EA6000608B07F007FB206B40B1022808D0D2A2D0
:10EA70001421BDE810400846FFF70DB9D0A2F7E712
:10EA8000D1A2F5E71CB5D249D1E90001CDE90001D9
:10EA90000EF0EFFCB9480188C1F382113DF8111066
:10EAA0004183817B0A290BD2DFE801F0050A0A0BBA
:10EAB000191C0A0A0A0EC07B002801D1FFF7CEFFFD
:10EAC0001CBDFFF7B3FF1CBDC07B802804D081288C
:10EAD000F9D1FFF77BFF1CBDFFF790FF1CBDFFF7CF
:10EAE0005DFF1CBDC07B502804D05228F9D1FFF730
:10EAF000FAFE1CBDFFF740FC1CBD2DE9F04F9F4CFA
:10EB00000E46814654F8C52B89B002F00100C2F3CD
:10EB100080010844C2F340010144E079DFF8B4A267
:10EB20008346C0F340000144E07B4FF00008864676
:10EB3000C0F340000144E07D0790C0F34000014471
:10EB4000E07F0690C0F34000084494F83F10C2F301
:10EB5000821701F00103034494F827000590C0F3E5
:10EB60004000034494F82F000490C0F34000034495
:10EB700094F837000090C0F340001844C2F34023DB
:10EB8000184410F0FF0F7D48A4F1C504807B7DD0B0
:10EB900005287CD001287BD0022879D0072877D09F
:10EBA000082875D022F4E072002022605FEAC27C5F
:10EBB0004FF0010301AD06D08DF80400012022F4CE
:10EBC000E072403222605FEA827C05D522F4E07276
:10EBD0002B544032401C2260530706D5022322F4F6
:10EBE000E0722B544032401C2260C90707D0032139
:10EBF0002954216821F4E0718031401C21605FEAD2
:10EC00008B7107D504212954216821F4E0718031EA
:10EC1000401C21605FEA8E7107D5052129542168C7
:10EC200021F4E0718031401C21600799890707D5E4
:10EC300006212954216821F4E0718031401C2160B3
:10EC40000699890707D507212954216821F4E07125
:10EC50008031401C21600599890708D50821295475
:10EC60002168401C21F4E0718031C0B22160049918
:10EC7000890708D5092129542168401C21F4E07135
:10EC80008031C0B221600099890702E024E04DE0A4
:10EC90004AE008D50A2129542168401C21F4E0717A
:10ECA0008031C0B22160227BB2FBF0F300FB132065
:10ECB00020732088C0F38210B84201D0FFF7E2FE33
:10ECC000207B285C0B282FD2DFE800F0343C9EAB81
:10ECD000B4BEC8D0DAE2EA00617BFF2901D0FF218F
:10ECE0006173D10601D4104615E001280FD0022827
:10ECF0000DD0608B0090DAF81C00B1B240F23F12E8
:10ED00004078304483B21FFA89F006F0F8FD20689D
:10ED100020F01000206020F4E0702060C0F382102A
:10ED2000B84201D0FFF7AEFE09B0E4E4E07B502822
:10ED3000FAD037E7206B18B1022801D026A168E08D
:10ED400029A166E0206B18B102285BD029A160E000
:10ED500058E00000566F6C756D65747269632044ED
:10ED6000697370656E73696E67000000566F6C752D
:10ED70006D656E204175736761626500A042002079
:10ED8000B2FA20CBAE00000050726F64756374005D
:10ED9000D1AD20BBB7000000526563697263756C2A
:10EDA0006174696F6E00000052657A69726B756CF0
:10EDB0006174696F6E000000BECD20D0F7000000C6
:10EDC00052656164790000004265726569740000F3
:10EDD0004C6B02082C000020C7EBB8FCBBBBB4BFD7
:10EDE000BBAFD6F900000000455843482E552050CF
:10EDF00041434B00C7EBB8FCBBBBD7CFCDE2B5C698
:10EE000000000000D4A104E0206B40B1022806D02D
:10EE1000D5A1D94815F033F94FF001084AE0D7A140
:10EE2000F7E7206B20B1022802D0AFF664113EE074
:10EE3000D7A13CE0206B18B1022803D0D7A136E05F
:10EE4000D9A134E0DCA132E0206B18B1022803D054
:10EE5000DDA12CE0E0A12AE0E4A128E0206B18B1BC
:10EE6000022801D0E7A122E0E9A120E0206B18B13F
:10EE7000022803D0E9A11AE0EDA118E0F1A116E003
:10EE8000206B18B1022801D0F3A110E0F6A10EE02A
:10EE9000206B18B1022801D0F7A108E0FAA106E022
:10EEA000206B18B1022801D0FBA100E0FEA1B248FE
:10EEB00015F0E5F8207B617B2A5C4FF6E07091420B
:10EEC000216823D18A0609D5638BA6A2314648461C
:10EED000FEF7CAFE206820F0200036E041F0200155
:10EEE0002160B8F1000F00D1608B0090DAF81C208F
:10EEF000238BB1B295681FFA89F09F4AA847638BAC
:10EF00009D4A31464846FEF7AFFE0DE741F020012D
:10EF10002160B8F1000F00D1608B0090DAF81C205E
:10EF2000238BB1B297681FFA89F0934AB847638B75
:10EF3000914A31464846FEF797FE207B295C617373
:10EF4000401C2073206840F010002060ECE6DB4895
:10EF50004178DB484278914208D0D8490268583954
:10EF60008A654268CA650089A1F86000704710B5DB
:10EF70000346FFF7ECFF002B06D005225021BDE829
:10EF800010405A20FFF7F0BB10BD10B5FEF708FF88
:10EF9000FEF7A2FEBDE8104060E5C8484EF66022CC
:10EFA0002030416B5143C0F8F811B0F87420012AA9
:10EFB00003D0C449C0F8F8117047C34A1144490846
:10EFC000F8E7BE4910B520310020087448748871F4
:10EFD000C871C1F81402C1F81C02BC494861FFF7AE
:10EFE000D4FFBDE81040D8E71FB5B44C2034608B87
:10EFF00007F040F8206B18B1022803D0B4A102E05A
:10F00000B5A100E0B7A1684615F039F8684615F0DB
:10F0100014F8AE49401CC9690A784978520850432F
:10F02000C0F1A000C1F172016A46FEF734FE1FBDB7
:10F030002DE9F843A14DDFF840812035B5F87E0079
:10F04000D5F81812421A286B58B3022829D0A8A163
:10F05000404615F067FF404614F0EFFF9B4F401C01
:10F06000FA6992F800C054784FEA5C014843C0F155
:10F07000A006688B0090ACEB8C007E343044D2F854
:10F0800008C02B8B214680B29CA2E047688B009081
:10F09000FA6921462B8B9468B0B24246A047BDE87E
:10F0A000F88397A1D4E710B5FEF77AFEFEF714FEB9
:10F0B000BDE8104098E78148002120300222017409
:10F0C000427481710122C271C0F81812C0F8141282
:10F0D0007E488261E7E710B5784C20342079032818
:10F0E0000ED1D4E9490181420BD154F8C40FB4F8D0
:10F0F000581001EBC10202EB011100EB810020600E
:10F1000010BD0DF005FDD4F8C0108142F8D2401AB0
:10F1100034F86C1F00EB8000400041433C20B1FB01
:10F12000F0F0A16D0844A06510BD10B5634C20340B
:10F13000207902280ED10DF0EBFCD4F8C0108142EA
:10F1400008D2401A34F86C1F00EB800040004143A5
:10F150003C20DBE0E2E00000455843482E555620B5
:10F160004C414D5000000000C7EBB8FCBBBBB9FDE3
:10F17000C2CBD6F900000000902F0020455843482C
:10F180002E46494E414C2046494C54455200000001
:10F19000454D5054592054414E4B0000B2FACBAE6D
:10F1A0003CC9E8B6A8D6B50050524F445543542048
:10F1B0003C20532E502E00004155534741424520DC
:10F1C0003C20532E502E0000BDF8CBAE203E20C96F
:10F1D000E8B6A8D6B5000000464545442050524F39
:10F1E00044554354203E20532E502E0045696E67EF
:10F1F000616E672041555347414245203E20532EC2
:10F20000502E0000CEC2B6C83EC9E8B6A8D6B5009A
:10F2100054454D50203E20532E502E00BDF8CBAE0D
:10F2200020CEC2B6C83EC9E8B6A8D6B500000000D8
:10F23000464545442054454D50203E20532E502EE7
:10F240000000000045696E67616E672054454D50AF
:10F25000203E20532E502E00C7EBBCECB2E9D7CF96
:10F26000CDE2B5C600000000434845434B2055564B
:10F27000204C414D50000000C7EBBCECB2E9B4BFDC
:10F28000BBAFD6F900000000434845434B20552052
:10F290005041434B00000000C7EBBCECB2E9544FB7
:10F2A00043B5E7BCAB000000434845434B20544FF7
:10F2B000432053454E534F5200000000804200202F
:10F2C0007864002020BF0200C081FAFF2C000020DB
:10F2D0005546B3E5CFB40000466C757368205546BB
:10F2E00000000000537075656C756E672055460010
:10F2F0002020256420C3EB202000000020202000D7
:10F30000202025642053656320200000B1FBF0F02D
:10F31000A16D0844A0650DF0FBFB606510BD10B544
:10F32000FB480CF0D8FCBDE81040D4E610B5F84816
:10F330000CF0D1FCBDE81040F7E6F649096804E09E
:10F34000814201D10120704789680029F8D100204D
:10F350007047F04B10B50246186868B11046FFF7C9
:10F36000ECFF002809D1196810680C68844205DD9B
:10F37000201A0860186890601A6010BD0029FCD03F
:10F3800010680B68C31A1360886830B104689C4227
:10F3900007DD036814681B1B0360886890608A603F
:10F3A00010BD0146ECE7DC49042091F82022042A34
:10F3B00008D21046D74A121D125C042A00D3042238
:10F3C00081F820227047D44810B50079062805D06E
:10F3D000CF48BDE8104078300CF07DBCFFF7E3FF6C
:10F3E00004280ED2CD4900EB4002642341F82230BC
:10F3F00001EB820102230B714871BDE81040084601
:10F40000A7E710BDAFF24100FEF7C1BBD9E5AFF2EF
:10F410000300FEF7BCBB1CB5FEF7C2FCFEF75CFCAC
:10F42000FFF704FBBA49BC481831CDE90001D0F818
:10F43000F801AFF22503024600210CF07CFC1CBD54
:10F44000B548032101740021417401228271C17108
:10F45000C0F81C12DFE700F004B8AFF20500FEF7B9
:10F4600096BB7CB5AB4824384069002840D0AA4CF4
:10F4700004F5C87594F8250194F82411884241D206
:10F48000411C84F825112044092190F820210620F0
:10F49000802A21740FD081216174A0710520E07150
:10F4A000FEF77EFCFEF718FCFFF790FACDE9004569
:10F4B000B4F87A0012E080216174A0710420E07138
:10F4C000FEF76EFCFEF708FCFFF798FA94F82501AA
:10F4D00003280ED0CDE90045B4F878004FF47A71D6
:10F4E0004843AFF2890300224FEA02010CF023FCEB
:10F4F0007CBDAFF299030022114644F62060CDE9AD
:10F500000045F3E728460CF0E6FB814878300CF024
:10F51000E2FBBDE87C4093E71CB57F4C0021481E10
:10F52000C4E94A107B48012324388022436104F552
:10F53000907084F825110A548121195402210A542B
:10F54000032084F82401FFF78CFF04F5D470CDE983
:10F55000004034F8780F618808444FF47A71801EB7
:10F560004843AFF25F13642201210CF0E4FB1CBDA1
:10F57000D2E7AFF20300FEF70ABB1CB5FEF710FCA2
:10F58000FEF7AAFBFFF752FA614963481831CDE94B
:10F590000001D0F8F801AFF22503024600210CF07B
:10F5A000CAFB1CBD5C480321017400214174012287
:10F5B0008271C171C0F81C12DFE75748B0F87400BF
:10F5C000012800D03CE7EDE710B5FEF779FE524880
:10F5D00090F80411C9070CD00079022806D003283E
:10F5E00007D1FFF79CFEBDE81040E6E7FFF79EFE5F
:10F5F000F9E710BD10B5484C206820F49050206009
:10F600000DF086FAC4F8F4012046BDE8104006F07B
:10F6100090BD2DE9F843404DDFF8048128462A6B60
:10F62000B0F820013C2192B3022A31D0B0FBF1F2B4
:10F6300001FB1203B0FBF1F23AA1404615F072FC57
:10F64000404614F0FAFC334F401C243FFA6992F80C
:10F6500000C054784FEA5C014843C0F1A006688BB3
:10F660000090ACEB8C002B8B7E343044D2F808C079
:10F67000214680B2AFF27C32E047688B0090FA6995
:10F6800021462B8B9468B0B24246A04707E5FFE7BE
:10F69000B0FBF1F201FB1203B0FBF1F226A1CCE7C3
:10F6A0002DE9F8431C4C608B06F0E4FC194DE07B1F
:10F6B000243D61285CD062287ED1206B00287CD05C
:10F6C0000228FCD021A6304614F0B7FCEA69401CA1
:10F6D000A846117849084843C0F1A0075078C0F106
:10F6E0007205608B0090D2F808C0238BA9B2B8B223
:10F6F0003246E0471AA200BFD8F81C606D1D707832
:10F700002844618B0091238B81B2B8B2B46886E043
:10F71000D043002050000020A04200202C450020B3
:10F72000902F00202020256420B7D620256420C3F8
:10F73000EB2020200000000020202564204D696E71
:10F74000202564205365632020000000496E736506
:10F7500072742044756F5061636B202000000000BC
:10F76000C8BBBAF3B0B42053455420BCFC00000021
:10F77000206B18B3022821D0FEA6304614F05DFCA1
:10F78000EA69401CA846117849084843C0F1A0071F
:10F790005078C0F17205608B0090D2F808C0238BBE
:10F7A000A9B2B8B23246E047D8F81C606D1D707837
:10F7B0002844AFF25402A4E732E032E0F1A08046E0
:10F7C00014F03BFCEA69401C117849084843C0F139
:10F7D000A0065078C0F17207608B0090D2F808C084
:10F7E000238BB9B2B0B24246E047D5F81CC07F1DAA
:10F7F000E9A29CF801000744608B0090DCF808C087
:10F80000238BB9B2B0B2E047ED69618B7F1D687898
:10F8100000913844238B81B2AC68E4A2B0B2A04717
:10F820003DE4E7A6304614F008FCEA69401CA8460F
:10F83000117849084843C0F1A0075078C0F172051B
:10F84000608B0090D2F808C0238BA9B2B8B23246C0
:10F85000E047D6A250E7DF4910B58A7B0A744874A6
:10F86000087988710020C871FEF736FAFEF798FA19
:10F87000BDE8104014E72DE9F047D64C04F5BC7004
:10F8800021798146052903D0BDE8F0470CF023BA61
:10F89000B4F8200110B1401EA4F82001B4F82201F0
:10F8A00010B1401EA4F82201FFF7B3FE94F8240122
:10F8B000002701264FF4967828B10225012821D08F
:10F8C000022845D1AAE0B4F822010028F9D100218C
:10F8D0000520FDF7D7F801210320FDF7D3F800211B
:10F8E0000420FDF7CFF800210720FDF7CBF8012118
:10F8F0000820FDF7C7F800210620FDF7C3F884F8BB
:10F90000246186E0B4F822010028DAD194F82501B8
:10F9100001281ED0022839D001210520FDF7B2F8B8
:10F9200000210320FDF7AEF801210420FDF7AAF81D
:10F9300000210720FDF7A6F801210820FDF7A2F815
:10F9400000210620FDF79EF884F82561A4F82251D5
:10F95000E8E000210520FDF795F800210320FDF7E0
:10F9600091F800210420FDF78DF800210720FDF714
:10F9700089F800210820FDF785F800210620FDF711
:10F9800081F884F825514FF46170C7E094F826019E
:10F99000401CC0B284F82601052820D20021052091
:10F9A000FDF770F801210320FDF76CF80021042019
:10F9B000FDF768F800210720FDF764F80121082011
:10F9C000FDF760F800210620FDF75CF8A4F822811D
:10F9D00084F8257180A10420FDF796F9A2E00121A9
:10F9E0000520FDF74FF800210320FDF74BF800211B
:10F9F0000420FDF747F800210720FDF743F8012117
:10FA00000820FDF73FF801210620FDF73BF884F8B8
:10FA1000245184F82571A4F8228183E0B4F82201EE
:10FA200000287FD194F8250130B1012820D0022888
:10FA30003AD0032876D154E001210520FDF722F8C1
:10FA400001210320FDF71EF800210420FDF71AF81C
:10FA500000210720FDF716F801210820FDF712F814
:10FA600001210620FDF70EF884F82561F02055E00D
:10FA700001210520FDF706F801210320FDF702F81A
:10FA800001210420FCF7FEFF00210720FCF7FAFF0C
:10FA900001210820FCF7F6FF01210620FCF7F2FF08
:10FAA00084F825513C2039E000210520FCF7EAFFCD
:10FAB00000210320FCF7E6FF00210420FCF7E2FF11
:10FAC00000210720FCF7DEFF01210820FCF7DAFF08
:10FAD00001210620FCF7D6FF032084F825011E2013
:10FAE0001CE000210520FCF7CDFF00210320FCF7DE
:10FAF000C9FF00210420FCF7C5FF00210720FCF707
:10FB0000C1FF00210820FCF7BDFF00210620FCF703
:10FB1000B9FF042084F825014FF6FF7000E001E0F2
:10FB2000A4F82201B4F82001002808D148460CF0BE
:10FB3000D2F8FFF75FFDBDE8F04762208BE6BDE835
:10FB4000F087AFF2CD20FEF722B8F8B5214D688BD3
:10FB500006F090FA286B58B1022863D025A42046FD
:10FB600014F06BFA411C2548C0690278520847E03E
:10FB700056E00000BCD3C8EBC7E5BDE0BCC1202007
:10FB800020000000496E7365727420202020202020
:10FB90002020202020200000636172747269646755
:10FBA0006520616E642070696C6C00007468656E1D
:10FBB00020707265737320534554206B6579000083
:10FBC000496E736572742044756F5061636B2020B9
:10FBD0002C000000A0420020444953504C41595F82
:10FBE00055465F5355425F53544154455F323A3056
:10FBF00000000000554620C7E5CFB4002C000020CF
:10FC00005143C1F1A00241786B8B00932B8B95B2CD
:10FC1000C1F17201866889B222462846B047F8BD14
:10FC2000F3A49CE7F4A49AE7F64810B5017900F52F
:10FC3000B070052903D0BDE810400CF04CB80CF0B2
:10FC40004AF8BDE81040612005E6AFF22300FDF759
:10FC50009EBFF8B5EB4D688B06F00CFA286BD0B15F
:10FC600002281AD0E8A4204614F0E7F9411CE9481C
:10FC70006B8BC069027852085143C1F1A0024178F0
:10FC800000932B8B95B2C1F17201866889B222462E
:10FC90002846B047F8BDE0A4E5E7E3A4E3E71CB5D8
:10FCA000FEF77EF8FEF718F8FFF7D3FFE248D549D4
:10FCB000AFF26903CDE9001047F23050024600214F
:10FCC0000CF039F81CBDCF48072101746021417444
:10FCD000052181710621C171002180F8241180F86D
:10FCE000251180F82611A0F82011A0F82211D6E7DE
:10FCF0001CB5FEF755F8FDF7EFFFFFF726FFFFF7FE
:10FD000088FCCD48BF491830AFF2C913CDE90010C7
:10FD10004FF47A70024601210CF00DF81CBDB94871
:10FD2000072200210274417405238371C27180F897
:10FD3000241180F8251180F8261141F6A621A0F89B
:10FD40002011B421A0F82211D2E710B50CF0E0FE8A
:10FD5000AC49D1F8F42182420DD80B689C050AD435
:10FD6000801AB64AB0FBF2F0B1F87C20824202D889
:10FD700043F40070086010BDFEF7BEBA10B5FEF780
:10FD80000FF8FEF7F9FABDE81040FFF706B99D48F5
:10FD900005210174502141749E4900204861EDE71E
:10FDA00070B5984C4FF47840658B608306F062F92B
:10FDB000FF210846FEF796FA658370BD10B5FDF782
:10FDC000EFFFFDF789FFBDE81040E9E780680028F4
:10FDD00000D000477047984810B530380BF07BFFD3
:10FDE00088480179032907D0783895A1C26FBDE80A
:10FDF00010400420FCF788BFD0F82411C0F8281167
:10FE0000FFF769F9BDE81040FFF7D7BBAFF2390043
:10FE1000FDF7BDBE1CB5FDF7C3FFFDF75DFFFEF7A7
:10FE200062FD78498B4AB1F81C015043B1F86C204F
:10FE300090FBF2F00022C1E9490201F59872AFF29D
:10FE40003303CDE90012024600210BF074FF1CBD04
:10FE50006C4810B5007902280CD0774830380BF088
:10FE60003AFF684876A17838C26FBDE81040042098
:10FE7000FCF74ABFBDE81040FFF757B9AFF22F00BB
:10FE8000FDF785BE1CB5FDF78BFFFDF725FFFEF7DF
:10FE900085FD69485B493038AFF21F03CDE900109A
:10FEA0004EF66020024601210BF045FF1CBD10B547
:10FEB000FEF706FA534A574B002160B10420107434
:10FEC000517402209071D1715961FFF7DBFFBDE8D9
:10FED0001040FFF762B81174012050749171D17114
:10FEE000C3E90510FFF76AFFF1E710B5454C608BD9
:10FEF00006F0C0F8206B40B1022808D056A2FF21BE
:10FF0000BDE810400846FDF7C6BE55A2F7E758A267
:10FF1000F5E710B5FDF744FFFDF7DEFEBDE8104044
:10FF2000E3E72DE9F843374DDFF854812946286B84
:10FF3000B1F8202160B302282AD0AFF64C414046E8
:10FF400014F0F0FF404614F078F8324F401CFA6984
:10FF500092F800C054784FEA5C014843C0F1A00613
:10FF6000688B0090ACEB8C002B8B7E343044D2F845
:10FF700008C0214680B2AFF67C42E047688B009013
:10FF8000FA6921462B8B9468B0B24246A04747E4F9
:10FF9000AFF69441D3E7F8B51A4C608B06F06AF8D7
:10FFA000E07B9028206B1CD008B3022878D035A5C0
:10FFB000284614F042F8411C1648C06902785208DD
:10FFC0005143C1F1A00241787823A3EB5101638B27
:10FFD0000093238B94B2866889B22A462046B047A4
:10FFE000F8BD18B1022801D029A5E1E756E057E095
:10FFF000466C757368000000537075656C756E67AC
:020000040801F1
:1000000000000000A0420020554620D7BCB1B8D661
:10001000D00000002C000020554620507265706111
:1000200072652E2E2E0000005546204265726569CD
:1000300074656E2E2E2E00000044002080510100B9
:10004000696E636F72726563742073746174653A6C
:1000500020256400C0270900D0B920D1B9000000D4
:1000600050726573737572652052656C69656600C0
:10007000447275636B2061626C617373656E00001E
:10008000902F0020C5C5C6F8BDD7B6CE20320000DF
:10009000C5C5C6F8BDD7B6CE20310000F6A587E7A6
:1000A000FAA585E7FE48FDF772BD1CB5FDF778FEA1
:1000B000FDF712FEFFF76FFFFA48A0F5E071AFF20F
:1000C0001B03CDE900104FF47A70024601210BF0BA
:1000D00032FE1CBDF44810B5082101749121417411
:1000E000072181710321C1710A21A0F82011FFF7B6
:1000F000DCFFBDE8104014E770B5EB4CE94D20790A
:10010000072804D02846BDE870400BF0E4BDB4F8E1
:10011000201111B1491EA4F82011FFF702FFB4F815
:10012000200100280CD16079032802D0BDE870407E
:10013000D0E728460BF0CFFDBDE87040FEF741BF89
:1001400070BDD94810B50821017490214174072170
:1001500081710221C171B421A0F82011FFF7A5FF20
:10016000BDE81040DDE6F8B51C4617460D460646CC
:100170000CF0CEFC0146CC48026A891ACB4AB1FB8E
:10018000F2F1B0F86020521A016B81B102290ED051
:10019000C38DC7A1CB4814F0C5FECB4A0094A9B2C9
:1001A000D269B0B23B469468C64AA047F8BDC38D39
:1001B000C6A1EFE7F8B51C4617460D4606460CF0FB
:1001C000A7FC0146B848426A891AB84AB1FBF2F165
:1001D000B0F86820006B521A78B102280DD0C1A186
:1001E000B84814F09FFEB84A0094A9B2D269B0B2E0
:1001F0003B469468B34AA047F8BDBEA1F0E7F8B506
:100200001C4617460D4606460CF082FC0146A648E1
:10021000826A891AA54AB1FBF2F1B0F86420521A39
:10022000016B062391B1022910D0808DB6A1B0FBDD
:10023000F3F3A44814F076FEA34A0094A9B2D2695D
:10024000B0B23B4694689F4AA047F8BD808DB4A1E8
:10025000B0FBF3F3EDE72DE9F041934C86B01D467A
:1002600090460E460746B4F86C0001AB022201210D
:10027000FDF7C9FB206B90B1022810D001AAADA1F7
:10028000904814F04FFE904A0095B1B2D269B8B2CE
:10029000434694688B4AA04706B0BDE8F08101AAA6
:1002A000A9A1EDE7F8B506467F480D461C46016B4F
:1002B000B0F86A00174621B1022902D040B1A64A1F
:1002C00008E008B1A44A01E0A34A0832A3A102E071
:1002D000A14A0832A4A17B4814F024FE7A4A009473
:1002E000A9B2D269B0B23B469468764AA047F8BD3D
:1002F0002DE9F84306466C480D461C46016BB0F8E4
:100300007000904649B1022907D0B8B1012817D032
:10031000022817D003281CD116E030B1012806D0DE
:10032000022807D0032814D106E092A200E092A28E
:1003300093A10BE097A2FBE797A2F9E799A204E04B
:1003400099A202E093A200E099A29CA15D4814F05A
:10035000E9FD5D4F0094A9B2FA69B0B24346D2F804
:1003600008C099A2E0470094FA69A9B2B0B29468B3
:100370004346544AA0470AE62DE9F84F1F468146F6
:1003800012F807B00020DDF82CA0DFF83C81D05532
:100390001446CDF800A0D8F81C200D4689B2966806
:1003A0001FFA89F022460A9BB047204613F045FE0B
:1003B000D8F81C20A9B2137800FB03960A98009085
:1003C000D2F804C0B0B253465A46E047D8F81C10E1
:1003D0003C441FFA85FC0878CDF800A006448F68DD
:1003E000621CB0B261460A9BB8472F48621C29467E
:1003F000838B01B03046BDE8F04FFDF735BC2DE9E9
:10040000FC5F1D46814612F805A00020DDF838B0DB
:100410002D4E50551446CDF800B0F269884689B289
:1004200097681FFA89F022460D9BB847204613F0C3
:1004300004FEF1695B460A7804F805A000FB029906
:100440000C9804EB050A2F180020E15D0191E0559E
:100450000D980090F2691FFA88F11FFA89F09568EB
:100460005246A847504613F0E8FDF169097800FBB1
:1004700001900199E155B3E0446567617373696E5A
:10048000672053746167652031000000446567612F
:100490007373696E672053746167652032000000D2
:1004A000F900010860440020A042002080510100B2
:1004B000B4BFBBAFD6F93A256420CCEC202564C983
:1004C000FD202000902F00202C0000205041434BA5
:1004D0003A256420444159532025644C2020202093
:1004E00000000000B9FDC2CBC6F73A256420CCEC71
:1004F0002020200046494C5445523A25642044416E
:100500005953202020000000D7CFCDE2B5C63A25B0
:100510006420CCEC20256420D0A1CAB120200000AA
:1005200055563A2564204441595320256448722089
:1005300020200000C1F7CBD93A257320C9FD2FB781
:10054000D6D6D32020000000464C4F573A257320C2
:100550004C2F6D696E20200020E90008554E49544B
:100560003A25732020202000B5A5CEBB3A25732064
:10057000202020004F46460046454544000000002C
:1005800053454E534F52204346473A25732020206F
:1005900020000000544F4300464545442F544F432C
:1005A00000000000B9D80000BDF8CBAE000000008C
:1005B000BDF8CBAE2F544F4300000000B5E7BCABF5
:1005C0003A257320202020002020202020202020D9
:1005D000202020202020202020202020202020003B
:1005E000CDF800B0F3693A191FFA88F19C6880B21F
:1005F0000D9BA047BDE8FC9F2DE9F0431C46F9A3E5
:1006000091460E4607460FCB89B004ADDFF8E48370
:1006100085E80F00D8F83000A8B3022834D0F6A13E
:10062000F74813F02CFDF74D0094B1B2EA69B8B267
:100630004B46D2F808C0F24AE047F14813F0FDFCFF
:10064000E969097800FB0177EA481638C17990F822
:1006500002C0437802788DE80E1083798288EAA17F
:10066000E74814F05FFC98F80A000E280ED2CDE996
:10067000009404A9E24A0B5C31463846FFF77CFE41
:1006800009B0BDE8F083FFE7E7A1C9E70094EA6994
:10069000B1B2B8B294684B46D94AA047F0E7F8B572
:1006A0000646D4481C461746006B0D4618B1022872
:1006B00003D0DFA102E0E1A100E0E5A1D04813F002
:1006C000DEFCD04A0094A9B2D269B0B23B4694682D
:1006D000CB4AA047F8BDF8B50646C6481C461746A3
:1006E000006B0D4618B1022803D0DEA102E0DFA1A5
:1006F00000E0E4A1C24813F0C2FCC24A0094A9B2CF
:10070000D269B0B23B469468BD4AA047F8BDF8B57F
:100710000646B8481C461746006B0D4618B102281D
:1007200003D0DFA102E0E0A100E0E2A1B44813F0B1
:10073000A6FCB44A0094A9B2D269B0B23B46946810
:10074000AF4AA047F8BD2DE9FF4FAA4C804685B0BF
:10075000206B1E460D4618B1022803D0D8A102E036
:10076000DAA100E0DDA1A64813F089FCDFF894B21D
:100770000096E17ADBF81C30DFF884A21FFA88F0DB
:1007800001EB0A029F68A9B2D946079BB847E17AF4
:1007900001EB0A0013F051FCD9F81C104FF064096A
:1007A0000A7802FB0087B4F86A000028D4F89C009D
:1007B00046D0CE4901AB91FBF0F003225FF001017E
:1007C000FDF721F9CA4B01AACAA18D4814F0AAFB72
:1007D0000096DBF81C20A9B2B8B2D2F808C0D846FF
:1007E000874A079BE047864813F027FCD8F81C107F
:1007F000012201AB097801FB0077D4F8A80011466B
:10080000323090FBF9F0FDF7FEF801AABBA17C485D
:1008100014F088FB0096D8F81C20A9B2B8B2D2F820
:1008200008C0774A079BE047A4F82A72A4F82C5224
:100830000798A4F82E02A4F8306209B0BDE8F08F42
:10084000323090FBF9F0012201AB0221B8E7F8B594
:10085000064668481746674A006B1C460D468832B4
:1008600018B1022803D0A7A102E0A9A100E0ACA121
:10087000634814F057FB634A0094A9B2D269B0B23E
:100880003B4694685E4AA047F8BD5A49887B0128D8
:100890000CD1B1F82A02A0F57F42FF3A06D0B1F898
:1008A0003032B1F82E22B1F82C124CE770472DE906
:1008B000F84F82460A20002690468B46082534468B
:1008C00000900CF042F94B48994978384FF6FF7781
:1008D0000A6840F8622F4A684260098901813846F7
:1008E00005F0C8FBDFF80C9189F808A089F80AB078
:1008F00089F81A814FF0000B89F80BB0A9F82A7219
:10090000A9F82C72A9F82E72A9F83072C8F109075B
:1009100045E100BF06EB080009285ED2DFE800F0E1
:10092000051B2A3C4B61605F5E00B9F8841000290A
:1009300053D1B9F81C30564502D148F21F4201E0AC
:10094000B9F8182029460098FFF70DFC09EB0401BF
:1009500081F80CB11EE1B9F81C30564502D148F2BD
:100960001F4201E0B9F8182029460098FFF722FC41
:10097000012126E1B9F8841079BBB9F81C3056453D
:1009800002D148F21F4201E0B9F818202946009828
:10099000FFF735FC022114E1B9F81C30564502D1AD
:1009A00048F21F4201E0B9F8182029460098FFF7E5
:1009B00052FC032105E1B9F8841071B9B9F81C3073
:1009C000564502D148F21F4201E0B9F818202946E5
:1009D0000098FFF767FC0421F3E0DEE0E3E0C7E006
:1009E000B7E0A7E000010203050608090B0C0E0F93
:1009F00011120000A0420020CAB1BCE43A0000007D
:100A0000902F00202C000020253034642D2530321A
:100A1000642D2530326420253032643A253032642A
:100A20003A2530326400000054494D453A00000038
:100A3000D3EFD1D43AD6D0CEC40000004C414E47BB
:100A4000554147453A454E474C4953480000000040
:100A50004C414E47554147453A4445555453434808
:100A600000000000C7E5CFB420554600434C454187
:100A70004E2055462F444953494E46454354494F0D
:100A80004E0000005245494E4947554E47205546B5
:100A90002F444553494E46454B54494F4E000000A4
:100AA000B3E5CFB420554600464C55534820554633
:100AB00000000000535055454C554E472055460008
:100AC000BDF8CBAECBAED6CA3A0000004645454491
:100AD000205155414C4954593A00000045494E4770
:100AE000414E4753574552543A00000040420F00D0
:100AF00020E900082573202573200000257320A11C
:100B0000E6202000D0F2C1D0BAC53A25730000001B
:100B100053455249414C204E4F3A25730000000086
:100B200053455249454E4E554D4D45523A25730059
:100B300078640020B9F81C30564502D148F21F42B3
:100B400001E0B9F8182029460098FFF755FD052166
:100B500037E0B9F81C30564502D148F21F4201E097
:100B6000B9F8182029460098FFF799FD062128E0DA
:100B7000B9F8841089B9B9F81C30564502D148F249
:100B80001F4201E0B9F8182029460098FFF7B0FB92
:100B9000072116E0641CE4B21835761CF6B2092F62
:100BA00014DD092013E0B9F81C30564502D148F293
:100BB0001F4201E0B9F8182029460098FFF747FEC8
:100BC000082109EB040080F80C11E3E73846B04235
:100BD0003FF7A0AE89F80940BDE8F88F10B5FDF7E2
:100BE000DFF80022BDE81040FF2110465FE6F9481B
:100BF0000121017400214174F0E72DE9F04305461D
:100C0000F5A087B00068DFF8CC83069008EB85007C
:100C1000994614460F460E9E806B02AB03220121BB
:100C2000FCF7F1FED8F8300038B1022811D0E5B158
:100C3000012D1CD0022D43D01DE025B1012D04D083
:100C4000022D04D017E0E5A112E0E8A110E0EBA12D
:100C50000EE025B1012D04D0022D04D00BE0EBA154
:100C600006E0EEA104E0F1A102E0F4A100E0F7A1AA
:100C7000FA4813F004FAFA4D0096A1B2EA69B8B244
:100C80004B46D2F808C0F54AE047F44813F0D5F9CE
:100C9000E96902AA097800FB0177F2A1EF4814F094
:100CA00041F998F80A0004280CD2CDE9009606A96B
:100CB000EA4A0B5C21463846FFF75EFB07B0E0E4EA
:100CC000E9A1D5E70096EA69A1B2B8B294684B46AB
:100CD000E24AA047F2E72DE9F0430546BEA087B0FF
:100CE0000068DFF8F082069008EB8500994614460C
:100CF0000F460E9E406C02AB03220121FCF783FEDF
:100D0000D8F8300038B102280FD0C5B1012D18D065
:100D1000022D3DD019E015B1012D02D008E0D6A179
:100D200010E0D9A10EE0DCA10CE025B1012D04D02A
:100D3000022DF8D009E0DCA104E0DFA102E0E2A18D
:100D400000E0E5A1C54813F09AF9C54D0096A1B29F
:100D5000EA69B8B24B46D2F808C0C04AE047BF487B
:100D600013F06BF9E969097800FB017702A9BB4828
:100D700013F085F998F80A0004280BD2CDE9009603
:100D800006A9B64A0B5C21463846FFF7F5FA95E707
:100D9000D5A1D7E70096EA69A1B2B8B294684B46EC
:100DA000AE4AA0478AE72DE9FE4F0446D2A0DFF8FD
:100DB00024B20C9F006888460290DBF830101D4674
:100DC000164648F21F4039B1022905D0854219D193
:100DD000A4B1012C14D01DE0854207D114B1012C1F
:100DE00002D017E0C5A112E0C6A110E014B1012C99
:100DF00002D00FE0C5A10AE0C8A108E0CBA106E03F
:100E0000CDA104E014B1012C34D003E0CDA193486E
:100E100013F035F9DFF848A20097B1B2DAF81C20D8
:100E20001FFA88F0D146D2F808C02B468B4AE0471B
:100E30008A4813F002F9D9F81C10D9460A78C5A1DE
:100E400000FB02880BEB4400B0F85C30B0F858208F
:100E5000824814F067F899F80A0004280CD2CDE90A
:100E6000005702A97D4A0B5C31464046FFF784FAE1
:100E7000BDE8FE8FBEA1CAE70097DAF81C20B1B228
:100E80001FFA88F094682B46744AA047F0E72DE9D2
:100E9000F043504D044685B0164605EB8400994654
:100EA0000F460122DDF83080006D01AB1146FCF7E2
:100EB000AAFD286B28B1022803D064B1012C1CD0F4
:100EC0000EE014B1012C03D00AE001AAACA104E0A9
:100ED00001AAB2A101E001AAB7A1604814F022F86A
:100EE0005F4ACDF80080B1B2D269B8B24B4694687F
:100EF0005A4AA04705B0BDE8F08301AAB4A1ECE7C7
:100F00002DE9FF470746B8A00E46D0E90010314C46
:100F1000CDE90210206B1D46914630B3022824D043
:100F2000B3A14E4813F0FEFFDFF834810095B1B253
:100F3000D8F81C20B8B24B46D2F808C0474AE04760
:100F4000464813F07AF8D8F81C10097800FB0177AE
:100F5000A07A0728206B20D248B1B4F86230B4F8E8
:100F60006020022817D0A6A106E0A9A1D9E7B4F80D
:100F70006230B4F86020AAA1384813F0D3FFCDE95D
:100F80000095A07A02A9354A0B5C31463846FFF736
:100F9000F3F9BDE8FF87A6A1EEE738B1B4F86230F7
:100FA000B4F86020022807D0A5A106E0B4F86230AA
:100FB000B4F86020A6A100E0A9A1284813F0B2FF70
:100FC0000095D8F81C20B1B2B8B294684B46234AB9
:100FD000A047DEE7A04200200002030443454C4C3A
:100FE00020434F4E53542E55503A000043454C4C2D
:100FF00020434F4E53542E44493A000043454C4C35
:1010000020434F4E53542E544F433A005A454C4CB4
:10101000204B4F4E53542E55503A00005A454C4CDD
:10102000204B4F4E53542E44493A00005A454C4CE5
:1010300020434F4E53542E544F433A00B5E7BCABB8
:10104000B3A3CAFD2EC9CF20203A0000B5E7BCAB40
:10105000B3A3CAFD2ECFC220203A0000902F00205B
:101060002C00002025730000B5E7BCABB3A3CAFD7C
:101070002E544F43203A000054454D5020434F4ECC
:1010800053542E55503A000054454D5020434F4E76
:1010900053542E44493A000054454D5020434F4E7E
:1010A00053542E544F433A0054454D50204B4F4E0D
:1010B00053542E55503A000054454D50204B4F4E3E
:1010C00053542E44493A0000CEC2B2B9CFB5CAFD3E
:1010D0002EC9CF20203A0000CEC2B2B9CFB5CAFD8A
:1010E0002ECFC220203A0000CEC2B2B9CFB5CAFD81
:1010F0002E544F43203A000004050B0C54502E553B
:10110000503A000054502E44493A000054454D5086
:101110002E532E502E55503A0000000054454D508D
:101120002E532E502E44493A00000000CEC2C9E88A
:101130002EC9CF3A00000000CEC2C9E82ECFC23A75
:1011400000000000CEC2B6C8C9E8B6A82EC9CF3A82
:10115000000000004D41582025303264204D494E9A
:10116000202530326420A1E620202020202000000D
:10117000CEC2B6C8C9E8B6A82ECFC23A0000000059
:1011800050524F44205245532E532E502E55503A14
:1011900025734DA6B82E636D0000000050524F44D9
:1011A000205245532E532E502E44493A2573A6CC37
:1011B000532F636D00000000CBAED6CAC9E8B6A8B5
:1011C0002EC9CF3A2573204DA6B82E636D000000BE
:1011D000CBAED6CAC9E8B6A82ECFC23A257320A690
:1011E000CC532F636D00000000010208090A0B00B8
:1011F000B4BFBBAFD6F9CAD9C3FC203A0000000087
:101200002530336420CCEC202025303464C9FD0027
:101210005041434B20204C494645203A00000000F5
:10122000253033644441595320253034644C000048
:10123000253033645441474520253034644C000048
:10124000256420CCEC20202564C9FD20202020002E
:101250002564444159532025644C2020202000005F
:101260002564544147452025644C2020202000005F
:10127000F8B50D460646F248F1491746006BB1F83D
:1012800068201C4618B1022803D0EEA102E0F3A1A9
:1012900000E0F8A1FD4813F045FEFD4A0094A9B214
:1012A000D269B0B23B469468F84AA047F8BD2DE930
:1012B000FF471C4692460E460746AFF2D401D1E9DD
:1012C0000001DF4DCDE902010DF108092A6B012A69
:1012D00008D1032049460B5C9B1E0B54401CC0B236
:1012E0000728F8D3A8462AB3022A23D0E9A1E74861
:1012F00013F018FEE64D0094B1B2EA69B8B2534655
:10130000D2F808C0E14AE047E04812F096FEE969E9
:10131000097800FB017798F80A000728D8F8300010
:1013200020D248B1B8F86630B8F86420022817D047
:10133000DCA106E0DFA1DAE7B8F86630B8F864208F
:10134000E0A1D24813F0EEFDCDE900A498F80A1010
:10135000CE4A384619F801303146FFF70DF818E645
:10136000DCA1EEE738B1B8F86630B8F8642002289E
:1013700007D0DCA106E0B8F86630B8F86420DDA13B
:1013800000E0E0A1C14813F0CDFD0094EA69B1B2DC
:10139000B8B294685346BD4AA047FAE5F8B50D4681
:1013A0000646A748A6491746006B4A6B1C4618B16B
:1013B000022803D0D7A102E0DDA100E0E3A1B348F9
:1013C00013F0B0FDB24A0094A9B2D269B0B23B4664
:1013D0009468AE4AA047F8BDF8B50D460646984851
:1013E00097491746006BB1F87C201C4618B10228BB
:1013F00003D0DDA102E0E3A100E0E9A1A34813F0DE
:1014000091FDA34A0094A9B2D269B0B23B46946858
:101410009E4AA047F8BDF8B50D460646884888495B
:101420001746006BB1F87E201C4678B102280FD019
:10143000E2A1964813F076FD954A0094A9B2D269CC
:10144000B0B23B469468914AA047F8BDE1A1F0E7ED
:10145000E6A1EEE7F8B50D46064679487849174605
:10146000006BB1F880201C4678B102280FD0E5A1AE
:10147000864813F057FD864A0094A9B2D269B0B2EB
:101480003B469468814AA047F8BDE5A1F0E7EBA18F
:10149000EEE72DE9FC5F83460A2000260190904686
:1014A0000F46082534464FF6FF7004F0E3FDDFF8E1
:1014B0009091002189F808B089F80A7089F81A819A
:1014C00089F80B10C8F10E07B5E000BF06EB080A5B
:1014D000BAF10E0F6BD2DFE80AF0071C071C071CDD
:1014E00038384C4C60738294B9F8841000295ED16E
:1014F000B9F81C0000905E4502D148F21F4301E09C
:10150000B9F818304FEA5A002A460199FFF775FBDF
:1015100016E0B9F88400002849D1B9F81C10AAF1E6
:10152000010000915E4502D148F21F4301E0B9F885
:10153000183000EBD07040102A460199FFF7CBFB22
:1015400009EB040181F80CA170E0B9F8841071BBBB
:10155000B9F81C0000905E4502D148F21F4301E03B
:10156000B9F81830AAF106002A460199FFF71BFCCA
:10157000E6E7B9F88410D1B9B9F81C0000905E45CF
:1015800002D148F21F4301E0B9F81830AAF108006F
:101590002A460199FFF77BFCD2E7B9F8841031B9EC
:1015A000B9F81C305E4503D148F21F4202E040E02A
:1015B000B9F8182029460198FFF7A2FC0A2131E06A
:1015C000B9F81C305E4502D148F21F4201E0B9F87B
:1015D000182029460198FFF74BFE0B2122E0B9F8AD
:1015E000841031BBB9F81C305E4502D148F21F426D
:1015F00001E0B9F8182029460198FFF758FE0C21A0
:1016000010E0B9F88410A1B9B9F81C305E4502D1D8
:1016100048F21F4201E0B9F8182029460198FFF767
:10162000BDFE0D2109EB040080F80C11641CE4B22E
:101630001835761CF6B2092F01DD09200DE10BE10A
:10164000A0420020B9FDC2CBC6F7CAD9C3FC203ADC
:10165000256420CCEC2020202000000046494C547A
:101660004552204C4946453A25642044415953206F
:101670002020200046494C544552204C4946453ACA
:10168000256420544147452020202000902F002031
:101690002C000020D7CFCDE2B5C6CAD9C3FC203A72
:1016A0000000000025303364CCEC2025303464D0B9
:1016B000A1CAB100555620204C4946452020203A69
:1016C0000000000025303364444159532025303454
:1016D0006448720025303364544147452025303436
:1016E000644872002564CCEC202564D0A1CAB120E6
:1016F000200000002564444159532025644872208D
:10170000202020002564544147452025644872204C
:1017100020202000D1ADBBB7CAB1BCE42020203AC4
:10172000256420B7D6D6D32020202020000000003A
:101730005245434952432E202020203A2564206DF3
:10174000696E2020202020200000000052455A49C8
:10175000524B2E202020203A2564206D696E2020D7
:101760002020202000000000554620C7E5CFB4D639
