:020000040800F2
:10000000F07B002095690108BDC20008BFC200084E
:10001000C1C20008C3C20008C5C200080000000039
:10002000000000000000000000000000C7C200083F
:10003000C9C2000800000000B39F0108CBC200083D
:10004000AF690108AF690108AF690108AF6901082C
:10005000AF690108AF6901080FC6000821C6000892
:1000600033C6000845C6000857C60008AF69010836
:10007000AF690108AF690108AF690108AF690108FC
:10008000AF690108AF690108FF040208AF69010800
:100090000BC600080DC60008AF69010869C6000854
:1000A000AF690108AF690108AF69010877C40008AA
:1000B000AFC4000823C5000897C50008AF69010850
:1000C000AF690108AF690108AF690108AF690108AC
:1000D000AF690108F9C300081DC400082FC4000857
:1000E000FDC60008AF690108AF690108AF690108E2
:1000F000AF690108AF690108AF690108AF6901087C
:10010000AF6901083B3E0208AF690108AF69010809
:1001100041C4000853C40008AF690108AF69010871
:1001200019050208AF690108AF690108AF69010844
:10013000AF690108AF690108AF690108AF6901083B
:10014000AF690108AF690108AF690108AF6901082B
:10015000AF690108AF690108AF69010865C400080B
:10016000AF690108AF690108AF690108AF6901080B
:10017000AF690108AF690108AF690108AF690108FB
:10018000AF690108AF69010851847A030A00096860
:10019000010203040607080913ED451B20FD0413A3
:1001A0000D461B20C9081AD5041AE10481E0D7BA0C
:1001B000A95AA16A99E591C48A0384747D8977C894
:1001C00071546C286740629A5D315902550A514753
:1001D0004DB449504619430B40243D633AC5374955
:1001E00035EC32AD308B2E832C952ABF2810275545
:1001F00025BF233D22CD206F1F201EE21CB21B9085
:100200001A7B19731878178716A115C614F4132BC7
:10021000136C12B41105115D10BD0F230F900E0465
:100220000E7D0DFC0C800C090C980B2B0BC20A5E8A
:100230000AFE09A2094909F508A30855080A08C2D7
:10024000077D073A07FA06BD0682064A061306DF4F
:1002500005AC057C054E052105F604CC04A5047EFD
:1002600004590436041404F303D303B40397037A44
:10027000035F0345032B031303FB02E402CE02B921
:1002800002A40291022D01020304042506070809B5
:100290000241FD1EFBB20108B5041A9B041A890431
:1002A0001AA7042594A80508121013D4012220745B
:1002B000024001A9241A98246A10242C040240A7A1
:1002C0002928A9241A9C246A2024350802400429DC
:1002D00028A9241AA0246A30241C0C02407911DABF
:1002E00003241AA4246A40243510024010294CA982
:1002F000241AA8246A50241C140240B911DA0524D7
:100300001AAC246A60243518024040022E061A40B6
:100310007912401A0804112A013F39D001126A08E3
:10032000012A2801790E7901CBA010017A04015924
:10033000113A41010A11010149203A42010A110210
:1003400001291E022008E980E901091279297C5956
:1003500008091278397C690962FF02120100000065
:020000040800F2
:10C00000DFF80CD018F000FD0048004729C20008F6
:10C01000F07B002011F031BA10B50FF0DEFD0FF00B
:10C02000C5FE0024204601F04DFA641CE4B2062C43
:10C03000F8D310BD08B562208DF8000000208DF8FF
:10C04000010068460FF059FB63208DF800000120C5
:10C050008DF8010068460FF050FB64208DF8000059
:10C0600002208DF8010068460FF047FB65208DF82F
:10C07000000003208DF8010068460FF03EFB08BD6C
:10C0800010B50BF039F804200FF0F1FD0FF0ABFA0A
:10C0900000F092FD10F044FA00F08AFF0AF07BF9FC
:10C0A00000F0D2FC00F0A2FC00F060FC00F034FCD8
:10C0B00000F086FC10F014FC10F04BFD0FF0C2FAFB
:10C0C000FFF7B8FF6E4814F0B4F909F094FF0AF0D6
:10C0D000F1FA08F0C9FF14F09EFB07F0E5FA11F041
:10C0E000B3F900211B2011F0C0FB4FF6FF734FF492
:10C0F0007A72022100200FF041FDBDE810400120BE
:10C1000000F04ABC10B5817821B1012907D011296E
:10C1100005D102E0FFF7B4FF01E003F05BFE002071
:10C1200010BD10B58178808806F08FFB002010BD0F
:10C13000544810B50168491C016000F054FC06F039
:10C14000D6FDBDE810400AF07BBA10B5807804280F
:10C150000DD2DFE800F0020C0905FFF7E9FF06E069
:10C16000002000F0E5FB02E0002000F00BFC0020C6
:10C1700010BD10B50446012000F0E4FB4249002048
:10C180000870E078414C20704148006840780928E8
:10C1900009D00D280AD00DF0FFFD10B120780DF068
:10C1A0000EFE002010BD0DF028FDF6E70DF075FD28
:10C1B000F3E70178C91E09290ED2DFE801F0050B6B
:10C1C0000D0D070D09060800BFE79BE7A9E7D0E7BB
:10C1D00014F092B901F06ABA00207047E9E710B58F
:10C1E00000210A200FF0BDFB002805D0002181703E
:10C1F000BDE810400FF0CCBB10BD08B5AFF2230373
:10C200004FF40062234903200FF0F7FB6A4622A196
:10C2100003200EF020FEFFF7E2FF00226423114608
:10C2200010460EF088FFF8E700B587B00DF08CFEE1
:10C230000FF0C6FF00214FF000600AF0F2FB4FF450
:10C24000A0600AF0B9FB0DF082FF16480DF1040C56
:10C25000032300224FF400718CE80F0006200346F0
:10C260000090114A002111480EF09AFC05AA10A175
:10C2700006200EF0F0FD0EF072F807B0002000BDB1
:10C2800040420F000000002090010020910100209A
:10C29000E8F70208480400204D61696E2D5461736F
:10C2A0006B00000048240020442C0020FBC1000843
:10C2B000526F6F742D5461736B0000007047FEE77E
:10C2C000FEE7FEE7FEE77047704710B50DF050FE41
:10C2D000FE49097819B1FE4A1178491C11700DF018
:10C2E0004BFE0EF04FF8BDE810400DF0C8BFF8B59A
:10C2F000054600EB0510C0EBC511F64800EB8104C4
:10C3000040F22551D4F890010BF0C1F850B1D4F8A7
:10C3100090010BF025F88DF80000E8B20122694683
:10C3200001F008F840F227773946D4F890010BF075
:10C33000AEF840F2266620B3B4F88011B4F882015A
:10C34000814204D100223946D4F8900117E0015D02
:10C35000D4F890010BF000F894F88201401C00F032
:10C360007F00A4F8820194F89C11002926D1B4F82A
:10C370008011814209D101223146D4F890010BF09D
:10C3800064F894F89C01002818D13146D4F8900143
:10C390000BF07DF8002811D0B4F88001B4F88211B8
:10C3A00088420BD1E8B2002100F02FFF3146D4F8CB
:10C3B0009001BDE8F84000220BF047B8F8BD38B551
:10C3C000044600EB0410C0EBC411C24800EB810529
:10C3D00040F22551D5F890010BF059F800280AD009
:10C3E000D5F890010AF0BCFF8DF80000E0B2012200
:10C3F000694600F09FFF38BD10B5B74C40F225519B
:10C4000020460BF044F8002807D020460AF0A8FF89
:10C41000BDE81040C0B200F006BC10BDAD4890F8B9
:10C42000590301284FF0010000D060E7C7E7A94891
:10C4300090F8150501284FF0020000D057E7BEE73D
:10C44000A44890F8D10601284FF0030000D04EE731
:10C45000B5E7A04890F88D0801284FF0040000D0FF
:10C4600045E7ACE79B4890F8490A01284FF00500E2
:10C4700000D03CE7A3E710B5984C022120460CF011
:10C48000D2FF002812D0022120460CF0D8FF20460F
:10C490000CF074FF81B2204601F57A710CF0C1FDF9
:10C4A0000221BDE81040032010F059BF10BD10B5A7
:10C4B00001218C0720460CF0B6FF38B1012120463F
:10C4C0000CF0BDFF0121002010F049FF02212046A1
:10C4D0000CF0A9FF38B1022120460CF0B0FF022178
:10C4E000002010F03CFF042120460CF09CFF38B1E6
:10C4F000042120460CF0A3FF0421002010F02FFFA0
:10C50000082120460CF08FFF002809D00821204682
:10C510000CF095FF0821BDE81040002010F01FBF6F
:10C5200010BD10B56E4C012120460CF07CFF38B1D7
:10C53000012120460CF083FF0121084610F00FFF77
:10C54000022120460CF06FFF38B1022120460CF08A
:10C5500076FF0221012010F002FF042120460CF09A
:10C5600062FF38B1042120460CF069FF042101204C
:10C5700010F0F5FE082120460CF055FF002809D0E8
:10C58000082120460CF05BFF0821BDE81040012087
:10C5900010F0E5BE10BD10B5524C012120460CF044
:10C5A00042FF38B1012120460CF049FF0121022051
:10C5B00010F0D5FE022120460CF035FF38B10221E3
:10C5C00020460CF03CFF0221084610F0C8FE042172
:10C5D00020460CF028FF38B1042120460CF02FFF34
:10C5E0000421022010F0BBFE082120460CF01BFFA6
:10C5F000002809D0082120460CF021FF0821BDE8C1
:10C600001040022010F0ABBE10BD7047704710B54F
:10C6100001200DF0E0F9BDE8104000200EF0B3BF9E
:10C6200010B502200DF0D7F9BDE8104001200EF042
:10C63000AABF10B504200DF0CEF9BDE810400220CD
:10C640000EF0A1BF10B508200DF0C5F9BDE81040EF
:10C6500003200EF098BF10B510200DF0BCF9BDE816
:10C66000104004200EF08FBF10B520200DF0AAF965
:10C6700028B120200DF0AFF905200EF084FF4020F6
:10C680000DF0A0F928B140200DF0A5F906200EF01C
:10C690007AFF80200DF096F928B180200DF09BF9EB
:10C6A00007200EF070FF4FF4807420460DF08AF9D9
:10C6B00028B120460DF08FF908200EF064FF4FF4EA
:10C6C000007420460DF07EF900280DE09D01002049
:10C6D000980100203C34002000100140000001407F
:10C6E000000400400008004007D020460DF073F918
:10C6F000BDE8104009200EF046BF10BD10B54FF444
:10C70000806420460DF05EF928B120460DF063F9F3
:10C710000A200EF038FF4FF4006420460DF052F965
:10C7200028B120460DF057F90B200EF02CFF4FF4E6
:10C73000805420460DF046F928B120460DF04BF903
:10C740000C200EF020FF4FF4005420460DF03AF973
:10C7500028B120460DF03FF90D200EF014FF4FF4E4
:10C76000804420460DF02EF928B120460DF033F913
:10C770000E200EF008FF4FF4004420460DF022F981
:10C78000002807D020460DF026F9BDE810400F2004
:10C790000EF0F9BE10BD00000CB500205449019008
:10C7A00000900A6842F480320A604FF4A0430A689D
:10C7B00002F400320092019A521C0192009A12B9BE
:10C7C000019A9A42F3D10A68920334D5012000906D
:10C7D00047484030026842F0805202604548026893
:10C7E00042F4404202604248083002680260026837
:10C7F00042F400420260026842F4A0520260031F49
:10C800003D4A1A600A6842F080720A600A68920122
:10C81000FCD53A4A40F205711160016821F003012C
:10C820000160016841F0020101600168C1F381010A
:10C830000229FAD10CBD00900CBD314810B5016839
:10C8400041F4700101602A48016841F00101016072
:10C85000274A00210832116002682A4B1A40026000
:10C86000031D294A1A60026822F4802202602048CF
:10C870000C300160FFF790FF21494FF000608039D4
:10C88000086010BD70B51A4C083420681F4A10F0BB
:10C890000C011F4804D01F4D042903D0082903D0E0
:10C8A00002601BE0056019E01149091D0B68C3F324
:10C8B00080560B6803F03F0316B1B5FBF3F201E0BD
:10C8C000B2FBF3F20B680968C3F388135A43C1F350
:10C8D0000141491C4900B2FBF1F1016021680C4A99
:10C8E000C1F30311121D515C0268CA40026070BDA1
:10C8F000003802400070004019544007003C0240DC
:10C9000088ED00E0FFFFF6FE103000240024F40064
:10C910000400002040787D0110B540F201210E2076
:10C920000EF004FD0121BDE810400E200EF02ABDDE
:10C9300008B1002100E001210E200EF023BD0E20E1
:10C940000EF02FBD10B504000CD00120FFF7F0FF52
:10C95000642014FB00F200230121BDE810400320F5
:10C960000FF00CB9BDE810400020E1E710B540F22F
:10C97000012146200EF0DAFC0021BDE810404620DF
:10C980000EF000BD08B1012100E0002146200EF0AC
:10C99000F9BC46200EF005BD10B504000CD00120F6
:10C9A000FFF7F0FF642014FB00F200230121BDE833
:10C9B000104002200FF0E2B8BDE810400020E1E78F
:10C9C00010B540F201210D200EF0B0FC0121BDE8B0
:10C9D00010400D200EF0D6BC08B1012100E000216E
:10C9E0000D200EF0CFBC0D200EF0DBBC10B50121E8
:10C9F00088030AF0E6FA124812490078BDE81040B0
:10CA00000EF094BC0E4910B5085C0EF0AEFC002888
:10CA100000D0012010BD2DE9F04100252C46012752
:10CA20002046FFF7EFFF18B107FA04F62E43B5B220
:10CA3000641C14F0FF04F3D02846BDE8F081000028
:10CA40000E6B0208000200012DE9F047454E464FEB
:10CA5000002440F2012906F10A08305D49460EF033
:10CA600065FC18F80410305D0EF08CFC07EB4410E8
:10CA70000546202117F0D0FA2C70641C0A2CECDB40
:10CA8000BDE8F0870122824012F4FC7F354A105C39
:10CA900001D011B100210EF075BC0121FBE701218D
:10CAA000814011F4FC7F2F4910B5085C06D00EF0D0
:10CAB0005CFC08B1002010BD012010BD0EF055FC3B
:10CAC000C0B210BD2749085C0EF06BBC10B504461F
:10CAD00000780021FFF7D6FFE069002802D0BDE80A
:10CAE0001040004710BD7CB50D461F4901EB4014B6
:10CAF0000121E261FFF7C6FF201DAFF22F03CDE950
:10CB000000402A46002110460FF019F97CBD2DE99E
:10CB1000F04100252C4601272046FFF7C0FF18B141
:10CB200007FA04F62E43B5B2641CE4B20A2CF3D320
:10CB30002846BDE8F08110B5002400212046FFF70B
:10CB4000A1FF641CE4B20A2CF7D310BD10B5002479
:10CB500001212046FFF796FF641CE4B20A2CF7D3AC
:10CB600010BD00000F6B0208482C002070B5074D67
:10CB70000446C1B228460AF0EFFB402128460AF0DD
:10CB80007CFC0028F9D0204670BD00000010014058
:10CB900010B50C46480702D000200DF034F9E0062D
:10CBA00009D565480078C10701D1800703D5BDE8E4
:10CBB000104010F0F3BB10BD10B586B000244FF448
:10CBC000E1300090ADF808400C20ADF80440ADF81D
:10CBD0000A00ADF80640ADF80C40694620460FF05B
:10CBE000DBFF25208DF810000F208DF811008DF847
:10CBF000124001208DF8130004A809F0E2FE012282
:10CC000040F225514D480AF020FC4FF402714C4887
:10CC100017F002FAAFF287004949C1F804020DF09B
:10CC200079F906B010BD464991F80022885491F870
:10CC30000002401C81F80002D1F8042204210020E7
:10CC4000104710B53D4C014620460AF085FB4021B7
:10CC500020460AF012FC0028F9D010BD70B50D4630
:10CC60000646002404E0305DFFF7EBFF641CE4B2ED
:10CC7000AC42F8D332481021D0F80422BDE870400D
:10CC80000020104770B5BF2A11D82E4B1C682270A7
:10CC90001D6809246C701C68A0701868C01C17F00F
:10CCA000A2F929480078BDE870400DF088B870BD41
:10CCB0004030C0B2E6E710B514460A4608B100207D
:10CCC00010BDE1B21046FFF7C9FF204610BD78B98C
:10CCD0001B4890F8003290F80122934208D0825C01
:10CCE0000A7090F80112491C80F801120120704767
:10CCF0000020704710B5044617F0A3F92146C2B2D0
:10CD0000BDE810403020BDE70FB4104900B50968F8
:10CD100091B0884207DC14AA6846139918F022F9EA
:10CD20006846FFF7E7FF11B05DF814FB052801D254
:10CD3000064908607047000097010020001001407C
:10CD4000882D0020ECF70208910100201800002037
:10CD5000D64870470FF0EEBB0FF055BC70B5D44B02
:10CD60001C6822701D6809246C701C68A07018680B
:10CD7000C01C17F038F9CF480078BDE870400DF0BE
:10CD80001EB8CD4902680A6042684A60008908817D
:10CD90000A460A218320DDE7C7490A6802604A681B
:10CDA0004260098901810A20704710F027BD10F008
:10CDB000F6BCC349C148086070470020704770B591
:10CDC0001500BA4C4FF00002A4F103040A6004D02D
:10CDD000012D06D0022D09D10CE0B74922780A3185
:10CDE00002E0B54962782A3117F0FDF8605D401C19
:10CDF000C0B270BDB049A2785231F5E7F8B514461B
:10CE000082781D460646012A05D0022A03D0032A4D
:10CE100001D0FF20F8BD6946E01C521EFFF7CFFF8E
:10CE2000B178A170401C20701021617029780844ED
:10CE3000801C28700020F8BD70B59C4C1500A4F132
:10CE4000030404D0012D0DD0022D17D11AE0C11C0E
:10CE5000994822780A3017F0C6F8974A21780A32A2
:10CE6000802009E0C11C944862782A30064617F0F9
:10CE7000BAF8617832468120FFF76CFF605D401C94
:10CE8000C0B270BDC11C8C48A2785230064617F063
:10CE9000AAF8A17832468220EEE7F8B51D4614467E
:10CEA0000F46064610F0E9FAB278012A05D0022AA8
:10CEB00003D0032A01D0FF20F8BD39463046521E68
:10CEC000FFF7BAFFB2786946E01C521EFFF777FF02
:10CED00000202070D02060702878801C28700020EE
:10CEE000F8BD2DE9FC411546C27987788179CDE9F5
:10CEF00000121C4643790279C178002607F26C7053
:10CF00000FF0B5FC2E70C02068702078801C207057
:10CF1000BDE8FC8170B51D4614460FF01AFE0620D0
:10CF20002070C120607067480179A1F26C71A17016
:10CF30008179E170C1792171017861714178A171C4
:10CF40008078E07128780830287070BD70B515467B
:10CF500042780024D12A11D006DCC02A14D0C12A7C
:10CF600017D0D02A21D104E0F02A1BD0F12A1CD1FD
:10CF700014E00A462946FFF790FF03E00A462946D7
:10CF8000FFF73CFF044610E00A462946FFF7A9FFD9
:10CF90000BE00A462946FFF7BDFF06E00120FFF738
:10CFA000FBFC02E00120FFF7CDFC204670BDCDE781
:10CFB000414810B52221723017F02EF8424A022162
:10CFC00021200FF020FB404C08B1002020803E4A79
:10CFD0000821921C22200FF016FB38B933493A4839
:10CFE00022221431801C17F041F868B12F48364ACC
:10CFF000C01E921C50F8171F44F8021F4068606062
:10D0000008212220FFF7A6FE2B4A0A218320FFF7E2
:10D01000A3FE38B128482DA10A6802604968416022
:10D0200058210172244A10217232B2200FF0EBFA1B
:10D0300020B1214828A1723017F025F81E4A10218E
:10D0400083321446B3200FF0DEFA18B124A1204633
:10D0500017F019F8184A20210A3280200FF0D3FA6D
:10D0600028B11548FF2220210A3016F0CEFF124ABF
:10D0700028212A32144681200FF0C5FA20B1FF2260
:10D080002821204616F0C1FF0B4A202152321446B7
:10D0900082200FF0B8FA002806D02046FF22BDE813
:10D0A0001040202116F0B1BF10BD0000266B020811
:10D0B000ECF7020891010020903300200400FA05EB
:10D0C0000CED00E0786400201E00002057444D4223
:10D0D0002D5858585800000041444D494E0000005A
:10D0E000383630383630000038B50D4600EB0011C8
:10D0F000C1EBC011FE4800EB810494F88C01A842FA
:10D1000009D0D4F8B8013DB1002804D10DF0AFFA30
:10D11000C4F8B80128B938BD18B16A4601210DF02C
:10D1200090FB84F88C5138BDF0B5064600EB061034
:10D13000C0EBC611EE4885B000EB8104D4F8AC1109
:10D14000002960D030468847D4F8900100285AD092
:10D1500094F894018DF810000F208DF8110000252F
:10D160008DF8125001278DF8137004A804F5C874C7
:10D1700009F027FCD4F80E000090A07CDD4931F8BE
:10D180001000ADF80400E07C091D31F81000ADF886
:10D190000600207D891D31F81000ADF808000C2034
:10D1A000ADF80C50ADF80A00207A69460FF0F4FC97
:10D1B0002068012240F22551A4F5C8740AF045F90F
:10D1C000CB48183850F8261051B994F88C1140F813
:10D1D000267084F88C513046C4F8B851FFF784FFAC
:10D1E00094F8A501A4F8880194F89C0100280AD1BC
:10D1F00094F8A80140F201210EF098F894F8A801E3
:10D2000000210EF0BFF805B0F0BD00EB0012C2EB3C
:10D21000C012B74800EB820090F89C21002A07D189
:10D2200090F8A80109B1012100E000210EF0AAB890
:10D23000704710B50024E0B2FFF776FF641C062C9F
:10D24000F9DB10BD2DE9F04115460F4602460628D0
:10D250001ED202EB0210C0EBC211A54800EB810404
:10D2600094F89D0108B1002655E0B4F88211B4F895
:10D270008001814201D1802007E0081A8030C11767
:10D2800000EB516121F07F01401A80B2A84202D226
:10D290000020BDE8F08101211046FFF7B6FFB4F889
:10D2A0008001B4F88211884203D3C0F18002AA42FF
:10D2B0000ADD20442A46394616F095FEB4F880016E
:10D2C0002844A4F8800110E02044394616F08BFE73
:10D2D000B4F88001C0F18000C119281A85B2204637
:10D2E0002A4616F080FEA4F88051012240F22771F0
:10D2F000D4F890010AF0A9F80FE0B95DD4F89001D4
:10D300000AF02AF84021D4F890010AF0B6F8002873
:10D31000F8D0761CB6B2AE42EFD30120B9E700EBED
:10D320000012C2EBC010724A002102EB8000A0F88C
:10D330008A1170472DE9F04107460E4600EB0710B1
:10D34000C0EBC7116A48154600EB8104B4F886C1EA
:10D35000B4F884118C4502D14FF4807209E0ACEB33
:10D36000010202F58072D31702EB136323F0FF036F
:10D37000D21A92B2AA4201D200208AE7802207EB99
:10D380000713C3EBC71302EB8303614503D3C1F556
:10D390008072AA420BDD084418442A46314616F032
:10D3A00022FEB4F884012844A4F8840113E0084460
:10D3B0001844314616F017FEB4F88401C0F58070A9
:10D3C0000644281A85B204F180002A46314616F038
:10D3D0000AFEA4F884513846FFF7A1FFD4F8B4211F
:10D3E00022B1012D02D1317838469047012050E713
:10D3F00000EB0012C2EBC0123D4800EB8200A0F827
:10D400008811A0F88A1170472DE9F047074600EB14
:10D410000710374DC0EBC71005EB80048846B4F801
:10D420008601B4F88411C0F580700844C11700EB80
:10D43000116121F0FF01401A80B21646824200D3EA
:10D44000C6B2E6B30CF094FD8146B4F88601B4F898
:10D450008421802107EB0713C3EBC71301EB830182
:10D46000904204D2284401443246404613E0C0F5BD
:10D470008072B242F6DC28440144404616F0B3FD07
:10D48000B4F88601C0F58070311A0A04120C04D079
:10D4900004F18001404416F0A6FD94F88601304462
:10D4A000C0B2A4F88601B4F88411884204D10020E7
:10D4B000A4F88401A4F8860148460CF05DFD3046CE
:10D4C000BDE8F08770B5054600EB0510C0EBC5114F
:10D4D000074800EB8100B0F88621B0F884118A4239
:10D4E00034D0B0F88A315B1C9BB2A0F88A3103E0DB
:10D4F0003C340020446B0208B0F88841A34225D395
:10D50000C2F580721144CA1701EB126222F0FF02C9
:10D51000891A8EB290F88C1131B1D0F8B801BDE8FB
:10D52000704001210DF0C8B9314604200EF019FAFF
:10D5300004000BD0F2B204F108012846FFF764FFA3
:10D54000A5702046BDE870400EF022BA70BD00EB19
:10D550000011C1EBC0125E4901EB8201B1F88821D4
:10D56000A1F88A21AEE770B500EB001100F11003BD
:10D57000C1EBC011564800EB810404F5CF7215468B
:10D580000A2118460FF03FF820B12846FF220A2151
:10D5900016F03BFDD4F89E01B0F5E13F03D94FF4FE
:10D5A0001650C4F89E0194F8A2110020022901D35C
:10D5B00084F8A20194F8A311032901D384F8A301EC
:10D5C00094F8A411032901D384F8A40194F8A511B7
:10D5D0000A20FA2901D80A2901D284F8A50170BDD0
:10D5E00000EB0011C1EBC010394901EB800090F84D
:10D5F0008C01704700EB0011C1EBC011344800EB07
:10D600008100B0F88611B0F88401814201D1012077
:10D61000704700207047F8B504460E4600EB041032
:10D62000C0EBC4112A48154600EB810292F88C0128
:10D6300000280FD07BB12046FFF7DCFF58B1D2F8AD
:10D64000B8016A4619460DF09BF82A463146204635
:10D65000FFF7DAFEF8BD2A4631462046BDE8F8401D
:10D66000D2E610B5044600EB04101949C0EBC41013
:10D6700001EB8000D0F8900109F092FD2046BDE852
:10D68000104051E500EB0011C1EBC011104800EB58
:10D690008100B0F88211B0F88001081A8030C117FB
:10D6A00000EB516121F07F01401A704710B581787D
:10D6B00006290AD201EB0112C2EBC112044901EBA7
:10D6C0008201D1F8B01101B18847002010BD0000DF
:10D6D0003C340020FE49CA69824201D0C1E90702F8
:10D6E0007047F0B5002200E0521C8356202BFBD07F
:10D6F000092BF9D084562D2C06D000BF4FF001061F
:10D7000005D02B2B03D003E04FF0FF36F8E7521C77
:10D7100000236FF02F040B6007E00D68521C05EB2F
:10D72000850504EB45052B440B608356A3F13005BA
:10D73000092DF2D9835C2E2B00D1521C01230AE063
:10D740000F6803EB830307EB870704EB47073D44B0
:10D750005B00521C0D608556A5F13007092FEFD9EB
:10D7600008684FF47A7270430860934204D2B2FBA7
:10D77000F3F242430A60F0BDB3FBF2F2B0FBF2F009
:10D780000860F0BD10B50178082905D2DFE801F086
:10D79000042337372D9045794078012870D1012135
:10D7A00096E00720FFF76EF901210820FFF76AF9DC
:10D7B00001210BE00420FFF765F900210720FFF7A6
:10D7C00061F900210820FFF75DF90021BDE8104054
:10D7D0000620FFF757B900210520FFF753F9012173
:10D7E0000320FFF74FF9002112E000210520FFF789
:10D7F00049F900210320FFF745F90121DAE701216A
:10D800000520FFF73FF900210320FFF73BF9012135
:10D810000420FFF737F90121C3E74078042815D029
:10D8200005284FF000014FF005001DD0FFF72AF941
:10D8300000210320FFF726F900210420FFF722F939
:10D8400000210720FFF71EF90021AEE70021052087
:10D85000FFF718F901210320FFF714F90021042034
:10D86000FFF710F900219CE7FFF70CF901210320D5
:10D87000FFF708F900210420FFF704F9012112E065
:10D880001BE0407802288AD0032816D10121052008
:10D89000FFF7F8F800210320FFF7F4F80121042036
:10D8A000FFF7F0F800210720FFF7ECF8012189E7E6
:10D8B000407806280BD00728E5D000210520FFF787
:10D8C000E1F800210320FFF7DDF8002172E70021D5
:10D8D0000520FFF7D7F80021BDE77047F8B5102203
:10D8E00000217C480EF014FF7A48203808F0F2FB43
:10D8F000784C203C206A401C02D10FF00DF92062C8
:10D90000E08D4FF6FF750026A84200D1E685606ADB
:10D91000401C02D10FF000F96062A06A401C02D1E5
:10D920000FF0FAF8A062A08DA84200D1A685D4F825
:10D93000F401009068A340F229226CA104200EF0AB
:10D9400081F9F8BD1022002162480EF009BF61483C
:10D9500010B502221021FC300EF0DAFE18B966A1D3
:10D960000020FFF7D1F95B482038B0F81C11A1F571
:10D970007F42FF3A02D10021A0F81C1110BD55488A
:10D9800010B502221021FC300EF0EAFE002804D16E
:10D99000BDE810405CA1FFF7B7B910BD70B54D4DA3
:10D9A000203DB5F81C41FFF7D2FFB5F81C01A0429D
:10D9B00004D0A5F81C41BDE87040E0E770BD10B58B
:10D9C00008281AD2434A203A02EBC00494F8CC004B
:10D9D00051EAC07211D0C20702D000290DD103E074
:10D9E00011B140F0010001E020F0010084F8CC000A
:10D9F00021B10FF091F8C4F8D00010BD20F0020062
:10DA000084F8CC0010BDF0B501250024264603E0C3
:10DA100005EB85056D00761C9642F9DB90FBF5F66B
:10DA200090FBF5F705FB160C3B4E0A2097FBF0FE2A
:10DA300000FB1E7E97FBF0F70EF1300E06F804E0B7
:10DA4000641C002FF2DC27464FF0200E04E000BFDC
:10DA500006F804E0641C7F1C8F42F9DB002105E01E
:10DA6000671A374417F8017C5F54491CA142F7DB61
:10DA70002E21195500210AE095FBF0F59CFBF5F6E7
:10DA800030361E559CFBF5F605FB16CC491C641C74
:10DA90009142F1DB00201855F0BDF0B501250024BE
:10DAA000264603E005EB85056D00761C9642F9DB02
:10DAB00090FBF5F690FBF5F705FB160C164E20369D
:10DAC0005FF00A0097FBF0FE00FB1E7E26E00000E0
:10DAD0002C000020C0420020756C5546436C6561E7
:10DAE0006E54696D65203D20256400006469737083
:10DAF0006C61792E63000000726561642071747737
:10DB0000206661696C000000777269746520717429
:10DB100077206661696C0000A83E002097FBF0F753
:10DB20000EF1300E06F804E0641C002FCADC274614
:10DB30004FF0200E04E000BF06F804E0641C7F1CD8
:10DB40008F42F9DB002105E0671A374417F8017CA2
:10DB50005F54491CA142F7DB00210BE095FBF0F577
:10DB60009CFBF5F630361E559CFBF5F605FB16CCF6
:10DB7000491C641C9142F1DB00201855F0BD0B4696
:10DB8000012202213FE70B46032201213BE710B5AA
:10DB9000044604210A200DF0E4FE002806D01121DD
:10DBA00081708460BDE810400DF0F2BE10BD70B50C
:10DBB0000EF0B2FFFE490A6822F007030B60B1F8CD
:10DBC0008440FC4AB4BB0C6A844214D2041BB4FBEC
:10DBD000F2F5B1F86040AC4203D814B143F0010350
:10DBE0000B60CC8DB1F862309C4204D31BB10B6842
:10DBF00043F001030B608B6A83421BD2C31AB3FB51
:10DC0000F2F4B1F86430A34204D81BB10B6843F0BE
:10DC100002030B60B1F866308C8D03EB4305B4EB67
:10DC2000450F07D303EB43035B0003D00B6843F0BE
:10DC300002030B604B6A83420CD2C01AB0FBF2F2B3
:10DC4000B1F86800904205D8002803D0086840F079
:10DC50000400086070BD814205D9D54A081A52F8FF
:10DC6000C83F184410607047F8B506461D460C467C
:10DC7000104616F0E6F9D049C9690A780095497846
:10DC800002FB006021448BB2A1B280B240F23F128D
:10DC900007F039FEF8BD38B5C74C1546FF2810D13E
:10DCA000FF290ED1104616F0CCF9E1690A784978BF
:10DCB000520850437822A2EB5102C0F1A000A2EB1F
:10DCC0005101BB4A89B280B2538B0093138BE26936
:10DCD00094682A46A04738BD2DE9F843DFF8D08282
:10DCE000B34CA8F1780800252F46A01DD8F87C6019
:10DCF000FFF748FD2079072810D2DFE800F00F0E6B
:10DD000008040F0F0B0000210920FEF7BBFE0125C0
:10DD10002F4603E06079052800D10125B8F87E1070
:10DD2000D4F8C090A8F87C100820A071E0710EF023
:10DD3000F3FE0146C4F8C00015B14846FFF78BFF5B
:10DD400047B12068410505D4D4F8981011B140F4CA
:10DD5000806020602079002503280CD2DFE800F0E5
:10DD6000020B070016F0FF0F05D0658203E00121CA
:10DD70000920FEF787FE208840040FD58DF800505B
:10DD800001208DF801000B208DF8020020798DF81C
:10DD9000030004226946A12008F068FCBDE8F8836E
:10DDA00010B50FF06AFB824808300189C18008383D
:10DDB0000A21017492214174FF21417310BD70B595
:10DDC00002282DED068BADF54A7DB0EE408A7DD15F
:10DDD000774C0326784D94F82501022810D10120B4
:10DDE000686018EE100A16F0EAFB74A34FF4826222
:10DDF0000096CDE90201AFF20C3104200DF022FFB4
:10DE000094F82501032861D118EE100A16F0D7FB0B
:10DE100070A340F215420096CDE90201AFF2343111
:10DE200004200DF00FFF686840B118EE100A16F0DC
:10DE3000C6FB41EC100B6D4808F068FC6B48D0F84D
:10DE40003003002842D069494FF44A7210316846C5
:10DE500016F0C9F865480FC808F09BFCB0EE408A80
:10DE6000F0EE608A8DED008B61A340F21F42AFF2AD
:10DE7000843104200DF0E6FE9FED620B51EC180B8F
:10DE800053EC102B16F0AEFB3AD29FED600B51EC29
:10DE9000180B53EC102B16F085FA41EC190B9FED83
:10DEA0005D1BB0EE480AF0EE680A17F079FA9FEDB4
:10DEB0005B1B51EC100B53EC112B16F073FA41EC79
:10DEC0001A0B9FED581BB0EE480A00E04CE0F0EE54
:10DED000680A17F065FA9FED551B51EC100B53ECD7
:10DEE000112B16F05FFA53EC1A2B16F0B4F953EC21
:10DEF000192B16F051FA41EC100B9FED4E1B11E05F
:10DF0000B0EE480AF0EE680A17F066F89FED4B1B7A
:10DF100051EC100B53EC112B16F044FA41EC100BA2
:10DF20009FED481B51EC100B53EC112B16F093F99D
:10DF300016F088FBC4F8B000B0F1804F03DAB0EE01
:10DF4000000A84ED2C0A94ED100AD4ED2C0A4FF44B
:10DF50004E71B8EE400A254820EE800A84ED2C0A66
:10DF600016F05AF8002068600DF54A7DBDEC068B6E
:10DF700070BDF0B502282DED068B85B0B0EE408A5D
:10DF800015D10B4D0027032695F825010A4C0228D0
:10DF900061D10120C4E9020718EE100A16F00FFB48
:10DFA00006A340F249420096CDE902014EE0CAE0E4
:10DFB000A0420020805101002C0000204F20636807
:10DFC0006C3A2564203A205265733A256620200A6F
:10DFD00000000000462063686C3A2564203A205215
:10DFE00065733A256620200A00000000E83E002004
:10DFF000544F432056616C75653A20256620200AEF
:10E0000000000000000000000000044000000000CC
:10E010000034B1400000000000000040000000009B
:10E0200000E49F40000000000000084000000000E5
:10E0300000B873C00000000000F6A840A4703D0ABC
:10E04000D7233DC00000000000004540AFF26451FE
:10E0500004200DF0F7FD95F82501032873D118EE83
:10E06000100A16F0ACFAAFF2940340F24E4200965A
:10E07000CDE90201AFF28C5104200DF0E3FDA06860
:10E0800070B1E06864280BDA18EE100A16F097FAFF
:10E0900041EC100BFD4808F019FCE068401CE06002
:10E0A000E06864284FD1F94890ED168B8DED008B18
:10E0B000AFF2C40340F25942AFF2D05104200DF048
:10E0C000C1FD1FED300B51EC180B53EC102B16F06B
:10E0D00089FA39D251EC180B1FED340B53EC102B8D
:10E0E00016F060F941EC1A0B1FED361BB0EE480A32
:10E0F000F0EE680A17F054F91FED381B51EC100BC5
:10E1000053EC112B16F04EF941EC190B1FED3B1B94
:10E11000B0EE480AF0EE680A17F042F91FED3D1B19
:10E1200051EC100B53EC112B16F03CF953EC192B5E
:10E1300016F091F853EC1A2B16F02EF941EC100B57
:10E140001FED441B12E032E0B0EE480AF0EE680A20
:10E1500016F042FF1FED471B51EC100B53EC112B37
:10E1600016F020F941EC100B1FED4A1B51EC100B7F
:10E1700053EC112B16F06FF816F064FAC5F8B000E6
:10E18000B0F1804F03DAB0EE000A85ED2C0A95ED70
:10E19000100AD5ED2C0A6021B8EE400ABB4820EEEB
:10E1A000800A85ED2C0A15F037FFA760E76005B0FF
:10E1B000BDEC068BF0BD70B504002DED028B8AB06E
:10E1C0009FEDB30A8DED010A8DED070A04D0012CF5
:10E1D00008D0022C14D10AE008AA07A901A806F069
:10E1E000D9F80DE007A901A806F086F908E007A90B
:10E1F00001A806F01BFA20469DED010AFFF7B9FEC3
:10E200009DED070ADFEDA30AA0494FF47A73803130
:10E2100060EE200A01EB84014A6CFDEEE00AB2FBDD
:10E22000F3F210EE900A4243C1F8A4209DED018A5A
:10E23000DFED990A91ED0E1A68EE201AB8EE411A38
:10E2400021EE811AC1EE201AFDEEE10A10EE900ACD
:10E25000C1F898001CB1012C12D0022C2CD144F230
:10E260005062904203DB44F21870C1F89800D1F874
:10E27000B420824201DAC1F8B4000CB1012C1BD1E8
:10E2800010EE100A16F09BF905460E4618EE100A1D
:10E2900016F095F90246BDF82000CDE90221641C74
:10E2A0007EA30495009440F2AC42AFF2C071CDE978
:10E2B000056004200DF0C6FC0AB0BDEC028B70BDF9
:10E2C00010B50020FEF79EFB28B101210720FFF7C3
:10E2D00076FB002010BD00210720FFF770FB012016
:10E2E00010BD7047694A8032126B1AB1022A01D000
:10E2F00075A2D0E476A2FCE72DE9F041774A88B018
:10E3000005AB07CA614C83E80700803401A9B4F863
:10E310001C01FFF734FC01A815F093FE704F401C60
:10E32000F9690A7852085043C0F1A0054878C0F155
:10E330004A0601A815F085FEFA69117801FB00581C
:10E34000608B0090A8B29568238BB1B201AAA84750
:10E35000FD6905AA68788119081A618B0091216B03
:10E36000238BAC6852F8212081B208F10A0080B2F8
:10E37000A04708B0BDE8F081444810B58030408B1C
:10E3800007F07CFEBDE81040B6E72DE9FF4F87B0EF
:10E39000DFF8F8A007460AF1800A09988B46C10702
:10E3A000BAF81A60149C5046DFF834811D46059473
:10E3B00000EB870967D0A4F11E000690012F3AD127
:10E3C0005046BAF86E10006B21B128B1022805D072
:10E3D00044A104E046A102E046A100E048A101A852
:10E3E00015F051FE01A815F02CFED8F81C200B30BA
:10E3F000117800FB0150B0F5A07F02DB2D1A05F269
:10E400003B15BAF872000096012802D0069881B236
:10E4100000E0A1B2A5F12800D2F808C080B2002324
:10E4200001AAE04701A815F00CFED8F81C100978E5
:10E4300000FB01556D1FBAF86A0050EA070102D0CF
:10E4400001286DD06DE0D9F89800B0F57A7F07DB30
:10E450006421323090FBF1F0012201AB022169E02E
:10E460002AA101A815F00FFE01AA2AA12A4816F038
:10E470005DFDBBF1000F02D02848FFF72BF91FB15B
:10E48000012F66D070E0BDE05FE049E0204200204F
:10E49000000000000000C84200007A4463686C3A43
:10E4A0002564203A205265733A2566202C202020CE
:10E4B00020543A2566202C2020202052743A2564CE
:10E4C000203B2020200A0000CBAECFE4BFD50000C7
:10E4D000456D7074792054616E6B00005C6B0208AE
:10E4E0002C000020BDF8CBAE202020200000000032
:10E4F00020200000466565642020202000000000E8
:10E5000045696E67616E672000000000203C203185
:10E510000000000025730000902F00201C45002003
:10E520005FB1D9F898006421401D90FBF1F001AB78
:10E5300001220121FFF767FA96E7F749DAF8980018
:10E5400001AB91FBF0F00322F3E7A1B2A8B2009671
:10E550000FE0BAF86E1099B1BAF87200012803D032
:10E560000698009681B201E0A1B20096A5F12300C1
:10E5700080B2D8F81C200023D2F808C0E74AE04750
:10E58000E64815F05EFD0146D8F81C000278407898
:10E5900001FB02550319BBF1000F03D0D8F820008E
:10E5A000FFF798F8D8F81C0040781C1ABAF86A00EF
:10E5B000384308D0DAA2DCA1D84816F0B7FC2FB156
:10E5C000012F07D012E0DAA2DBA1F5E7A1B2A8B2D1
:10E5D000009610E0BAF86E1099B1BAF872000128EE
:10E5E00004D0A4F11E0081B2009601E0A1B2009611
:10E5F000A5F1230080B2D8F81C2000239768C74AF1
:10E60000B8471E340998800729D5D9F8A400642199
:10E61000323090FBF1F00122574601AB1146FFF773
:10E62000F2F9386B20B1022802D001AAC3A101E09F
:10E6300001AAC5A1B94816F079FC3879062802D09C
:10E64000BBF1010F13D0A1B2A5F15A000096D8F882
:10E650001C2080B200239768B04AB8471E3409983E
:10E66000000745D5BAF87210012905D040E0A1B2E3
:10E67000A5F18C000096EAE79AED2C0AB54910EE58
:10E68000100A88420CDDB4A1A44816F04FFCA4F196
:10E690001E0081B2283D0096A8B2D8F81C2022E0C6
:10E6A000D8F800004746012827D0DFEDAF0A30EE4A
:10E6B000200A5FED870A01AB002280EE201A0321B9
:10E6C000BDEEC10A10EE100AFFF7E7F901AAA7A1F3
:10E6D000924816F02BFC00BFA4F11E00009681B2F8
:10E6E000283DFA69A8B2002395688C4AA8471E34D1
:10E6F00005980BB0201ABDE8F08FA0A1874816F04E
:10E7000015FCE9E7A1480168CA072BD18A0729D47B
:10E71000490727D490F8CC10890723D490F8D41057
:10E7200089071FD490F8DC1089071BD490F8E410F7
:10E73000890717D490F80411C90713D190F8EC1089
:10E7400089070FD490F8F41089070BD490F8FC10C7
:10E75000890707D4817B052904D0C07B502801D0CC
:10E760000020704701207047F8B5884D07461646CF
:10E77000B5F884000C4600287DD1A87B01287AD00A
:10E78000022878D02879012803D0022801D0032854
:10E7900079D195F8CC00C0070CD00EF0BDF9D5F8B2
:10E7A000D010401AB42805D395F8CC0040F00200F0
:10E7B00085F8CC0095F8D400C0070CD00EF0ACF969
:10E7C000D5F8D810401AB42805D395F8D40040F0F5
:10E7D000020085F8D40095F8DC00C0070CD00EF0DC
:10E7E0009BF9D5F8E010401AB42805D395F8DC0061
:10E7F00040F0020085F8DC0095F8E400C0070CD07A
:10E800000EF08AF9D5F8E810401AB42805D395F827
:10E81000E40040F0020085F8E40095F8EC00C00741
:10E820000CD00EF079F9D5F8F010401A0A2805D36B
:10E8300095F8EC0040F0020085F8EC0095F8F40043
:10E84000C0070CD00EF068F9D5F8F810401A0A2865
:10E8500005D395F8F40040F0020085F8F40095F82F
:10E86000FC00C0070FD00EF057F9D5F80011401A80
:10E870000A2808D301E02CE005E095F8FC0040F000
:10E88000020085F8FC00FFF73DFF2979062903D037
:10E8900048B1B5F8721031B1F0070FD003223B46F2
:10E8A0000021009405E0F00708D003223B46012137
:10E8B00000940020FFF769FD04441E34B00709D41A
:10E8C000700706D53B460822002102200094FFF77E
:10E8D0005CFDF8BD01223B46002110460094FFF785
:10E8E00054FD0444ECE770B5284C14263546608B83
:10E8F00007F0C4FB206B70B1022851D024A2294636
:10E900003046FFF7C8F9FFF7F7FCBDE87040052275
:10E9100050215A2028E741E040420F00902F00206C
:10E92000A6CC532F636D000025732020202000000B
:10E930004DA6B82E636D000020257300CBAECEC26D
:10E940002020202573A1E60054656D702E2020251F
:10E9500073A1E60000504348544F432020203E322C
:10E9600030302070706200000000FA43544F4320A2
:10E97000202020257320707062000000544F432037
:10E980002020202D2D20707062000000A042002069
:10E99000B6A8C1BFC8A1CBAE00000000EFA2AEE791
:10E9A000F4A2ACE710B5F74C608B07F067FB206B67
:10E9B00060B102280CD0F4A214210846FFF76BF9CD
:10E9C00005225021BDE810405A20CDE6F0A2F3E721
:10E9D000EAA2F1E710B5EB4C608B07F04FFB206B20
:10E9E00060B102280CD0ECA20A210846FFF753F9C7
:10E9F00005225021BDE810405A20B5E6E8A2F3E711
:10EA0000EBA2F1E710B5DF4C608B07F037FB206B12
:10EA100060B102280CD0E0A20A210846FFF73BF9BA
:10EA200005225021BDE810405A209DE6DCA2F3E704
:10EA3000DFA2F1E710B5D34C608B07F01FFB206B12
:10EA400060B102280CD0D4A214210846FFF723F9A4
:10EA500005225021BDE810405A2085E6D0A2F3E7F8
:10EA6000D3A2F1E710B5C74C608B07F007FB206B12
:10EA700040B1022808D0D2A21421BDE810400846B7
:10EA8000FFF709B9D0A2F7E7D1A2F5E71CB5D24943
:10EA9000D1E90001CDE900010EF0EFFCB948018891
:10EAA000C1F382113DF811104183817B0A290BD2F9
:10EAB000DFE801F0050A0A0B191C0A0A0A0EC07BDE
:10EAC000002801D1FFF7CEFF1CBDFFF7B3FF1CBD2F
:10EAD000C07B802804D08128F9D1FFF77BFF1CBDC3
:10EAE000FFF790FF1CBDFFF75DFF1CBDC07B5028EA
:10EAF00004D05228F9D1FFF7F6FE1CBDFFF73CFC0D
:10EB00001CBD2DE9F04F9F4C0E46814654F8C52B95
:10EB100089B002F00100C2F380010844C2F3400151
:10EB20000144E079DFF8B4A28346C0F34000014419
:10EB3000E07B4FF000088646C0F340000144E07DD2
:10EB40000790C0F340000144E07F0690C0F340000E
:10EB5000084494F83F10C2F3821701F00103034404
:10EB600094F827000590C0F34000034494F82F0068
:10EB70000490C0F34000034494F837000090C0F3C1
:10EB800040001844C2F34023184410F0FF0F7D48A2
:10EB9000A4F1C504807B7DD005287CD001287BD0E2
:10EBA000022879D0072877D0082875D022F4E0729F
:10EBB000002022605FEAC27C4FF0010301AD06D065
:10EBC0008DF80400012022F4E072403222605FEAF6
:10EBD000827C05D522F4E0722B544032401C226026
:10EBE000530706D5022322F4E0722B544032401C16
:10EBF0002260C90707D003212954216821F4E0715C
:10EC00008031401C21605FEA8B7107D504212954B3
:10EC1000216821F4E0718031401C21605FEA8E712F
:10EC200007D505212954216821F4E0718031401C69
:10EC300021600799890707D506212954216821F405
:10EC4000E0718031401C21600699890707D50721B2
:10EC50002954216821F4E0718031401C216005991C
:10EC6000890708D5082129542168401C21F4E07146
:10EC70008031C0B221600499890708D5092129543F
:10EC80002168401C21F4E0718031C0B221600099FC
:10EC9000890702E024E04DE04AE008D50A21295422
:10ECA0002168401C21F4E0718031C0B22160227BD8
:10ECB000B2FBF0F300FB132020732088C0F3821016
:10ECC000B84201D0FFF7E2FE207B285C0B282FD250
:10ECD000DFE800F0343C9EABB4BEC8D0DAE2EA0014
:10ECE000617BFF2901D0FF216173D10601D4104659
:10ECF00015E001280FD002280DD0608B0090DAF8C3
:10ED00001C00B1B240F23F124078304483B21FFA87
:10ED100089F006F0F8FD206820F01000206020F453
:10ED2000E0702060C0F38210B84201D0FFF7AEFE61
:10ED300009B0E0E4E07B5028FAD037E7206B18B147
:10ED4000022801D026A168E029A166E0206B18B155
:10ED500002285BD029A160E058E00000566F6C7576
:10ED60006D65747269632044697370656E73696E52
:10ED700067000000566F6C756D656E204175736796
:10ED800061626500A0420020B2FA20CBAE00000014
:10ED900050726F6475637400D1AD20BBB700000082
:10EDA000526563697263756C6174696F6E0000000F
:10EDB00052657A69726B756C6174696F6E000000E0
:10EDC000BECD20D0F70000005265616479000000DC
:10EDD0004265726569740000546B02082C000020C3
:10EDE000C7EBB8FCBBBBB4BFBBAFD6F9000000009B
:10EDF000455843482E55205041434B00C7EBB8FCC3
:10EE0000BBBBD7CFCDE2B5C600000000D4A104E063
:10EE1000206B40B1022806D0D5A1D94815F033F9AE
:10EE20004FF001084AE0D7A1F7E7206B20B1022894
:10EE300002D0AFF66C113EE0D7A13CE0206B18B1D8
:10EE4000022803D0D7A136E0D9A134E0DCA132E01A
:10EE5000206B18B1022803D0DDA12CE0E0A12AE04C
:10EE6000E4A128E0206B18B1022801D0E7A122E03C
:10EE7000E9A120E0206B18B1022803D0E9A11AE033
:10EE8000EDA118E0F1A116E0206B18B1022801D025
:10EE9000F3A110E0F6A10EE0206B18B1022801D01A
:10EEA000F7A108E0FAA106E0206B18B1022801D012
:10EEB000FBA100E0FEA1B24815F0E5F8207B617BE4
:10EEC0002A5C4FF6E0709142216823D18A0609D569
:10EED000638BA6A231464846FEF7C6FE206820F0A6
:10EEE000200036E041F020012160B8F1000F00D190
:10EEF000608B0090DAF81C20238BB1B295681FFA62
:10EF000089F09F4AA847638B9D4A31464846FEF7E1
:10EF1000ABFE0DE741F020012160B8F1000F00D1F8
:10EF2000608B0090DAF81C20238BB1B297681FFA2F
:10EF300089F0934AB847638B914A31464846FEF7B9
:10EF400093FE207B295C6173401C2073206840F095
:10EF500010002060ECE6DB484178DB4842789142C3
:10EF600008D0D849026858398A654268CA6500895C
:10EF7000A1F86000704710B50346FFF7ECFF002BC7
:10EF800006D005225021BDE810405A20FFF7ECBB07
:10EF900010BD10B5FEF704FFFEF79EFEBDE8104061
:10EFA00060E5C8484EF660222030416B5143C0F8FE
:10EFB000F811B0F87420012A03D0C449C0F8F81140
:10EFC0007047C34A11444908F8E7BE4910B52031DB
:10EFD0000020087448748871C871C1F81402C1F81F
:10EFE0001C02BC494861FFF7D4FFBDE81040D8E7D8
:10EFF0001FB5B44C2034608B07F040F8206B18B17B
:10F00000022803D0B4A102E0B5A100E0B7A1684690
:10F0100015F039F8684615F014F8AE49401CC96976
:10F020000A78497852085043C0F1A000C1F172013A
:10F030006A46FEF730FE1FBD2DE9F843A14DDFF80B
:10F0400040812035B5F87E00D5F81812421A286B99
:10F0500058B3022829D0A8A1404615F067FF4046C2
:10F0600014F0EFFF9B4F401CFA6992F800C05478EF
:10F070004FEA5C014843C0F1A006688B0090ACEBFE
:10F080008C007E343044D2F808C02B8B214680B2ED
:10F090009CA2E047688B0090FA6921462B8B94680C
:10F0A000B0B24246A047BDE8F88397A1D4E710B5B7
:10F0B000FEF776FEFEF710FEBDE8104098E78148A7
:10F0C0000021203002220174427481710122C27138
:10F0D000C0F81812C0F814127E488261E7E710B534
:10F0E000784C2034207903280ED1D4E9490181429B
:10F0F0000BD154F8C40FB4F8581001EBC10202EB65
:10F10000011100EB8100206010BD0DF005FDD4F869
:10F11000C0108142F8D2401A34F86C1F00EB800016
:10F12000400041433C20B1FBF0F0A16D0844A065D4
:10F1300010BD10B5634C2034207902280ED10DF09B
:10F14000EBFCD4F8C010814208D2401A34F86C1F8E
:10F1500000EB8000400041433C20DBE0E2E00000A7
:10F16000455843482E5556204C414D500000000054
:10F17000C7EBB8FCBBBBB9FDC2CBD6F900000000A1
:10F18000902F0020455843482E46494E414C20467A
:10F19000494C544552000000454D505459205441AB
:10F1A0004E4B0000B2FACBAE3CC9E8B6A8D6B500CB
:10F1B00050524F44554354203C20532E502E0000B3
:10F1C00041555347414245203C20532E502E0000CC
:10F1D000BDF8CBAE203E20C9E8B6A8D6B5000000E9
:10F1E000464545442050524F44554354203E2053F9
:10F1F0002E502E0045696E67616E6720415553475A
:10F20000414245203E20532E502E0000CEC2B6C8AB
:10F210003EC9E8B6A8D6B50054454D50203E20530F
:10F220002E502E00BDF8CBAE20CEC2B6C83EC9E8E7
:10F23000B6A8D6B500000000464545442054454DCB
:10F2400050203E20532E502E0000000045696E676E
:10F25000616E672054454D50203E20532E502E00A5
:10F26000C7EBBCECB2E9D7CFCDE2B5C600000000D9
:10F27000434845434B205556204C414D500000001B
:10F28000C7EBBCECB2E9B4BFBBAFD6F900000000DD
:10F29000434845434B2055205041434B000000005C
:10F2A000C7EBBCECB2E9544F43B5E7BCAB00000080
:10F2B000434845434B20544F432053454E534F52F0
:10F2C00000000000804200207864002020BF02007F
:10F2D000C081FAFF2C0000205546B3E5CFB40000F2
:10F2E000466C7573682055460000000053707565C4
:10F2F0006C756E67205546002020256420C3EB20E6
:10F300002000000020202000202025642053656379
:10F3100020200000B1FBF0F0A16D0844A0650DF0C5
:10F32000FBFB606510BD10B5FB480CF0D8FCBDE8D8
:10F330001040D4E610B5F8480CF0D1FCBDE8104000
:10F34000F7E6F649096804E0814201D101207047DF
:10F3500089680029F8D100207047F04B10B50246AB
:10F36000186868B11046FFF7ECFF002809D119684A
:10F3700010680C68844205DD201A086018689060E7
:10F380001A6010BD0029FCD010680B68C31A136006
:10F39000886830B104689C4207DD036814681B1B51
:10F3A0000360886890608A6010BD0146ECE7DC4924
:10F3B000042091F82022042A08D21046D74A121DB0
:10F3C000125C042A00D3042281F820227047D4481A
:10F3D00010B50079062805D0CF48BDE81040783038
:10F3E0000CF07DBCFFF7E3FF04280ED2CD4900EB03
:10F3F0004002642341F8223001EB820102230B71A9
:10F400004871BDE810400846A7E710BDAFF24100C3
:10F41000FEF7BDBBD9E5AFF20300FEF7B8BB1CB5E4
:10F42000FEF7BEFCFEF758FCFFF704FBBA49BC48E8
:10F430001831CDE90001D0F8F801AFF225030246FA
:10F4400000210CF07CFC1CBDB54803210174002197
:10F45000417401228271C171C0F81C12DFE700F013
:10F4600004B8AFF20500FEF792BB7CB5AB48243878
:10F470004069002840D0AA4C04F5C87594F82501CD
:10F4800094F82411884241D2411C84F8251120446B
:10F49000092190F820210620802A21740FD0812193
:10F4A0006174A0710520E071FEF77AFCFEF714FC90
:10F4B000FFF790FACDE90045B4F87A0012E0802118
:10F4C0006174A0710420E071FEF76AFCFEF704FC91
:10F4D000FFF798FA94F8250103280ED0CDE90045EE
:10F4E000B4F878004FF47A714843AFF289030022F0
:10F4F0004FEA02010CF023FC7CBDAFF2990300221D
:10F50000114644F62060CDE90045F3E728460CF0AB
:10F51000E6FB814878300CF0E2FBBDE87C4093E7E5
:10F520001CB57F4C0021481EC4E94A107B480123CA
:10F5300024388022436104F5907084F825110A5420
:10F540008121195402210A54032084F82401FFF771
:10F550008CFF04F5D470CDE9004034F8780F618851
:10F5600008444FF47A71801E4843AFF25F1364225F
:10F5700001210CF0E4FB1CBDD2E7AFF20300FEF763
:10F5800006BB1CB5FEF70CFCFEF7A6FBFFF752FA14
:10F59000614963481831CDE90001D0F8F801AFF2B4
:10F5A0002503024600210CF0CAFB1CBD5C48032168
:10F5B00001740021417401228271C171C0F81C12D2
:10F5C000DFE75748B0F87400012800D03CE7EDE7CA
:10F5D00010B5FEF775FE524890F80411C9070CD01B
:10F5E0000079022806D0032807D1FFF79CFEBDE86A
:10F5F0001040E6E7FFF79EFEF9E710BD10B5484C56
:10F60000206820F4905020600DF086FAC4F8F401D0
:10F610002046BDE8104006F090BD2DE9F843404D6E
:10F62000DFF8048128462A6BB0F820013C2192B310
:10F63000022A31D0B0FBF1F201FB1203B0FBF1F270
:10F640003AA1404615F072FC404614F0FAFC334FE4
:10F65000401C243FFA6992F800C054784FEA5C01DC
:10F660004843C0F1A006688B0090ACEB8C002B8B5C
:10F670007E343044D2F808C0214680B2AFF27C32EA
:10F68000E047688B0090FA6921462B8B9468B0B2F2
:10F690004246A04707E5FFE7B0FBF1F201FB12038A
:10F6A000B0FBF1F226A1CCE72DE9F8431C4C608BAE
:10F6B00006F0E4FC194DE07B243D61285CD0622813
:10F6C0007ED1206B00287CD00228FCD021A63046B9
:10F6D00014F0B7FCEA69401CA84611784908484371
:10F6E000C0F1A0075078C0F17205608B0090D2F88D
:10F6F00008C0238BA9B2B8B23246E0471AA200BFB5
:10F70000D8F81C606D1D70782844618B0091238BA4
:10F7100081B2B8B2B46886E0D04300205000002027
:10F72000A04200202C450020902F0020202025649E
:10F7300020B7D620256420C3EB2020200000000045
:10F7400020202564204D696E2025642053656320A8
:10F7500020000000496E736572742044756F50611B
:10F76000636B202000000000C8BBBAF3B0B4205384
:10F77000455420BCFC000000206B18B3022821D0A7
:10F78000FEA6304614F05DFCEA69401CA8461178DC
:10F7900049084843C0F1A0075078C0F17205608B5A
:10F7A0000090D2F808C0238BA9B2B8B23246E04725
:10F7B000D8F81C606D1D70782844AFF25402A4E79D
:10F7C00032E032E0F1A0804614F03BFCEA69401CD4
:10F7D000117849084843C0F1A0065078C0F172077B
:10F7E000608B0090D2F808C0238BB9B2B0B2424609
:10F7F000E047D5F81CC07F1DE9A29CF80100074432
:10F80000608B0090DCF808C0238BB9B2B0B2E0473F
:10F81000ED69618B7F1D687800913844238B81B23C
:10F82000AC68E4A2B0B2A0473DE4E7A6304614F0CD
:10F8300008FCEA69401CA846117849084843C0F111
:10F84000A0075078C0F17205608B0090D2F808C014
:10F85000238BA9B2B8B23246E047D6A250E7DF49BF
:10F8600010B58A7B0A744874087988710020C871C1
:10F87000FEF732FAFEF794FABDE8104014E72DE9DE
:10F88000F047D64C04F5BC7021798146052903D098
:10F89000BDE8F0470CF023BAB4F8200110B1401EC7
:10F8A000A4F82001B4F8220110B1401EA4F82201EE
:10F8B000FFF7B3FE94F82401002701264FF4967851
:10F8C00028B10225012821D0022845D1AAE0B4F8A8
:10F8D00022010028F9D100210520FDF7D3F80121EC
:10F8E0000320FDF7CFF800210420FDF7CBF800211D
:10F8F0000720FDF7C7F801210820FDF7C3F8002114
:10F900000620FDF7BFF884F8246186E0B4F82201F0
:10F910000028DAD194F8250101281ED0022839D018
:10F9200001210520FDF7AEF800210320FDF7AAF81C
:10F9300001210420FDF7A6F800210720FDF7A2F819
:10F9400001210820FDF79EF800210620FDF79AF816
:10F9500084F82561A4F82251E8E000210520FDF794
:10F9600091F800210320FDF78DF800210420FDF718
:10F9700089F800210720FDF785F800210820FDF710
:10F9800081F800210620FDF77DF884F825514FF419
:10F990006170C7E094F82601401CC0B284F82601CB
:10F9A000052820D200210520FDF76CF80121032055
:10F9B000FDF768F800210420FDF764F80021072016
:10F9C000FDF760F801210820FDF75CF80021062012
:10F9D000FDF758F8A4F8228184F8257180A104204D
:10F9E000FDF792F9A2E001210520FDF74BF8002177
:10F9F0000320FDF747F800210420FDF743F800211C
:10FA00000720FDF73FF801210820FDF73BF8012111
:10FA10000620FDF737F884F8245184F82571A4F8FE
:10FA2000228183E0B4F8220100287FD194F82501D7
:10FA300030B1012820D002283AD0032876D154E0F2
:10FA400001210520FDF71EF801210320FDF71AF81A
:10FA500000210420FDF716F800210720FDF712F819
:10FA600001210820FDF70EF801210620FDF70AF814
:10FA700084F82561F02055E001210520FDF702F80A
:10FA800001210320FCF7FEFF01210420FCF7FAFF0F
:10FA900000210720FCF7F6FF01210820FCF7F2FF08
:10FAA00001210620FCF7EEFF84F825513C2039E0C7
:10FAB00000210520FCF7E6FF00210320FCF7E2FF10
:10FAC00000210420FCF7DEFF00210720FCF7DAFF0D
:10FAD00001210820FCF7D6FF01210620FCF7D2FF08
:10FAE000032084F825011E201CE000210520FCF7DE
:10FAF000C9FF00210320FCF7C5FF00210420FCF70B
:10FB0000C1FF00210720FCF7BDFF00210820FCF702
:10FB1000B9FF00210620FCF7B5FF042084F8250179
:10FB20004FF6FF7000E001E0A4F82201B4F82001D4
:10FB3000002808D148460CF0D2F8FFF75FFDBDE879
:10FB4000F04762208BE6BDE8F087AFF2CD20FEF7EC
:10FB50001EB8F8B5214D688B06F090FA286B58B1A5
:10FB6000022863D025A4204614F06BFA411C2548D6
:10FB7000C0690278520847E056E00000BCD3C8EBE9
:10FB8000C7E5BDE0BCC1202020000000496E7365C0
:10FB900072742020202020202020202020200000FF
:10FBA00063617274726964676520616E6420706954
:10FBB0006C6C00007468656E2070726573732053FE
:10FBC0004554206B65790000496E7365727420445A
:10FBD000756F5061636B20202C000000A042002054
:10FBE000444953504C41595F55465F5355425F530A
:10FBF000544154455F323A3000000000554620C75A
:10FC0000E5CFB4002C0000205143C1F1A00241789F
:10FC10006B8B00932B8B95B2C1F17201866889B210
:10FC200022462846B047F8BDF4A49CE7F5A49AE71D
:10FC3000F74810B5017900F5B070052903D0BDE88B
:10FC400010400CF04CB80CF04AF8BDE810406120B0
:10FC500005E6AFF22300FDF79ABFF8B5EC4D688BCF
:10FC600006F00CFA286BD0B102281AD0E9A420467D
:10FC700014F0E7F9411CEA486B8BC069027852081E
:10FC80005143C1F1A002417800932B8B95B2C1F191
:10FC90007201866889B222462846B047F8BDE1A4C1
:10FCA000E5E7E4A4E3E71CB5FEF77AF8FEF714F8FD
:10FCB000FFF7D3FFE348D649AFF26903CDE900105F
:10FCC00047F23050024600210CF039F81CBDD048F4
:10FCD0000721017460214174052181710621C171E0
:10FCE000002180F8241180F8251180F82611A0F851
:10FCF0002011A0F82211D6E71CB5FEF751F8FDF748
:10FD0000EBFFFFF726FFFFF788FCCE48C04918300D
:10FD1000AFF2C913CDE900104FF47A700246012109
:10FD20000CF00DF81CBDBA48072200210274417482
:10FD300005238371C27180F8241180F8251180F8A1
:10FD4000261141F6A621A0F82011B421A0F8221115
:10FD5000D2E710B50CF0E0FEAD49D1F8F4218242B3
:10FD60000DD80B689C050AD4801AB74AB0FBF2F094
:10FD7000B1F87C20824202D843F40070086010BDC4
:10FD8000FEF7BABA10B5FEF70BF8FEF7F5FABDE8C4
:10FD90001040FFF706B99E480521017450214174B7
:10FDA0009F4900204861EDE770B5994C4FF47840C9
:10FDB000658B608306F062F9FF210846FEF792FA30
:10FDC000658370BD10B5FDF7EBFFFDF785FFBDE85E
:10FDD0001040E9E78068002800D000477047994844
:10FDE00010B530380BF07BFF89480179032907D023
:10FDF000783896A1C26FBDE810400420FCF784BF9C
:10FE0000D0F82411C0F82811FFF769F9BDE81040B7
:10FE1000FFF7D7BBAFF23900FDF7B9BE1CB5FDF750
:10FE2000BFFFFDF759FFFEF75EFD79498C4AB1F837
:10FE30001C015043B1F86C2090FBF2F00022C1E9A4
:10FE4000490201F59872AFF23303CDE90012024680
:10FE500000210BF074FF1CBD6D4810B5007902281D
:10FE60000CD0784830380BF03AFF694877A17838E1
:10FE7000C26FBDE810400420FCF746BFBDE810404B
:10FE8000FFF757B9AFF22F00FDF781BE1CB5FDF7A4
:10FE900087FFFDF721FFFEF785FD6A485C49303892
:10FEA000AFF21F03CDE900104EF66020024601219B
:10FEB0000BF045FF1CBD10B5FEF702FA544A584B33
:10FEC000002160B104201074517402209071D1712E
:10FED0005961FFF7DBFFBDE81040FFF762B811740E
:10FEE000012050749171D171C3E90510FFF76AFFC9
:10FEF000F1E710B5464C608B06F0C0F8206B40B1BE
:10FF0000022808D057A2FF21BDE810400846FDF79F
:10FF1000C2BE56A2F7E759A2F5E710B5FDF740FFBC
:10FF2000FDF7DAFEBDE81040E3E72DE9F843384D70
:10FF3000DFF858812946286BB1F8202160B30228E8
:10FF40002AD0AFF64C41404614F0F0FF404614F082
:10FF500078F8334F401CFA6992F800C054784FEAA1
:10FF60005C014843C0F1A006688B0090ACEB8C00AC
:10FF70002B8B7E343044D2F808C0214680B2AFF6D5
:10FF80007C42E047688B0090FA6921462B8B94688D
:10FF9000B0B24246A04747E4AFF69441D3E7F8B584
:10FFA0001B4C608B06F06AF8E07B9028206B1CD01D
:10FFB00010B3022820D036A5284614F042F8411C80
:10FFC0001748C069027852085143C1F1A002417834
:10FFD0007823A3EB5101638B0093238B94B2866843
:10FFE00089B22A462046B047F8BD18B1022801D090
:10FFF0002AA5E1E72CA5DFE760E00000466C7573F9
:020000040801F1
:1000000068000000537075656C756E670000000035
:10001000A0420020554620D7BCB1B8D6D000000081
:100020002C000020554620507265706172652E2E9E
:100030002E000000554620426572656974656E2E7B
:100040002E2E00000044002080510100696E636F75
:1000500072726563742073746174653A202564005C
:10006000C0270900D0B920D1B900000050726573D3
:10007000737572652052656C6965660044727563BC
:100080006B2061626C617373656E0000902F0020BD
:10009000C5C5C6F8BDD7B6CE20320000C5C5C6F866
:1000A000BDD7B6CE20310000446567617373696EB9
:1000B000672053746167652031000000FAA57BE773
:1000C000FE48FDF764BD1CB5FDF76AFEFDF704FEB2
:1000D000FFF765FFFA48A0F5E071AFF21B03CDE929
:1000E00000104FF47A70024601210BF028FE1CBD6F
:1000F000F44810B5082101749121417407218171E0
:100100000321C1710A21A0F82011FFF7DCFFBDE82F
:1001100010400AE770B5EB4CE94D2079072804D070
:100120002846BDE870400BF0DABDB4F8201111B1DB
:10013000491EA4F82011FFF7F8FEB4F820010028AA
:100140000CD16079032802D0BDE87040D0E7284682
:100150000BF0C5FDBDE87040FEF737BF70BDD94854
:1001600010B5082101749021417407218171022189
:10017000C171B421A0F82011FFF7A5FFBDE8104020
:10018000D3E6F8B51C4617460D4606460CF0C4FCEF
:100190000146CC48026A891ACB4AB1FBF2F1B0F8A9
:1001A0006020521A016B81B102290ED0C38DC7A104
:1001B000CB4814F0BBFECB4A0094A9B2D269B0B2CE
:1001C0003B469468C64AA047F8BDC38DC6A1EFE779
:1001D000F8B51C4617460D4606460CF09DFC014638
:1001E000B848426A891AB84AB1FBF2F1B0F86820FF
:1001F000006B521A78B102280DD0C1A1B84814F092
:1002000095FEB84A0094A9B2D269B0B23B46946850
:10021000B34AA047F8BDBEA1F0E7F8B51C461746A3
:100220000D4606460CF078FC0146A648826A891AFB
:10023000A54AB1FBF2F1B0F86420521A016B062313
:1002400091B1022910D0808DB6A1B0FBF3F3A44880
:1002500014F06CFEA34A0094A9B2D269B0B23B4636
:1002600094689F4AA047F8BD808DB4A1B0FBF3F31A
:10027000EDE72DE9F041934C86B01D4690460E46C1
:100280000746B4F86C0001AB02220121FDF7BBFB6D
:10029000206B90B1022810D001AAADA1904814F0B3
:1002A00045FE904A0095B1B2D269B8B2434694680F
:1002B0008B4AA04706B0BDE8F08101AAA9A1EDE7ED
:1002C000F8B506467F480D461C46016BB0F86A003B
:1002D000174621B1022902D040B1A64A08E008B170
:1002E000A44A01E0A34A1032A3A102E0A14A1032BD
:1002F000A4A17B4814F01AFE7A4A0094A9B2D269EC
:10030000B0B23B469468764AA047F8BD2DE9F84361
:1003100006466C480D461C46016BB0F870009046CE
:1003200049B1022907D0B8B1012817D0022817D047
:1003300003281CD116E030B1012806D0022807D0CE
:10034000032814D106E092A200E092A293A10BE050
:1003500097A2FBE797A2F9E799A204E099A202E02D
:1003600093A200E099A29CA15D4814F0DFFD5D4FCF
:100370000094A9B2FA69B0B24346D2F808C099A273
:10038000E0470094FA69A9B2B0B294684346544A6F
:10039000A04700E62DE9F84F1F46814612F807B046
:1003A0000020DDF82CA0DFF83C81D0551446CDF8B4
:1003B00000A0D8F81C200D4689B296681FFA89F073
:1003C00022460A9BB047204613F03BFED8F81C207B
:1003D000A9B2137800FB03960A980090D2F804C0E3
:1003E000B0B253465A46E047D8F81C103C441FFAB6
:1003F00085FC0878CDF800A006448F68621CB0B276
:1004000061460A9BB8472F48621C2946838B01B07E
:100410003046BDE8F04FFDF727BC2DE9FC5F1D46D7
:10042000814612F805A00020DDF838B02D4E505559
:100430001446CDF800B0F269884689B297681FFA71
:1004400089F022460D9BB847204613F0FAFDF1696A
:100450005B460A7804F805A000FB02990C9804EBAF
:10046000050A2F180020E15D0191E0550D980090DC
:10047000F2691FFA88F11FFA89F095685246A84779
:10048000504613F0DEFDF1693A19097800FB01903E
:100490000199E155CDF800B0F3691FFA88F180B2F7
:1004A0009C680D9BA047A9E0446567617373696E02
:1004B0006720537461676520320000001501010850
:1004C00060440020A042002080510100B4BFBBAFB7
:1004D000D6F93A256420CCEC202564C9FD20200003
:1004E000902F00202C0000205041434B3A256420DF
:1004F000444159532025644C202020200000000056
:10050000B9FDC2CBC6F73A256420CCEC20202000F0
:1005100046494C5445523A256420444159532020C1
:1005200020000000D7CFCDE2B5C63A256420CCEC40
:1005300020256420D0A1CAB12020000055563A25BC
:100540006420444159532025644872202020000033
:10055000C1F7CBD93A257320C9FD2FB7D6D6D32002
:1005600020000000464C4F573A2573204C2F6D69F0
:100570006E20200020E90008554E49543A2573208A
:1005800020202000B5A5CEBB3A25732020202000D6
:100590004F464600464545440000000053454E5333
:1005A0004F52204346473A25732020202000000068
:1005B000544F4300464545442F544F43000000002C
:1005C000B9D80000BDF8CBAE00000000BDF8CBAE3E
:1005D0002F544F4300000000B5E7BCAB3A25732011
:1005E000202020002020202020202020202020202B
:1005F000202020202020202020202000BDE8FC9F5B
:100600002DE9F0431C46F9A391460E4607460FCB51
:1006100089B004ADDFF8E48385E80F00D8F8300036
:10062000A8B3022834D0F6A1F74813F02CFDF74DFB
:100630000094B1B2EA69B8B24B46D2F808C0F24AA7
:10064000E047F14813F0FDFCE969097800FB017708
:10065000EA481638C17990F802C0437802788DE8EC
:100660000E1083798288EAA1E74814F05FFC98F8BD
:100670000A000E280ED2CDE9009404A9E24A0B5CD0
:1006800031463846FFF786FE09B0BDE8F083FFE744
:10069000E7A1C9E70094EA69B1B2B8B294684B46E1
:1006A000D94AA047F0E7F8B50646D4481C46174695
:1006B000006B0D4618B1022803D0DFA102E0E1A1D2
:1006C00000E0E5A1D04813F0DEFCD04A0094A9B2C6
:1006D000D269B0B23B469468CB4AA047F8BDF8B5A2
:1006E0000646C6481C461746006B0D4618B1022840
:1006F00003D0DEA102E0DFA100E0E4A1C24813F0D4
:10070000C2FCC24A0094A9B2D269B0B23B46946816
:10071000BD4AA047F8BDF8B50646B8481C4617467E
:10072000006B0D4618B1022803D0DFA102E0E0A162
:1007300000E0E2A1B44813F0A6FCB44A0094A9B2C8
:10074000D269B0B23B469468AF4AA047F8BD2DE9E4
:10075000FF4FAA4C804685B0206B1E460D4618B14F
:10076000022803D0D8A102E0DAA100E0DDA1A6486A
:1007700013F089FCDFF894B20096E17ADBF81C30C4
:10078000DFF884A21FFA88F001EB0A029F68A9B281
:10079000D946079BB847E17A01EB0A0013F051FCF8
:1007A000D9F81C104FF064090A7802FB0087B4F8EE
:1007B0006A000028D4F89C0046D0CE4901AB91FBDA
:1007C000F0F003225FF00101FDF71DF9CA4B01AA09
:1007D000CAA18D4814F0AAFB0096DBF81C20A9B230
:1007E000B8B2D2F808C0D846874A079BE047864887
:1007F00013F027FCD8F81C10012201AB097801FB8B
:100800000077D4F8A8001146323090FBF9F0FDF7DC
:10081000FAF801AABBA17C4814F088FB0096D8F82E
:100820001C20A9B2B8B2D2F808C0774A079BE047AB
:10083000A4F82A72A4F82C520798A4F82E02A4F85F
:10084000306209B0BDE8F08F323090FBF9F0012240
:1008500001AB0221B8E7F8B5064668481746674A73
:10086000006B1C460D46883218B1022803D0A7A1A0
:1008700002E0A9A100E0ACA1634814F057FB634A71
:100880000094A9B2D269B0B23B4694685E4AA047D0
:10089000F8BD5A49887B01280CD1B1F82A02A0F58D
:1008A0007F42FF3A06D0B1F83032B1F82E22B1F8CB
:1008B0002C124CE770472DE9F84F82460A2000269B
:1008C00090468B460825344600900CF042F94B4880
:1008D000994978384FF6FF770A6840F8622F4A68DE
:1008E000426009890181384605F0C8FBDFF80C91A8
:1008F00089F808A089F80AB089F81A814FF0000B2E
:1009000089F80BB0A9F82A72A9F82C72A9F82E72EE
:10091000A9F83072C8F1090745E100BF06EB0800ED
:1009200009285ED2DFE800F0051B2A3C4B61605FBE
:100930005E00B9F88410002953D1B9F81C3056452F
:1009400002D148F21F4201E0B9F818202946009868
:10095000FFF717FC09EB040181F80CB11EE1B9F8AF
:100960001C30564502D148F21F4201E0B9F8182068
:1009700029460098FFF72CFC012126E1B9F88410E4
:1009800079BBB9F81C30564502D148F21F4201E04C
:10099000B9F8182029460098FFF73FFC022114E11E
:1009A000B9F81C30564502D148F21F4201E0B9F8AF
:1009B000182029460098FFF75CFC032105E1B9F8EF
:1009C000841071B9B9F81C30564502D148F21F4263
:1009D00001E0B9F8182029460098FFF771FC0421BE
:1009E000F3E0DEE0E3E0C7E0B7E0A7E000010203E8
:1009F000050608090B0C0E0F11120000A042002082
:100A0000CAB1BCE43A000000902F00202C00002066
:100A1000253034642D253032642D25303264202574
:100A20003032643A253032643A25303264000000B6
:100A300054494D453A000000D3EFD1D43AD6D0CE38
:100A4000C40000004C414E47554147453A454E478A
:100A50004C495348000000004C414E475541474522
:100A60003A4445555453434800000000C7E5CFB40D
:100A700020554600434C45414E2055462F4449538E
:100A8000494E46454354494F4E0000005245494E99
:100A90004947554E472055462F444553494E4645F4
:100AA0004B54494F4E000000B3E5CFB420554600EB
:100AB000464C5553482055460000000053505545BC
:100AC0004C554E4720554600BDF8CBAECBAED6CAEE
:100AD0003A00000046454544205155414C4954597F
:100AE0003A00000045494E47414E4753574552543E
:100AF0003A00000040420F0020E90008257320253D
:100B000073200000257320A1E6202000D0F2C1D080
:100B1000BAC53A257300000053455249414C204E56
:100B20004F3A25730000000053455249454E4E553B
:100B30004D4D45523A25730078640020B9F81C30B9
:100B4000564502D148F21F4201E0B9F81820294663
:100B50000098FFF755FD052137E0B9F81C305645E0
:100B600002D148F21F4201E0B9F818202946009846
:100B7000FFF799FD062128E0B9F8841089B9B9F882
:100B80001C30564502D148F21F4201E0B9F8182046
:100B900029460098FFF7BAFB072116E0641CE4B26F
:100BA0001835761CF6B2092F14DD092013E0B9F8C8
:100BB0001C30564502D148F21F4201E0B9F8182016
:100BC00029460098FFF747FE082109EB040080F84A
:100BD0000C11E3E73846B0423FF7A0AE89F8094070
:100BE000BDE8F88F10B5FDF7DBF80022BDE8104036
:100BF000FF2110465FE6F94801210174002141748C
:100C0000F0E72DE9F0430546F5A087B00068DFF86E
:100C1000CC83069008EB8500994614460F460E9E3D
:100C2000806B02AB03220121FCF7EDFED8F8300007
:100C300038B1022811D0E5B1012D1CD0022D43D0CE
:100C40001DE025B1012D04D0022D04D017E0E5A14F
:100C500012E0E8A110E0EBA10EE025B1012D04D0D7
:100C6000022D04D00BE0EBA106E0EEA104E0F1A11F
:100C700002E0F4A100E0F7A1FA4813F004FAFA4DFB
:100C80000096A1B2EA69B8B24B46D2F808C0F54A5C
:100C9000E047F44813F0D5F9E96902AA097800FBA6
:100CA0000177F2A1EF4814F041F998F80A000428FE
:100CB0000CD2CDE9009606A9EA4A0B5C21463846DB
:100CC000FFF768FB07B0E0E4E9A1D5E70096EA6921
:100CD000A1B2B8B294684B46E24AA047F2E72DE9C8
:100CE000F0430546BEA087B00068DFF8F0820690AA
:100CF00008EB8500994614460F460E9E406C02ABE9
:100D000003220121FCF77FFED8F8300038B1022819
:100D10000FD0C5B1012D18D0022D3DD019E015B16D
:100D2000012D02D008E0D6A110E0D9A10EE0DCA18F
:100D30000CE025B1012D04D0022DF8D009E0DCA192
:100D400004E0DFA102E0E2A100E0E5A1C54813F064
:100D50009AF9C54D0096A1B2EA69B8B24B46D2F8ED
:100D600008C0C04AE047BF4813F06BF9E969097849
:100D700000FB017702A9BB4813F085F998F80A0037
:100D800004280BD2CDE9009606A9B64A0B5C214691
:100D90003846FFF7FFFA95E7D5A1D7E70096EA694D
:100DA000A1B2B8B294684B46AE4AA0478AE72DE993
:100DB000FE4F0446D2A0DFF824B20C9F006888469C
:100DC0000290DBF830101D46164648F21F4039B13C
:100DD000022905D0854219D1A4B1012C14D01DE0FF
:100DE000854207D114B1012C02D017E0C5A112E051
:100DF000C6A110E014B1012C02D00FE0C5A10AE099
:100E0000C8A108E0CBA106E0CDA104E014B1012CFB
:100E100034D003E0CDA1934813F035F9DFF848A2B0
:100E20000097B1B2DAF81C201FFA88F0D146D2F848
:100E300008C02B468B4AE0478A4813F002F9D9F8DC
:100E40001C10D9460A78C5A100FB02880BEB4400B0
:100E5000B0F85C30B0F85820824814F067F899F880
:100E60000A0004280CD2CDE9005702A97D4A0B5C88
:100E700031464046FFF78EFABDE8FE8FBEA1CAE7B5
:100E80000097DAF81C20B1B21FFA88F094682B465C
:100E9000744AA047F0E72DE9F043504D044685B071
:100EA000164605EB840099460F460122DDF8308096
:100EB000006D01AB1146FCF7A6FD286B28B1022896
:100EC00003D064B1012C1CD00EE014B1012C03D06E
:100ED0000AE001AAACA104E001AAB2A101E001AAC2
:100EE000B7A1604814F022F85F4ACDF80080B1B293
:100EF000D269B8B24B4694685A4AA04705B0BDE8DB
:100F0000F08301AAB4A1ECE72DE9FF470746B8A09A
:100F10000E46D0E90010314CCDE90210206B1D4681
:100F2000914630B3022824D0B3A14E4813F0FEFFFF
:100F3000DFF834810095B1B2D8F81C20B8B24B4626
:100F4000D2F808C0474AE047464813F07AF8D8F884
:100F50001C10097800FB0177A07A0728206B20D2AB
:100F600048B1B4F86230B4F86020022817D0A6A1C6
:100F700006E0A9A1D9E7B4F86230B4F86020AAA1CC
:100F8000384813F0D3FFCDE90095A07A02A9354A7D
:100F90000B5C31463846FFF7FDF9BDE8FF87A6A197
:100FA000EEE738B1B4F86230B4F86020022807D018
:100FB000A5A106E0B4F86230B4F86020A6A100E074
:100FC000A9A1284813F0B2FF0095D8F81C20B1B2AF
:100FD000B8B294684B46234AA047DEE7A0420020FF
:100FE0000002030443454C4C20434F4E53542E55AE
:100FF000503A000043454C4C20434F4E53542E442E
:10100000493A000043454C4C20434F4E53542E5414
:101010004F433A005A454C4C204B4F4E53542E559B
:10102000503A00005A454C4C204B4F4E53542E44DE
:10103000493A00005A454C4C20434F4E53542E54CD
:101040004F433A00B5E7BCABB3A3CAFD2EC9CF20CE
:10105000203A0000B5E7BCABB3A3CAFD2ECFC22037
:10106000203A0000902F00202C0000202573000063
:10107000B5E7BCABB3A3CAFD2E544F43203A0000E2
:1010800054454D5020434F4E53542E55503A000076
:1010900054454D5020434F4E53542E44493A00007E
:1010A00054454D5020434F4E53542E544F433A0015
:1010B00054454D50204B4F4E53542E55503A00003E
:1010C00054454D50204B4F4E53542E44493A000046
:1010D000CEC2B2B9CFB5CAFD2EC9CF20203A00008A
:1010E000CEC2B2B9CFB5CAFD2ECFC220203A000081
:1010F000CEC2B2B9CFB5CAFD2E544F43203A00003C
:1011000004050B0C54502E55503A000054502E44F8
:10111000493A000054454D502E532E502E55503A0A
:101120000000000054454D502E532E502E44493A95
:1011300000000000CEC2C9E82EC9CF3A000000006E
:10114000CEC2C9E82ECFC23A00000000CEC2B6C857
:10115000C9E8B6A82EC9CF3A000000004D4158207A
:1011600025303264204D494E202530326420A1E6DE
:101170002020202020200000CEC2B6C8C9E8B6A892
:101180002ECFC23A0000000050524F442052455327
:101190002E532E502E55503A25734DA6B82E636D02
:1011A0000000000050524F44205245532E532E5001
:1011B0002E44493A2573A6CC532F636D00000000DE
:1011C000CBAED6CAC9E8B6A82EC9CF3A2573204DF2
:1011D000A6B82E636D000000CBAED6CAC9E8B6A88B
:1011E0002ECFC23A257320A6CC532F636D0000008A
:1011F00000010208090A0B00B4BFBBAFD6F9CAD977
:10120000C3FC203A000000002530336420CCEC20E1
:101210002025303464C9FD005041434B20204C4907
:101220004645203A000000002530336444415953BC
:1012300020253034644C0000253033645441474548
:1012400020253034644C0000256420CCEC2020257F
:1012500064C9FD20202020002564444159532025E5
:10126000644C20202020000025645441474520255F
:10127000644C202020200000F8B50D460646F248B8
:10128000F1491746006BB1F868201C4618B10228D6
:1012900003D0EEA102E0F3A100E0F8A1FD4813F0B5
:1012A00045FEFD4A0094A9B2D269B0B23B469468AB
:1012B000F84AA047F8BD2DE9FF471C4692460E4666
:1012C0000746AFF2D401D1E90001DF4DCDE90201BB
:1012D0000DF108092A6B012A08D1032049460B5C4D
:1012E0009B1E0B54401CC0B20728F8D3A8462AB353
:1012F000022A23D0E9A1E74813F018FEE64D009436
:10130000B1B2EA69B8B25346D2F808C0E14AE04740
:10131000E04812F096FEE969097800FB017798F839
:101320000A000728D8F8300020D248B1B8F8663053
:10133000B8F86420022817D0DCA106E0DFA1DAE7C4
:10134000B8F86630B8F86420E0A1D24813F0EEFD9A
:10135000CDE900A498F80A10CE4A384619F80130B1
:101360003146FFF717F818E6DCA1EEE738B1B8F818
:101370006630B8F86420022807D0DCA106E0B8F88F
:101380006630B8F86420DDA100E0E0A1C14813F0A8
:10139000CDFD0094EA69B1B2B8B294685346BD4A33
:1013A000A047FAE5F8B50D460646A748A6491746F0
:1013B000006B4A6B1C4618B1022803D0D7A102E08B
:1013C000DDA100E0E3A1B34813F0B0FDB24A009400
:1013D000A9B2D269B0B23B469468AE4AA047F8BD04
:1013E000F8B50D460646984897491746006BB1F880
:1013F0007C201C4618B1022803D0DDA102E0E3A145
:1014000000E0E9A1A34813F091FDA34A0094A9B21A
:10141000D269B0B23B4694689E4AA047F8BDF8B581
:101420000D460646884888491746006BB1F87E206D
:101430001C4678B102280FD0E2A1964813F076FD41
:10144000954A0094A9B2D269B0B23B469468914AD9
:10145000A047F8BDE1A1F0E7E6A1EEE7F8B50D463B
:101460000646794878491746006BB1F880201C463B
:1014700078B102280FD0E5A1864813F057FD864ABF
:101480000094A9B2D269B0B23B469468814AA047A1
:10149000F8BDE5A1F0E7EBA1EEE72DE9FC5F83469F
:1014A0000A200026019090460F46082534464FF644
:1014B000FF7004F0E3FDDFF89091002189F808B097
:1014C00089F80A7089F81A8189F80B10C8F10E079B
:1014D000B5E000BF06EB080ABAF10E0F6BD2DFE8E9
:1014E0000AF0071C071C071C38384C4C60738294A8
:1014F000B9F8841000295ED1B9F81C0000905E454F
:1015000002D148F21F4301E0B9F818304FEA5A00FF
:101510002A460199FFF775FB16E0B9F88400002808
:1015200049D1B9F81C10AAF1010000915E4502D121
:1015300048F21F4301E0B9F8183000EBD0704010BA
:101540002A460199FFF7CBFB09EB040181F80CA1B6
:1015500070E0B9F8841071BBB9F81C0000905E45CA
:1015600002D148F21F4301E0B9F81830AAF1060091
:101570002A460199FFF71BFCE6E7B9F88410D1B9B8
:10158000B9F81C0000905E4502D148F21F4301E00B
:10159000B9F81830AAF108002A460199FFF77BFC38
:1015A000D2E7B9F8841031B9B9F81C305E4503D1DF
:1015B00048F21F4202E040E0B9F81820294601989D
:1015C000FFF7A2FC0A2131E0B9F81C305E4502D1D8
:1015D00048F21F4201E0B9F8182029460198FFF7A8
:1015E0004BFE0B2122E0B9F8841031BBB9F81C3056
:1015F0005E4502D148F21F4201E0B9F818202946A1
:101600000198FFF758FE0C2110E0B9F88410A1B939
:10161000B9F81C305E4502D148F21F4201E0B9F82A
:10162000182029460198FFF7BDFE0D2109EB0400A3
:1016300080F80C11641CE4B21835761CF6B2092F40
:1016400001DD09200DE10BE1A0420020B9FDC2CB74
:10165000C6F7CAD9C3FC203A256420CCEC20202050
:101660002000000046494C544552204C4946453A1A
:1016700025642044415953202020200046494C54E1
:101680004552204C4946453A25642054414745205F
:1016900020202000902F00202C000020D7CFCDE26A
:1016A000B5C6CAD9C3FC203A000000002530336417
:1016B000CCEC2025303464D0A1CAB100555620208E
:1016C0004C4946452020203A000000002530336474
:1016D0004441595320253034644872002530336426
:1016E0005441474520253034644872002564CCECD1
:1016F000202564D0A1CAB120200000002564444107
:10170000595320256448722020202000256454412C
:10171000474520256448722020202000D1ADBBB76A
:10172000CAB1BCE42020203A256420B7D6D6D32005
:1017300020202020000000005245434952432E2023
:101740002020203A2564206D696E20202020202052
:101750000000000052455A49524B2E202020203ACA
:101760002564206D696E20202020202000000000CC
