:020000040800F2
:10000000D877002065520108B1C20008B3C20008C9
:10001000B5C20008B7C20008B9C20008000000005D
:10002000000000000000000000000000BBC200084B
:10003000BDC200080000000097880108BFC2000888
:100040007F5201087F5201087F5201087F52010848
:100050007F5201087F52010803C6000815C6000838
:1000600027C6000839C600084BC600087F520108A1
:100070007F5201087F5201087F5201087F52010818
:100080007F5201087F520108E3ED01087F52010809
:10009000FFC5000801C600087F5201085DC60008C0
:1000A0007F5201087F5201087F5201086BC400088B
:1000B000A3C4000817C500088BC500087F520108BB
:1000C0007F5201087F5201087F5201087F520108C8
:1000D0007F520108EDC3000811C4000823C40008C2
:1000E000F1C600087F5201087F5201087F520108C3
:1000F0007F5201087F5201087F5201087F52010898
:100100007F5201081F2702087F5201087F52010811
:1001100035C4000847C400087F5201087F52010817
:10012000FDED01087F5201087F5201087F5201084E
:100130007F5201087F5201087F5201087F52010857
:100140007F5201087F5201087F5201087F52010847
:100150007F5201087F5201087F52010859C40008EC
:100160007F5201087F5201087F5201087F52010827
:100170007F5201087F5201087F5201087F52010817
:100180007F5201087F52010851847A030A00095006
:10019000010203040607080913D1411B20E1041AD8
:1001A000F1041AAD041AB9041AC5048140D752AE3D
:1001B00056A5DF9CE3945B8D3F868A7F35793A7341
:1001C000936D3C682F63685EE3599C559051BA4D1E
:1001D000194AA84665434D405E3D963AF237703560
:1001E0000E33CC30A62E9B2CAA2AD12810276425AA
:1001F000CD234A22D920791F2A1EEB1CBB1B981A3B
:1002000083197C1880179016AA15CF14FE13361385
:100210007712C01111116A10CA0F310F9F0E130E01
:100220008C0D0C0D910C1B0CAA0B3E0BD70A730AFC
:10023000140AB80960090C09BB086D082308DB071C
:10024000970754071507D8069D0664062E06FA057B
:10025000C705970568053C051105E704BF04990427
:10026000740450042E040D04ED03CE03B003930375
:1002700078035D0343032A031203FB02E502CF0266
:10028000BB02A7022D010203040425060708090288
:1002900043FD1EDF9B010899041A7F041A6D041A9E
:1002A0008B0425E0740508121013B4012220740297
:1002B0004001A9241AE4246A10242C0402409F2936
:1002C00028A9241AE8246A20243508024004292891
:1002D000A9241AEC246A30241C0C02407911DA0398
:1002E000241AF0246A40243510024010294CA92415
:1002F0001AF4246A50241C140240B911DA05241A95
:10030000F8246A60243518024040022E061A40790B
:1003100012401A0804112A013F39D001126A08015B
:100320002A2801790E7901CBA010017A0401591114
:100330003A41010A11010149203A42010A11020120
:10034000291E022008E980E901091279297C59084F
:0C035000091278397C690962FF02120171
:020000040800F2
:10C00000DFF80CD017F020F8004800471DC20008E8
:10C01000D87700200FF0A3BE10B50EF050FA0EF046
:10C0200037FB0024204601F012FA641CE4B2062C0F
:10C03000F8D310BD08B562208DF8000000208DF8FF
:10C04000010068460DF0CBFF63208DF80000012051
:10C050008DF8010068460DF0C2FF64208DF80000E5
:10C0600002208DF8010068460DF0B9FF65208DF8BB
:10C07000000003208DF8010068460DF0B0FF08BDF8
:10C0800010B509F0A1FC04200EF063FA042000F0C2
:10C0900014FE0DF01AFF00F057FD0EF0B3FE00F095
:10C0A0004EFF08F076FF00F0ADFC00F07DFC00F0E4
:10C0B00057FC00F02BFC00F061FC0FF083F80FF050
:10C0C000BAF90DF031FFFFF7B5FF6A4812F023FE11
:10C0D00008F094FD09F0A2F808F023F813F00DF829
:10C0E00006F0C9FB0FF022FE01211B2010F02FF8F3
:10C0F0000221BDE810404FF6FF734FF47A72002022
:10C100000EF0AEB910B5817821B1012907D01129FF
:10C1100005D102E0FFF7B4FF01E003F077F900205A
:10C1200010BD10B58178808805F096FC002010BD08
:10C13000514810B50168491C016000F032FCBDE8AF
:10C14000104005F0C3BE10B58078042809D2DFE89E
:10C1500000F002080805FFF7EBFF02E0002000F006
:10C16000E1FB002010BD10B50446012000F0E4FB07
:10C17000424900200870E078414C20704148006836
:10C180004078092809D00D280AD00CF077FA10B1B0
:10C1900020780CF086FA002010BD0CF0A0F9F6E72C
:10C1A0000CF0EDF9F3E70178C91E09290ED2DFE89A
:10C1B00001F0050B0D0D070D09060800C3E7A1E707
:10C1C000AFE7D0E712F00ABE01F036BA00207047A0
:10C1D000E9E710B500210A200EF035F8002805D057
:10C1E00000218170BDE810400EF044B810BD08B5C4
:10C1F000AFF223034FF40062234903200EF06FF8DF
:10C200006A4622A103200DF098FAFFF7E2FF002210
:10C210006423114610460DF000FCF8E700B587B026
:10C220000CF004FB0EF03EFC00214FF0006009F022
:10C230005EF84FF4A06009F027F80CF0FAFB1648FE
:10C240000DF1040C032300224FF40071ACE80F0041
:10C25000062003460090114A002111480DF012F902
:10C2600005AA10A106200DF068FA0CF0EAFC07B050
:10C27000002000BD40420F00000000206E010020A1
:10C280006F01002004C50208280400204D61696E7A
:10C290002D5461736B00000028240020242C002002
:10C2A000EFC10008526F6F742D5461736B00000072
:10C2B0007047FEE7FEE7FEE7FEE77047704710B500
:10C2C0000CF0C8FAFE49097819B1FE4A1178491CE8
:10C2D00011700CF0C3FA0CF0C7FCBDE810400CF074
:10C2E00040BCF8B5054600EB0510C0EBC511F6489B
:10C2F00000EB810440F22551D4F8900109F030FDA3
:10C3000050B1D4F8900109F094FC8DF80000E8B227
:10C310000122694600F0D3FF40F227773946D4F86E
:10C32000900109F01DFD40F2266620B3B4F880119B
:10C33000B4F88201814204D100223946D4F8900138
:10C3400017E0015DD4F8900109F06FFC94F88201C8
:10C35000401C00F07F00A4F8820194F89C11002991
:10C3600026D1B4F88011814209D101223146D4F896
:10C37000900109F0D3FC94F89C01002818D13146B3
:10C38000D4F8900109F0ECFC002811D0B4F8800139
:10C39000B4F8821188420BD1E8B2002100F0FAFE15
:10C3A0003146D4F89001BDE8F840002209F0B6BC4F
:10C3B000F8BD38B5044600EB0410C0EBC411C24808
:10C3C00000EB810540F22551D5F8900109F0C8FC39
:10C3D00000280AD0D5F8900109F02BFC8DF8000058
:10C3E000E0B20122694600F06AFF38BD10B5B74CD3
:10C3F00040F22551204609F0B3FC002807D0204622
:10C4000009F017FCBDE81040C0B200F0D4BB10BD6D
:10C41000AD4890F8590301284FF0010000D060E7C3
:10C42000C7E7A94890F8150501284FF0020000D091
:10C4300057E7BEE7A44890F8D10601284FF0030063
:10C4400000D04EE7B5E7A04890F88D0801284FF0DE
:10C45000040000D045E7ACE79B4890F8490A012862
:10C460004FF0050000D03CE7A3E710B5984C02213F
:10C4700020460BF046FC002812D0022120460BF08B
:10C480004CFC20460BF0E8FB81B201F57A712046A6
:10C490000BF035FA0221BDE8104003200FF0D1BBAC
:10C4A00010BD10B501218C0720460BF02AFC38B1D5
:10C4B000012120460BF031FC012100200FF0C1FBCF
:10C4C000022120460BF01DFC38B1022120460BF062
:10C4D00024FC022100200FF0B4FB042120460BF0C5
:10C4E00010FC38B1042120460BF017FC0421002079
:10C4F0000FF0A7FB082120460BF003FC002809D011
:10C50000082120460BF009FC0821BDE8104000205E
:10C510000FF097BB10BD10B56E4C012120460BF0FB
:10C52000F0FB38B1012120460BF0F7FB0121084652
:10C530000FF087FB022120460BF0E3FB38B102210C
:10C5400020460BF0EAFB022101200FF07AFB0421C8
:10C5500020460BF0D6FB38B1042120460BF0DDFB62
:10C56000042101200FF06DFB082120460BF0C9FBD0
:10C57000002809D0082120460BF0CFFB0821BDE898
:10C58000104001200FF05DBB10BD10B5524C0121D1
:10C5900020460BF0B6FB38B1012120460BF0BDFB65
:10C5A000012102200FF04DFB022120460BF0A9FBD8
:10C5B00038B1022120460BF0B0FB022108460FF0F3
:10C5C00040FB042120460BF09CFB38B1042120469F
:10C5D0000BF0A3FB042102200FF033FB08212046BF
:10C5E0000BF08FFB002809D0082120460BF095FBAB
:10C5F0000821BDE8104002200FF023BB10BD70479A
:10C60000704710B501200BF058FEBDE81040002027
:10C610000DF02BBC10B502200BF04FFEBDE8104012
:10C6200001200DF022BC10B504200BF046FEBDE841
:10C63000104002200DF019BC10B508200BF03DFE93
:10C64000BDE8104003200DF010BC10B510200BF019
:10C6500034FEBDE8104004200DF007BC10B52020CA
:10C660000BF022FE28B120200BF027FE05200DF054
:10C67000FCFB40200BF018FE28B140200BF01DFE03
:10C6800006200DF0F2FB80200BF00EFE28B180207A
:10C690000BF013FE07200DF0E8FB4FF480742046EA
:10C6A0000BF002FE28B120460BF007FE08200DF02B
:10C6B000DCFB4FF4007420460BF0F6FD00280DE083
:10C6C0007D0100207801002014340020001001407A
:10C6D00000000140000400400008004007D0204650
:10C6E0000BF0EBFDBDE8104009200DF0BEBB10BD06
:10C6F00010B54FF4806420460BF0D6FD28B12046DB
:10C700000BF0DBFD0A200DF0B0FB4FF40064204677
:10C710000BF0CAFD28B120460BF0CFFD0B200DF029
:10C72000A4FB4FF4805420460BF0BEFD28B12046F8
:10C730000BF0C3FD0C200DF098FB4FF40054204685
:10C740000BF0B2FD28B120460BF0B7FD0D200DF027
:10C750008CFB4FF4804420460BF0A6FD28B1204608
:10C760000BF0ABFD0E200DF080FB4FF40044204693
:10C770000BF09AFD002807D020460BF09EFDBDE887
:10C7800010400F200DF071BB10BD00000CB5002053
:10C790005449019000900A6842F480320A604FF4D4
:10C7A000A0430A6802F400320092019A521C0192DE
:10C7B000009A12B9019A9A42F3D10A68920334D5C9
:10C7C0000120009047484030026842F080520260E9
:10C7D0004548026842F4404202604248083002681C
:10C7E0000260026842F400420260026842F4A05211
:10C7F0000260031F3D4A1A600A6842F080720A60B4
:10C800000A689201FCD53A4A40F20571116001684C
:10C8100021F003010160016841F00201016001683B
:10C82000C1F381010229FAD10CBD00900CBD314841
:10C8300010B5016841F4700101602A48016841F0B7
:10C8400001010160274A00210832116002682A4B69
:10C850001A400260031D294A1A60026822F48022ED
:10C86000026020480C300160FFF790FF21494FF033
:10C8700000608039086010BD70B51A4C083420681B
:10C880001F4A10F00C011F4804D01F4D042903D08B
:10C89000082903D002601BE0056019E01149091D59
:10C8A0000B68C3F380560B6803F03F0316B1B5FB6A
:10C8B000F3F201E0B2FBF3F20B680968C3F38813EB
:10C8C0005A43C1F30141491C4900B2FBF1F1016037
:10C8D00021680C4AC1F30311121D515C0268CA4061
:10C8E000026070BD003802400070004019544007DB
:10C8F000003C024088ED00E0FFFFF6FE103000240F
:10C900000024F4000400002040787D0110B540F2BE
:10C9100001210E200DF07CF90121BDE810400E2010
:10C920000DF0A2B908B1002100E001210E200DF0A8
:10C930009BB90E200DF0A7B910B504000CD0012052
:10C94000FFF7F0FF642004FB00F200230121BDE8A3
:10C95000104003200DF084BDBDE810400020E1E749
:10C96000704770477047002807D0642100FB01F230
:10C970000023012102200DF073BD704710B540F275
:10C9800001210D200DF044F90121BDE810400D20DA
:10C990000DF06AB908B1012100E000210D200DF071
:10C9A00063B90D200DF06FB910B50121880308F0AF
:10C9B0006EFF124812490078BDE810400DF028B90A
:10C9C0000E4910B5085C0DF042F9002800D0012096
:10C9D00010BD2DE9F04100252C4601272046FFF728
:10C9E000EFFF18B107FA04F62E43B5B2641C14F039
:10C9F000FF04F3D02846BDE8F08100008843020818
:10CA0000000200012DE9F0473A4E3B4F002440F26E
:10CA1000012906F10A08305D49460DF0F9F818F8C9
:10CA20000410305D0DF020F907EB4410054620217D
:10CA300015F060FF2C70641C0A2CECDBBDE8F0875D
:10CA40002C4A105C0DF010B92A4910B5085C0DF0A5
:10CA5000FEF8C0B210BD2749085C0DF014B910B53E
:10CA6000044600780021FFF7EBFFE069002802D0C0
:10CA7000BDE81040004710BD7CB50D461E4901EBD6
:10CA800040140121E261FFF7DBFF201DAFF231030B
:10CA9000CDE900402A46002110460DF0C2FD7CBDC4
:10CAA0002DE9F04100252C4601272046FFF7CCFF59
:10CAB00018B107FA04F62E43B5B2641CE4B20A2C8E
:10CAC000F3D32846BDE8F08110B5002400212046AC
:10CAD000FFF7B6FF641CE4B20A2CF7D310BD10B503
:10CAE000002401212046FFF7ABFF641CE4B20A2CAE
:10CAF000F7D310BD89430208282C002070B5074DDC
:10CB00000446C1B2284609F090F84021284609F0B1
:10CB10001DF90028F9D0204670BD0000001001402A
:10CB200010B50C46480702D000200BF0DEFDE006F1
:10CB300009D564480078C10701D1800703D5BDE855
:10CB400010400FF09DB810BD10B586B000244FF412
:10CB5000E1300090ADF808400C20ADF80440ADF88D
:10CB60000A00ADF80640ADF80C40694620460EF0CC
:10CB700085FC25208DF810000F208DF811008DF810
:10CB8000124001208DF8130004A808F082FB012256
:10CB900040F225514C4809F0C1F84FF402714B485E
:10CBA00015F0A8FEAFF287004849C1F804020BF067
:10CBB00023FE06B010BD454991F80022885401F5C6
:10CBC00000710878401C08704A6804210020104752
:10CBD00010B53D4C0146204609F027F8402120467B
:10CBE00009F0B4F80028F9D010BD70B50D4606461E
:10CBF000002404E0305DFFF7EBFF641CE4B2AC42BC
:10CC0000F8D332481021D0F80422BDE8704000204B
:10CC1000104770B5BF2A11D82D4B1C6822701D68B3
:10CC200009246C701C68A0701868C01C15F049FEBF
:10CC300028480078BDE870400BF033BD70BD40302F
:10CC4000C0B2E6E710B514460A4608B1002010BD90
:10CC5000E1B21046FFF7C9FF204610BD78B91B4866
:10CC600090F8003290F80122934208D0825C0A705A
:10CC700090F80112491C80F8011201207047002031
:10CC8000704710B5044615F04AFE2146C2B2BDE811
:10CC900010403020BDE70FB40F4900B5096891B0CE
:10CCA000884207DC14AA6846139916F0BDFC684652
:10CCB000FFF7E7FF11B05DF814FB052801D2064924
:10CCC000086070477501002000100140682D0020A9
:10CCD00008C502086F01002018000020D6487047E0
:10CCE0000EF09AB80EF001B970B5D44B1C682270E2
:10CCF0001D6809246C701C68A0701868C01C15F0B1
:10CD0000E0FDCF480078BDE870400BF0CABCCD49CB
:10CD100002680A6042684A60008908810A460A215E
:10CD20008320DDE7C7490A6802604A6842600989D2
:10CD300001810A2070470FF0D3B90FF0A2B9C3499F
:10CD4000C148086070470020704770B51500BA4CA4
:10CD50004FF00002A4F103040A6004D0012D06D0B4
:10CD6000022D09D10CE0B74922780A3102E0B54919
:10CD700062782A3115F0A5FD605D401CC0B270BD1F
:10CD8000B049A2784A31F5E7F8B5144682781D46D5
:10CD90000646012A05D0022A03D0032A01D0FF202B
:10CDA000F8BD521E6946E01CFFF7CFFFB178A170B5
:10CDB000401C20701021617029780844801C287064
:10CDC0000020F8BD70B59C4C1500A4F1030404D0FC
:10CDD000012D0DD0022D17D11AE0C11C99482278DF
:10CDE0000A3015F06EFD974A21780A32802009E05A
:10CDF000C11C944862782A30064615F062FD6178BD
:10CE000032468120FFF76CFF605D401CC0B270BDF0
:10CE1000C11C8C48A2784A30064615F052FDA17814
:10CE200032468220EEE7F8B51D4614460F46064608
:10CE30000EF095FFB278012A05D0022A03D0032A0A
:10CE400001D0FF20F8BD521E39463046FFF7BAFF29
:10CE5000B2786946521EE01CFFF777FF0020207071
:10CE6000D02060702878801C28700020F8BD2DE943
:10CE7000FC4115468778C2798179CDE900121C46BC
:10CE800007F26C7743790279C178002638460EF0B4
:10CE900060F92E70C02068702078801C2070BDE87A
:10CEA000FC8170B51D4614460EF0C5FA06202070B0
:10CEB000C120607066480179A1F26C71A17081791E
:10CEC000E170C1792171017861714178A171807837
:10CED000E07128780830287070BD70B5154642782A
:10CEE0000024D12A11D006DCC02A14D0C12A17D0C0
:10CEF000D02A21D104E0F02A1BD0F12A1CD114E061
:10CF00000A462946FFF78FFF03E00A462946FFF746
:10CF10003BFF044610E00A462946FFF7A8FF0BE056
:10CF20000A462946FFF7BDFF06E00120FFF71BFD7B
:10CF300002E00120FFF700FD204670BDCDE741482B
:10CF400010B522216A3015F0D5FC424A0221212079
:10CF50000DF0CBFF3F4C08B1002020803D4A082156
:10CF6000921C22200DF0C1FF38B9334939482222E2
:10CF70001431801C15F0E8FC60B12F48354A14309C
:10CF8000921C016844F8021F40686060082122205A
:10CF9000FFF7A6FE2B4A0A218320FFF7A3FE38B134
:10CFA00028482DA10A680260496841605821017231
:10CFB000244A10216A32B2200DF097FF20B1214897
:10CFC00028A16A3015F0CDFC1E4A10217B32144690
:10CFD000B3200DF08AFF18B124A1204615F0C1FC42
:10CFE000184A20210A3280200DF07FFF28B1154811
:10CFF000FF2220210A3015F076FC124A20212A3225
:10D00000144681200DF071FF20B1FF22202120461F
:10D0100015F069FC0B4A20214A32144682200DF09B
:10D0200064FF002806D02046FF22BDE810402021E2
:10D0300015F059BC10BD0000A043020808C5020845
:10D040006F010020703300200400FA050CED00E0B1
:10D050005C6000201E00002057444D422D58585857
:10D060005800000041444D494E0000003836303829
:10D070003630000038B50D4600EB0011C1EBC01191
:10D08000FE4800EB810494F88C01A84209D0D4F842
:10D09000B8013DB1002804D10BF05BFFC4F8B80122
:10D0A00028B938BD18B16A4601210CF03CF884F863
:10D0B0008C5138BDF0B5064600EB0610C0EBC6112A
:10D0C000EE4885B000EB8104D4F8AC1100295FD0A4
:10D0D00030468847D4F89001002859D004F5C87428
:10D0E000002520798DF810000F208DF811008DF8A3
:10D0F000125001278DF8137004A808F0CAF8D4F86C
:10D100000E000090A07CDE4931F81000ADF804005C
:10D11000E07C091D31F81000ADF80600207D891D66
:10D1200031F81000ADF808000C20ADF80C50ADF847
:10D130000A00207A69460EF0A1F92068A4F5C874A7
:10D14000012240F2255108F0E9FDCC48183850F88A
:10D15000261051B994F88C1140F8267084F88C513F
:10D160003046C4F8B851FFF785FF94F8A501A4F83C
:10D17000880194F89C0100280AD194F8A80140F293
:10D1800001210CF045FD94F8A80100210CF06CFD84
:10D1900005B0F0BD00EB0012C2EBC012B74800EBC7
:10D1A000820090F89C21002A07D190F8A80109B1CB
:10D1B000012100E000210CF057BD704710B500249C
:10D1C000E0B2FFF777FF641C062CF9DB10BD2DE9F8
:10D1D000F04115460F46024606281ED202EB021009
:10D1E000C0EBC211A54800EB810494F89D0108B181
:10D1F000002655E0B4F88211B4F88001814201D1D3
:10D20000802007E0081A8030C11700EB516121F03F
:10D210007F01401A80B2A84202D20020BDE8F0810E
:10D2200001211046FFF7B6FFB4F88001B4F882116F
:10D23000884203D3C0F18002AA420ADD20442A4674
:10D24000394615F03EFBB4F880012844A4F880016B
:10D2500010E02044394615F034FBB4F88001C0F1E9
:10D260008000C119281A85B220462A4615F029FBEC
:10D27000A4F88051012240F22771D4F8900108F0FF
:10D280004DFD0FE0B95DD4F8900108F0CEFC4021CF
:10D29000D4F8900108F05AFD0028F8D0761CB6B2F8
:10D2A000AE42EFD30120B9E700EB0012C2EBC01091
:10D2B000724A002102EB8000A0F88A1170472DE924
:10D2C000F04107460E4600EB0710C0EBC7116B4854
:10D2D000154600EB8104B4F886C1B4F884118C457E
:10D2E00002D14FF4807209E0ACEB010202F58072CA
:10D2F000D31702EB136323F0FF03D21A92B2AA42B0
:10D3000001D200208AE7802207EB0713C3EBC71383
:10D3100002EB8303614503D3C1F58072AA420BDDA2
:10D32000084418442A46314615F0CBFAB4F8840173
:10D330002844A4F8840113E008441844314615F049
:10D34000C0FAB4F88401C0F580700644281A85B28A
:10D3500004F180002A46314615F0B3FAA4F884514E
:10D360003846FFF7A1FFD4F8B42122B1012D02D134
:10D37000317838469047012050E700EB0012C2EBAD
:10D38000C0123E4800EB8200A0F88811A0F88A1174
:10D3900070472DE9F047074600EB0710374DC0EB0B
:10D3A000C71005EB80048846B4F88601B4F88411F0
:10D3B000C0F580700844C11700EB116121F0FF0136
:10D3C000401A80B21646824200D3C6B2E6B30BF0D2
:10D3D00041FA8146B4F88601B4F88421802107EB34
:10D3E0000713C3EBC71301EB8301904204D2284417
:10D3F00001443246404613E0C0F58072B242F6DC8A
:10D4000028440144404615F05CFAB4F88601C0F5A2
:10D410008070311A0A04120C04D004F180014044D7
:10D4200015F04FFA94F886013044C0B2A4F8860192
:10D43000B4F88411884204D10020A4F88401A4F82F
:10D44000860148460BF00AFA3046BDE8F08770B511
:10D45000054600EB0510C0EBC511084800EB810044
:10D46000B0F88621B0F884118A4235D0B0F88A31FC
:10D470005B1C9BB2A0F88A3104E000001434002049
:10D48000BE430208B0F88841A34225D3C2F580729A
:10D490001144CA1701EB126222F0FF02891A8EB200
:10D4A00090F88C1131B1D0F8B801BDE8704001217D
:10D4B0000BF074BE314604200CF0C5FE04000BD006
:10D4C000F2B204F108012846FFF763FFA570204679
:10D4D000BDE870400CF0CEBE70BD00EB0011C1EB9A
:10D4E000C0125E4901EB8201B1F88821A1F88A21BE
:10D4F000ADE770B500EB001100F11003C1EBC011F6
:10D50000564800EB810404F5CF7215460A211846EF
:10D510000DF0EBFC20B12846FF220A2115F0E3F9BB
:10D52000D4F89E01B0F5E13F03D94FF41650C4F88A
:10D530009E0194F8A2110020022901D384F8A201CF
:10D5400094F8A311032901D384F8A30194F8A4113A
:10D55000032901D384F8A40194F8A5110A20FA291B
:10D5600001D80A2901D284F8A50170BD00EB001191
:10D57000C1EBC010394901EB800090F88C01704775
:10D5800000EB0011C1EBC011344800EB8100B0F892
:10D590008611B0F88401814201D10120704700203A
:10D5A0007047F8B504460E4600EB0410C0EBC411FA
:10D5B0002A48154600EB810292F88C0100280FD012
:10D5C0007BB12046FFF7DCFF58B1D2F8B8016A46BC
:10D5D00019460BF047FD2A4631462046FFF7D9FE93
:10D5E000F8BD2A4631462046BDE8F840D1E610B5E0
:10D5F000044600EB04101949C0EBC41001EB800095
:10D60000D0F8900108F030FA2046BDE8104051E50E
:10D6100000EB0011C1EBC011104800EB8100B0F825
:10D620008211B0F88001081A8030C11700EB5161F7
:10D6300021F07F01401A704710B5817806290AD27F
:10D6400001EB0112C2EBC112044901EB8201D1F8D6
:10D65000B01101B18847002010BD00001434002033
:10D66000FE494A68824201D0C1E901027047F0B523
:10D67000002200E0521C8356202BFBD0092BF9D04E
:10D6800084562D2C05D04FF0010605D02B2B03D04E
:10D6900003E04FF0FF36F8E7521C00236FF02F0431
:10D6A0000B6007E00D68521C05EB850504EB450592
:10D6B0002B440B608356A3F13005092DF2D9835C0E
:10D6C0002E2B00D1521C01230AE00F6803EB8303C9
:10D6D00007EB870704EB47073D445B00521C0D60D6
:10D6E0008556A5F13007092FEFD908684FF47A72F3
:10D6F00070430860934204D2B2FBF3F242430A60E3
:10D70000F0BDB3FBF2F2B0FBF2F00860F0BD10B573
:10D710000178082905D2DFE801F00418383826819D
:10D72000426A4078012801D101217EE000210520D4
:10D73000FFF786F900210320FFF782F900211BE0A3
:10D740000820FFF77DF9002142E000210520FFF7C6
:10D7500077F901210320FFF773F900210420FFF777
:10D760006FF9012155E000210520FFF769F900213B
:10D770000320FFF765F901210420FFF761F900217B
:10D780000720FFF75DF90021DAE701210520FFF707
:10D7900057F900210320FFF753F90121DEE7407814
:10D7A00004281AD00528C1D10021FFF749F9012129
:10D7B0000320FFF745F900210420FFF741F901217B
:10D7C0000720FFF73DF901210820FFF739F9012172
:10D7D000BDE810400620FFF733B900210520FFF710
:10D7E0002FF901210320FFF72BF900210DE04078EC
:10D7F000022899D0032899D101210520FFF720F9AB
:10D8000000210320FFF71CF901210420FFF718F97C
:10D8100000210720FFF714F9012191E7407806283D
:10D8200002D0072882D17FE700210520FFF708F901
:10D8300000210320FFF704F900210420FFF700F97D
:10D840000021BDE77047F8B51022002184480DF093
:10D85000D1FB8348203807F03BFA814C203C206AFA
:10D86000401C02D10DF0CAFD2062E08D4FF6FF751D
:10D870000026A84200D1E685606A401C02D10DF066
:10D88000BDFD6062A06A401C02D10DF0B7FDA06230
:10D89000A08DA84200D1A685D4F8CC01009071A338
:10D8A0004FF4017274A104200CF03EFEF8BD10226A
:10D8B00000216B480DF0C6BB694810B5022210214B
:10D8C000D4300DF097FB18B96EA10020FFF7E3F9F3
:10D8D00063482038B0F8F410A1F57F42FF3A02D136
:10D8E0000021A0F8F41010BD5D4810B502221021EF
:10D8F000D4300DF0A7FB002804D1BDE8104065A18D
:10D90000FFF7C9B910BD70B5554D203DB5F8F440CD
:10D91000FFF7D2FFB5F8F400A04204D0A5F8F44018
:10D92000BDE87040E0E770BD10B505281BD24C4A39
:10D93000203A02EBC00494F8C00000F001020A4350
:10D9400011D0C20702D000290DD103E011B140F07F
:10D95000010001E020F0010084F8C00021B10DF0C9
:10D960004DFDC4F8C40010BD20F0020084F8C000D2
:10D9700010BDF0B501250024264603E005EB850522
:10D980006D00761C9642F9DB90FBF5F605FB160C54
:10D99000334860380A27B64696FBF7F607FB16EEC3
:10D9A0000EF1300E00F804E0641C002EF3DC264675
:10D9B0004FF0200E04E000BF00F804E0641C761C69
:10D9C0008E42F9DB002105E0661A064416F8016C68
:10D9D0005E54491CA142F7DB2E201855641C002020
:10D9E0000BE000BF95FBF7F59CFBF5F101F130066C
:10D9F0001E55641C05FB11CC401C9042F2DB00203C
:10DA00001855F0BD0B4601220221B2E70B46032256
:10DA10000121AEE710B5044604210A200CF013FCE6
:10DA2000002806D0112181708460BDE810400CF000
:10DA300021BC10BD70B50DF0E1FC094920390A6820
:10DA400022F007030B60B1F87C40164A64BB0C6AF5
:10DA500084423AD2041BB4FBF2F426E02C000020EE
:10DA6000DC3E0020756C5546436C65616E54696DF3
:10DA700065203D2025640000646973706C61792E17
:10DA800063000000726561642071747720666169CB
:10DA90006C0000007772697465207174772066618C
:10DAA000696C00008051010029E0B1F86050A54286
:10DAB00002D843F001030B60CB8DB1F86240A34262
:10DAC00003D30B6843F001030B608B6A834216D2C9
:10DAD000C31AB3FBF2F3B1F864409C4203D80B685D
:10DAE00043F002030B60B1F866408B8D04EB4404F5
:10DAF000B3EB440F03D30B6843F002030B604B6A94
:10DB000083420AD2C01AB0FBF2F0B1F86820824218
:10DB100003D8086840F00400086070BD814204D951
:10DB2000FE4A081A1368184410607047F8B5064694
:10DB30001D460C46104614F0F2FEF94949680A7871
:10DB40000095497802FB006021448BB2A1B280B2FB
:10DB500040F23F1206F081FDF8BD38B5F04C154695
:10DB6000FF2810D1FF290ED1104614F0D8FE6168AD
:10DB70000A784978520850437822A2EB5102C0F14A
:10DB8000A000A2EB5101E54A89B2BC3A80B2538BA6
:10DB90000093138B626894682A46A04738BD2DE92C
:10DBA000F843DFF878830025A8F1FC0808F1400469
:10DBB0002E46A01DD8F84470FFF7A9FD207907284C
:10DBC00010D2DFE800F00F0E08040F0F0B00002149
:10DBD0000920FEF735FF01252E4603E06079052870
:10DBE00000D10125B8F84610D4F8B490A8F8441034
:10DBF0000820A071E0710DF001FC0146C4F8B400EA
:10DC000015B14846FFF78AFF46B12068410505D4A3
:10DC1000D4F8901011B140F4806020602079002584
:10DC200003280CD2DFE800F0020B070017F0FF0F0B
:10DC300005D0658203E001210920FEF701FF20885D
:10DC400040040FD58DF8005001208DF801000B2005
:10DC50008DF8020020798DF8030004226946A12086
:10DC600007F0B8FABDE8F88310B50EF078F8AB48C5
:10DC7000AE38418801800E380A2101749221417426
:10DC8000FF21417310BD10B504002DED048B86B04B
:10DC90009FEDA40A8DED040A8DED050A04D0012C38
:10DCA00007D0022C0ED109E005A904A805F09DFBC0
:10DCB00008E005A904A805F069FC03E005A904A88B
:10DCC00005F009FD9DED050ADFED970A934860EE2A
:10DCD000200ABC3800EB8401FDEEE00AC1ED270A02
:10DCE0009DED048ADFED910A91ED0E1A68EE201A7F
:10DCF000B8EE411A21EE811AC1EE201AFDEEE10ABA
:10DD000010EE900AC1F890001CB1012C0FD0022C2B
:10DD10000DD144F25062904203DB44F21870C1F816
:10DD20009000D1F8A820824201DAC1F8A80010EED4
:10DD3000100A14F000FF41EC190B18EE100A14F051
:10DD4000FAFE41EC100B8DED029B8DED000B22468F
:10DD500077A10420FEF79FFF06B0BDEC048B10BD39
:10DD600010B50020FEF72CFE28B101210420FFF79A
:10DD7000DBFD002010BD00210420FFF7D5FD0120B0
:10DD800010BD7047654ABC3A126B0AB170A2E4E656
:10DD900071A2FCE72DE9F041724A88B005AB07CAD1
:10DDA0005E4C07C3BC3C01A9B4F8F400FFF72AFE9F
:10DDB00001A814F0B4FD5A4F401C79680A78520843
:10DDC0005043C0F1A0054878C0F14A0601A814F0FC
:10DDD000A6FD7A68117801FB0058608B0090A8B20C
:10DDE0009568238BB1B201AAA8477D6805AA687817
:10DDF0008119081A618B0091216B238BAC6852F852
:10DE0000212081B208F10A0080B2A04708B0BDE825
:10DE1000F081424810B5BC38408B06F032FFBDE8B7
:10DE20001040B7E72DE9F04FDFF8F09085B0A9F189
:10DE3000BC0993460E9CD107B9F81A604A46DFF830
:10DE4000E0801D46A24602EB800765D001282BD159
:10DE5000D9F8300018B1022803D043A102E045A14F
:10DE600000E047A101A814F07CFD01A814F057FDC3
:10DE7000D8F804300B30197800FB0150B0F5A07FC2
:10DE800002DB2D1A05F23B150096D3F808C0A1B2AB
:10DE9000A8B2002301AAE04701A814F040FDD8F879
:10DEA0000410097800FB0155B9F86A000028D7F87A
:10DEB000900006D03549032291FBF0F001AB01211F
:10DEC00009E0B0F57A7F09DB3230642190FBF1F094
:10DED00001AB01220221FFF74CFD03E02CA101A8B8
:10DEE00014F03FFD01AA2CA12C4815F081FB0096EF
:10DEF000D8F80420A1B2A8B2D2F808C00023274A5B
:10DF0000E047264814F00BFDD8F804100A7800FB0F
:10DF100002554878011943E057E00000783F00209F
:10DF20002C000020000000000000C84200007A44DD
:10DF300063686C3A2564203A205265733A2566205E
:10DF40002C20202020543A25662020200A000000A2
:10DF5000CBAECFE4BFD50000456D7074792054611D
:10DF60006E6B0000D8430208BDF8CBAE2020202005
:10DF700000000000466565642020202000000000AD
:10DF800045696E67616E67200000000040420F0027
:10DF9000203C20310000000025730000702F00207D
:10DFA0000C1AB9F86A0090B3FAA2FCA1FC4815F06B
:10DFB0001FFB0096D8F80420A1B2A8B2D2F808C07E
:10DFC0000023F74AE04704F11E045FEA8B7019D57D
:10DFD000D7F89C006421323090FBF1F0012201ABB4
:10DFE0001146FFF7C6FC01AAEEA1ED4815F000FBB3
:10DFF0000096D8F80420A8B2A1B295680023E84A98
:10E00000A8471E3405B0A4EB0A00BDE8F08FFFE777
:10E01000E6A2CAE7F8B5E74C07461646B4F87C0016
:10E020000D46002863D1A07B012860D002285ED075
:10E030002079012803D0022801D0032843D194F885
:10E04000C000C0070CD00DF0D9F9D4F8C410401AA4
:10E05000B42805D394F8C00040F0020084F8C00052
:10E0600094F8C800C0070CD00DF0C8F9D4F8CC1053
:10E07000401AB42805D394F8C80040F0020084F890
:10E08000C80094F8D000C0070CD00DF0B7F9D4F850
:10E09000D410401AB42805D394F8D00040F0020000
:10E0A00084F8D00094F8D800C0070CD00DF0A6F981
:10E0B000D4F8DC10401AB42805D394F8D80040F006
:10E0C000020084F8D800207906284FEAC6700FD0E5
:10E0D00020B103223B46012100950FE0700706D5D1
:10E0E0003B460322002102200095FFF79BFEF8BD6E
:10E0F0000028F3D003223B46002100950020FFF7C3
:10E1000091FE0544EAE770B5AA4C14263546608BAB
:10E1100006F0B7FD206B70B102280ED0A6A22946EA
:10E120003046FFF71AFDFFF735FEBDE870400322C9
:10E1300050215A206EE7A3A2F1E7A8A2EFE710B59D
:10E140009C4C608B06F09DFD206B60B102280CD0CA
:10E15000A6A214210846FFF700FD03225021BDE8C6
:10E1600010405A2056E7A3A2F3E79EA2F1E710B5AC
:10E17000904C608B06F085FD206B60B102280CD0BE
:10E180009EA214210846FFF7E8FC01225021BDE8B9
:10E1900010405A203EE79BA2F3E79EA2F1E710B59C
:10E1A000844C608B06F06DFD206B38B1022807D0DF
:10E1B0009CA21421BDE810400846CEE49BA2F8E7DB
:10E1C0009CA2F6E71CB59D49D1E90001CDE900010B
:10E1D0000DF0C5FD77480188C1F382113DF811109B
:10E1E0004183817B69B1032911D0042912D005290B
:10E1F00006D1C07B502810D0522801D1FFF783FFF1
:10E200001CBDC07B0028FBD1FFF7C9FF1CBDFFF779
:10E21000AEFF1CBDFFF793FF1CBDFFF7FAFD1CBD51
:10E220002DE9FF5FDFF88C810E468146D8F800208B
:10E23000002502F00100C2F380010844C2F340014E
:10E24000014498F8C000DFF8F8A18346C0F340000D
:10E25000014498F8C800C2F382148646C0F3400017
:10E26000014498F8D0000390C0F34000014498F8AE
:10E27000D8000090C0F34000084498F8E01001F086
:10E2800001031844C2F34023184410F0FF0F7DD05F
:10E2900098F80E0005287AD0012879D0022877D086
:10E2A000072875D0082873D022F4E0720020C8F83F
:10E2B00000205FEAC27C4FF0010301AF08D08DF867
:10E2C000040022F4E07202F140020120C8F80020AC
:10E2D0005FEA827C08D53B5422F4E07202F14002EE
:10E2E00000F10100C8F80020530709D502233B5470
:10E2F00022F4E07202F1400200F10100C8F80020AF
:10E30000C9070BD003213954D8F8001000F10100DF
:10E3100021F4E07101F18001C8F800105FEA8B710F
:10E320000BD504213954D8F8001000F1010021F474
:10E33000E07101F18001C8F800105FEA8E710BD521
:10E3400005213954D8F8001000F1010021F4E071E2
:10E3500001F18001C8F80010039989070BD5062147
:10E360003954D8F8001000F1010021F4E07101F1F6
:10E370008001C8F800100099890766D50721395433
:10E38000D8F80010401C21F4E0715BE079E0A4E0D3
:10E39000A1E05AE0A6CC532F636D00002025730046
:10E3A000702F0020257320A1E60000004DA6B82E96
:10E3B000636D0000BC3E0020B6A8C1BFC8A1CBAEB3
:10E3C00000000000566F6C756D65747269632044BF
:10E3D000697370656E73696E67000000566F6C75C7
:10E3E0006D656E204175736761626500B2FA20CB7E
:10E3F000AE00000050726F6475637400D1AD20BB35
:10E40000B7000000526563697263756C6174696F6F
:10E410006E00000052657A69726B756C6174696F89
:10E420006E000000BECD20D0F70000005265616490
:10E43000790000004265726569740000D0430208EB
:10E440002C0000208031C8F8001098F80C20B2FB96
:10E45000F0F300FB132088F80C00B8F80000C0F3BC
:10E460008210A04201D0FFF7ADFE98F80C004446A0
:10E47000385C08282FD2DFE800F0353D45515A645A
:10E480006E7698F80D00FF2802D0FF2088F80D0066
:10E49000D00601D4104614E0B8F81A000090DAF85B
:10E4A0000400B1B240F23F124078304483B21FFA08
:10E4B00089F006F0D2F8D8F8000020F01000C8F873
:10E4C000000020F4E070C8F80000C0F38210A04201
:10E4D00001D0FFF777FEBDE8FF9F98F80F005028A6
:10E4E000F9D0E1E6206B18B1022801D0D2A10EE0EC
:10E4F000D5A10CE0206B18B1022801D0D5A106E00F
:10E50000D8A104E0206B38B1022805D0D9A1DD489C
:10E5100014F027FA012532E0DBA1F8E7206B20B1E7
:10E52000022802D0AFF2D85126E0DCA124E0206B13
:10E5300018B1022803D0DCA11EE0DEA11CE0E1A19D
:10E540001AE0206B18B1022803D0E2A114E0E6A182
:10E5500012E0EAA110E0206B18B1022801D0EDA171
:10E560000AE0EFA108E0206B18B1022803D0EFA168
:10E5700002E0F3A100E0F7A1C24814F0F2F9207B19
:10E58000617B3A5C4FF6E0709142216821D18A06A6
:10E5900009D5638BABA231464846FFF7C7FA20681E
:10E5A00020F0200032E041F02001216005B9608BAD
:10E5B0000090DAF80420238BB1B295681FFA89F035
:10E5C000B04AA847638BAF4A31464846FFF7AEFAD8
:10E5D00081E741F02001216005B9608B0090DAF8F5
:10E5E0000420238BB1B295681FFA89F0A54AA84789
:10E5F000638BA44A31464846FFF798FA207B395C82
:10E600006173401C2073206840F01000206062E7B6
:10E61000D5484178D5484278914207D0D24902681E
:10E6200020390A6242684A6200890885704710B53D
:10E630000346FFF7EDFF002B05D003225021BDE874
:10E6400010405A20E6E410BD10B5FFF70DFBFFF7B0
:10E65000A6FABDE81040A2E5C348002120300174AD
:10E6600041748171C171C0F8EC11C0F8F411EBE78D
:10E670001FB5BD4C2034608B06F003FB206B18B136
:10E68000022803D0BAA102E0BBA100E0BDA1684608
:10E6900014F067F9684614F042F9BD49401C496816
:10E6A0000A78497852085043C0F1A000C1F17201C4
:10E6B0006A46FFF752FA1FBD2DE9F843AA4DDFF86D
:10E6C000C4812035B5F87600D5F8F011421A286BD0
:10E6D00058B3022829D0AFA1404614F089FF404624
:10E6E00014F01DF9AA4F401C7A6892F800C05478C3
:10E6F0004FEA5C014843C0F1A006688B0090ACEB88
:10E700008C007E343044D2F808C02B8B214680B276
:10E71000A3A2E047688B00907A6821462B8B94680F
:10E72000B0B24246A047BDE8F8839EA1D4E710B539
:10E73000FFF79AFAFFF733FABDE8104098E78A48E6
:10E740000021203002220174427481710122C271C1
:10E75000C0F8F011C0F8EC11E9E710B5824C203494
:10E76000207903280DD1D4E93F0181420AD154F820
:10E77000B80FA18F01EBC10202EB011100EB810088
:10E78000206010BD0CF03AFED4F8B4108142F8D2EB
:10E79000401A34F86C1F00EB8000400041433C20DD
:10E7A000B1FBF0F0E16C0844E06410BD10B56E4CB4
:10E7B00020342079022815D10CF020FED4F8B410B2
:10E7C00081420FD2401A34F86C1F00EB80004000E9
:10E7D00041433C20B1FBF0F0E16C0844E0640CF0F4
:10E7E0000DFEA06410BD10B571480BF0EAFEBDE847
:10E7F0001040B2E710B56E480BF0E3FEBDE81040E4
:10E80000D4E729E7AFF20500FFF704B91CB5FFF71D
:10E810002BFAFFF7C4F9FFF7AAFC65491831A1F5F7
:10E820009070CDE90001D0F8D001AFF22703024685
:10E8300000210BF0F6FE1CBDC7EBB8FCBBBBB4BFA0
:10E84000BBAFD6F900000000455843482E55205074
:10E8500041434B00C7EBB8FCBBBBD7CFCDE2B5C63D
:10E8600000000000455843482E5556204C414D505D
:10E8700000000000C7EBB8FCBBBBB9FDC2CBD6F9AA
:10E8800000000000702F0020455843482E46494E96
:10E89000414C2046494C544552000000454D5054CF
:10E8A000592054414E4B0000B2FACBAE3CC9E8B6F9
:10E8B000A8D6B50050524F44554354203C20532E07
:10E8C000502E000041555347414245203C20532ED5
:10E8D000502E0000BDF8CBAE20B2FACBAE3CC9E85A
:10E8E000B6A8D6B500000000464545442050524F1A
:10E8F00044554354203C20532E502E0045696E67EA
:10E90000616E672041555347414245203C20532EBC
:10E91000502E0000CEC2B6C83EC9E8B6A8D6B50093
:10E9200054454D50203E20532E502E00BDF8CBAE06
:10E9300020CEC2B6C83EC9E8B6A8D6B500000000D1
:10E94000464545442054454D50203E20532E502EE0
:10E950000000000045696E67616E672054454D50A8
:10E96000203E20532E502E009C3E00205C60002054
:10E970005546B3E5CFB40000466C75736820554624
:10E9800000000000537075656C756E672055460079
:10E990002C0000202020256420C3EB202000000054
:10E9A00020202000202025642053656320200000C3
:10E9B000C43F0020FD48032101740021417401225D
:10E9C0008271C171C0F8F41120E7F949096804E0C7
:10E9D000814201D10120704789680029F8D10020C7
:10E9E0007047F34B10B50246186868B11046FFF740
:10E9F000ECFF002809D1196810680C68844205DD15
:10EA0000201A0860186890601A6010BD0029FCD0B8
:10EA100010680B68C31A1360886830B104689C42A0
:10EA200007DD036814681B1B0360886890608A60B8
:10EA300010BD0146ECE7DD49042091F8F821042AD5
:10EA400008D21046DA4A121D125C042A00D30422AE
:10EA500081F8F8217047D54810B50079062804D010
:10EA6000BDE81040D3480BF0ACBDFFF7E4FF04282D
:10EA70000FD2D04900EB4002D431642341F8223058
:10EA800001EB820102230B714871BDE8104008467A
:10EA9000A7E710BDAFF24100FEF7BCBF00F034B8ED
:10EAA000AFF20700FEF7B6BF10B5C04C608B06F0A2
:10EAB000E8F8206B68B102280BD0BFA20A210846F3
:10EAC000FFF74BF805225021BDE810405A20FFF710
:10EAD000A1BABCA2F2E710B5B44C608B06F0D1F835
:10EAE000206B68B102280DD0B9A20A210846FFF7B1
:10EAF00034F805225021BDE810405A20FFF78ABAA9
:10EB0000B6A2F2E7B8A2F0E77CB5A84C04F5B4755C
:10EB100094F8FD0094F8FC10884233D2411C84F82C
:10EB2000FD102044092190F8F8200620802A217445
:10EB30000FD081216174A0710520E071FFF794F876
:10EB4000FFF72DF8FFF7B0FFCDE90045B4F87200EC
:10EB50000EE080216174A0710420E071FFF784F859
:10EB6000FFF71DF8FFF7B7FFCDE90045B4F87000D7
:10EB70004FF47A714843AFF2D703002211460BF0ED
:10EB800050FD7CBD28460BF01CFD8A480BF019FD9A
:10EB9000BDE87C400EE71CB5864C0021843C481E35
:10EBA000C4E90110201F617080220A5401218123D1
:10EBB0000B5402210A54032004F8FC09FFF7A4FFB8
:10EBC0007C48AFF22F13CDE90040642201211046AA
:10EBD0000BF027FD2FE6DEE710B5FFF7C1F873480D
:10EBE00090F8E010C9070CD00079022806D003285D
:10EBF00007D1FFF7F8FDBDE81040CCE7FFF7FAFDBD
:10EC0000F9E710BD10B5694C206820F490502060E1
:10EC10000CF0F4FBC4F8CC012046BDE8104006F02F
:10EC20008AB82DE9F843614D3C232946DFF8C881B5
:10EC3000B1F8F810286BB1FBF3F203FB121360B3C9
:10EC400002282AD06DA1404614F0D2FC404613F0B1
:10EC500066FE574F401C0C3F7A6892F800C054780B
:10EC60004FEA5C014843C0F1A006688B0090ACEB12
:10EC70008C007E342B8B3044D2F808C0214680B201
:10EC8000AFF2E422E047688B00907A6821462B8B34
:10EC90009468B0B24246A04745E55DA1D3E72DE9AF
:10ECA000F843424C608B05F0ECFF414DE07B0C3D9E
:10ECB00061282BD0622877D1206B002875D00228DC
:10ECC000FCD058A6304613F02AFE6A68401CA846BD
:10ECD000117849084843C0F1A0075078C0F1720587
:10ECE000608B0090D2F808C0238BA9B2B8B232462C
:10ECF000E04751A2D8F804606D1D70782844618BFC
:10ED00000091238B81B2B8B2B468C0E0206B00B32D
:10ED100002281ED04CA6304613F001FE6A68401C43
:10ED2000A846117849084843C0F1A0075078C0F1BF
:10ED30007205608B0090D2F808C0238BA9B2B8B2DC
:10ED40003246E047D8F804606D1D3BA27078284435
:10ED5000D5E741A0804613F0E2FD6A68401C1178B7
:10ED600049084843C0F1A0065078C0F17207608B93
:10ED70000090D2F808C0238BB9B2B0B24246E04747
:10ED8000D5F804C07F1D39A29CF801000744608BB0
:10ED90000090DCF808C0238BB9B2B0B2E0476D68D0
:10EDA0007F1D687838446BE072E072E0BC3E002062
:10EDB000380000203C400020544F4320D1F5BBAF29
:10EDC00000000000544F43204F786964617465006F
:10EDD000544F4320B3E5CFB400000000544F43200C
:10EDE000466C757368000000544F4320537075657E
:10EDF0006C756E6700000000702F002020202564D5
:10EE000020B7D620256420C3EB202020000000007E
:10EE100020202564204D696E2025642053656320E1
:10EE200020000000496E736572742044756F506154
:10EE3000636B202000000000C8BBBAF3B0B42053BD
:10EE4000455420BCFC000000BCD3C8EBC7E5BDE0C6
:10EE5000BCC1202020000000496E73657274202020
:10EE600020202020202020202020000063617274B8
:10EE7000726964676520616E642070696C6C000063
:10EE8000618B0091238B81B2AC68FBA2B0B2A0472A
:10EE900049E4FEA6304613F042FD6A68401CA846CD
:10EEA000117849084843C0F1A0075078C0F17205B5
:10EEB000608B0090D2F808C0238BA9B2B8B232465A
:10EEC000E047EDA216E7F64910B58A7B0A7448744C
:10EED000087988710020C871FEF761FEFEF7C4FE54
:10EEE000BDE81040DBE62DE9F047ED4C04F5A870D5
:10EEF00021798146052903D0BDE8F0470BF061BBBD
:10EF0000B4F8F80010B1401EA4F8F800B4F8FA0004
:10EF100010B1401EA4F8FA00FFF783FE94F8FC003D
:10EF2000002701264FF4967828B10225012821D028
:10EF3000022845D1AAE0B4F8FA000028F9D100214E
:10EF40000520FDF77DFD01210320FDF779FD00215E
:10EF50000420FDF775FD00210720FDF771FD01215B
:10EF60000820FDF76DFD00210620FDF769FD84F8FE
:10EF7000FC6086E0B4F8FA000028DAD194F8FD00CD
:10EF800001281ED0022839D001210520FDF758FDA7
:10EF900000210320FDF754FD01210420FDF750FD61
:10EFA00000210720FDF74CFD01210820FDF748FD59
:10EFB00000210620FDF744FD84F8FD60A4F8FA5016
:10EFC000E8E000210520FDF73BFD00210320FDF7CF
:10EFD00037FD00210420FDF733FD00210720FDF758
:10EFE0002FFD00210820FDF72BFD00210620FDF755
:10EFF00027FD84F8FD504FF46170C7E094F8FE00DF
:10F00000401CC0B284F8FE00052820D20021052053
:10F01000FDF716FD01210320FDF712FD002104205C
:10F02000FDF70EFD00210720FDF70AFD0121082054
:10F03000FDF706FD00210620FDF702FDA4F8FA8089
:10F0400084F8FD7097A10420FDF725FEA2E00121C0
:10F050000520FDF7F5FC00210320FDF7F1FC002160
:10F060000420FDF7EDFC00210720FDF7E9FC01215C
:10F070000820FDF7E5FC01210620FDF7E1FC84F8FE
:10F08000FC5084F8FD70A4F8FA8083E0B4F8FA002C
:10F0900000287FD194F8FD0030B1012820D002284B
:10F0A0003AD0032876D154E001210520FDF7C8FCB1
:10F0B00001210320FDF7C4FC00210420FDF7C0FC62
:10F0C00000210720FDF7BCFC01210820FDF7B8FC5A
:10F0D00001210620FDF7B4FC84F8FD60F02055E026
:10F0E00001210520FDF7ACFC01210320FDF7A8FC60
:10F0F00001210420FDF7A4FC00210720FDF7A0FC5E
:10F1000001210820FDF79CFC01210620FDF798FC59
:10F1100084F8FD503C2039E000210520FDF790FCEB
:10F1200000210320FDF78CFC00210420FDF788FC62
:10F1300000210720FDF784FC01210820FDF780FC59
:10F1400001210620FDF77CFC032084F8FD001E2031
:10F150001CE000210520FDF773FC00210320FDF7D2
:10F160006FFC00210420FDF76BFC00210720FDF758
:10F1700067FC00210820FDF763FC00210620FDF755
:10F180005FFC042084F8FD004FF6FF7000E001E012
:10F19000A4F8FA00B4F8F800002808D148460BF0AB
:10F1A00010FAFFF72FFDBDE8F04762208BE6BDE8BF
:10F1B000F087AFF2CD20FEF72DBCF8B5384D688B47
:10F1C00005F05FFD286BD0B102281BD03CA420467F
:10F1D00013F0A5FB411C3C486B8B40680278520839
:10F1E0005143C1F1A002417800932B8B95B2C1F13C
:10F1F0007201866889B222462846B047F8BDAFF250
:10F200002044E4E7AFF21C44E1E7254810B501795A
:10F2100000F59C70052903D0BDE810400BF0D1B972
:10F220000BF0CFF9BDE8104061204CE6AFF22500AD
:10F23000FEF7F0BBF8B51A4D688B05F022FD286B80
:10F24000C0B102284DD021A4204613F068FB411C18
:10F250001D486B8B4068027852085143C1F1A002EF
:10F26000417800932B8BC1F1720195B289B222468D
:10F27000866831E033E000007468656E2070726566
:10F28000737320534554206B65790000496E736594
:10F2900072742044756F5061636B20202C00000055
:10F2A000BC3E0020444953504C41595F55465F5382
:10F2B00055425F53544154455F323A3000000000DC
:10F2C000554620C7E5CFB4002C000020554620D776
:10F2D000BCB1B8D6D00000002846B047F8BDF6A4AF
:10F2E000B2E7F9A4B0E71CB5FEF7BEFCFEF757FC89
:10F2F000FFF7A0FFF848A0F59C71AFF2CF03CDE96E
:10F30000001047F23050024600210BF08AF961E408
:10F31000F2480721017460214174052181710621A1
:10F32000C171002180F8FC1080F8FD1080F8FE10FB
:10F33000A0F8F810A0F8FA10D5E71CB5FEF794FC79
:10F34000FEF72DFCFFF739FFFFF76BFCE248E349BE
:10F350001830AFF2A113CDE900104FF47A700246D5
:10F3600001210BF05EF935E4DC480722002102742C
:10F37000417405238371C27180F8FC1080F8FD1080
:10F3800080F8FE1041F6A621A0F8F810B421A0F8EC
:10F39000FA10D2E710B50CF031F8D049D1F8CC21F1
:10F3A00082420DD80B689C050AD4801ACC4AB0FB67
:10F3B000F2F0B1F87420824202D843F40070086081
:10F3C00010BDFEF7E7BC10B5FEF74EFCBDE81040DF
:10F3D000FEF71FBDC1480521017450214174F2E7B9
:10F3E00070B5BE4C4FF47840658B608305F049FCE6
:10F3F000FF210846FEF7C6FC658370BD10B5FEF719
:10F4000033FCFEF7CCFBBDE81040E9E7806800283C
:10F4100000D000477047B04810B530380BF0D1F835
:10F42000AE480179032907D04038AEA1426CBDE84F
:10F4300010400420FDF72FBC50F8FC1F4160FFF77F
:10F440008CF9BDE81040FFF7A6BBAFF23500FEF720
:10F45000E1BA1CB5FEF708FCFEF7A1FBFEF753FE70
:10F460009D49A54A44390888504331F8882C90FBBF
:10F47000F2F00022C1E90202F43901F58472AFF220
:10F480003503CDE90012024600210BF0CAF83EE731
:10F49000924810B5007902280CD08F4830380BF014
:10F4A00090F88E488FA14038426CBDE8104004208F
:10F4B000FDF7F1BBBDE81040FFF778B9AFF22F00C0
:10F4C000FEF7A8BA1CB5FEF7CFFBFEF768FBFEF708
:10F4D00036FE814881493038AFF21F03CDE9001074
:10F4E0004EF66020024601210BF09BF80FE710B5A5
:10F4F000FEF736FC7949002240B1042008744A74B2
:10F5000002208871CA71BDE81040DBE70A7401204F
:10F5100048748A71CA71BDE810406FE710B56F4C2E
:10F52000608B05F0AEFB206B40B1022808D073A2BF
:10F53000FF21BDE810400846FEF70FBB71A2F7E7B8
:10F5400074A2F5E710B5FEF78FFBFEF728FBBDE8C8
:10F550001040E3E72DE9F843604DDFF8C881294604
:10F56000286BB1F8F82060B302282AD0AFF6DC315E
:10F57000404614F03DF8404613F0D1F96A4F401C64
:10F580007A6892F800C054784FEA5C014843C0F1B1
:10F59000A006688B0090ACEB8C007E342B8B304443
:10F5A000D2F808C0214680B2AFF60C42E047688B23
:10F5B00000907A6821462B8B9468B0B24246A047EF
:10F5C00066E4AFF62041D3E7F8B5444C608B05F014
:10F5D00058FBE07B9028206B1CD010B3022820D071
:10F5E00052A5284613F09BF9411C4F484068027809
:10F5F00052085143C1F1A00241787823A3EB510195
:10F60000638B0093238B94B2866889B22A46204686
:10F61000B047F8BD18B1022801D047A5E1E749A5D8
:10F62000DFE74DA5DDE75148FEF7F4B91CB5FEF75D
:10F630001BFBFEF7B4FAFFF7C7FF274827496030E6
:10F64000AFF21D03CDE900104FF47A70024601219C
:10F650000AF0E7FF5BE6214810B50821017491210B
:10F660004174072181710321C1710A21A0F8F810AA
:10F67000FFF7DCFFBDE810406CE770B5174C04F5F0
:10F68000CC752079072804D02846BDE870400AF0E0
:10F6900098BFB4F8F81011B1491EA4F8F810FFF79C
:10F6A00059FFB4F8F800002869D1607903285FD0C9
:10F6B000BDE87040CFE762E055462050726570614A
:10F6C00072652E2E2E000000554620426572656937
:10F6D00074656E2E2E2E0000F43F0020BC3E0020EC
:10F6E00080510100696E636F727265637420737478
:10F6F0006174653A20256400C0270900D0B920D183
:10F70000B900000050726573737572652052656CA4
:10F7100069656600447275636B2061626C61737326
:10F72000656E0000702F00202C000020C5C5C6F8B3
:10F73000BDD7B6CE20320000C5C5C6F8BDD7B6CEFF
:10F7400020310000446567617373696E67205374EC
:10F750006167652031000000446567617373696EFD
:10F760006720537461676520320000007BF6000853
:10F7700028460AF026FFBDE87040FEF76DBF70BD59
:10F78000FC4810B508210174902141740721817152
:10F790000221C171B421A0F8F810FFF747FFBDE8BE
:10F7A0001040D7E6F8B51C4617460D4606460BF046
:10F7B00025FE0146EF48026A891AEF4AB1FBF2F1D1
:10F7C000B0F86020521A016B81B102290ED0C38DAE
:10F7D000EAA1EF4813F00CFFEE4A0094A9B2526878
:10F7E000B0B23B469468EA4AA047F8BDC38DEAA18F
:10F7F000EFE7F8B51C4617460D4606460BF0FEFD32
:10F800000146DC48426A891ADB4AB1FBF2F1B0F8E2
:10F810006820006B521A78B102280DD0E4A1DC48B0
:10F8200013F0E6FEDB4A0094A9B25268B0B23B4640
:10F830009468D74AA047F8BDE1A1F0E7F8B51C46A7
:10F8400017460D4606460BF0D9FD0146C948826AA7
:10F85000891AC94AB1FBF2F1B0F86420521A016B5F
:10F86000062391B1022910D0808DDAA1B0FBF3F309
:10F87000C74813F0BDFEC74A0094A9B25268B0B29F
:10F880003B469468C24AA047F8BD808DD7A1B0FB23
:10F89000F3F3EDE72DE9F041B64C86B01D469046F6
:10F8A0000E460746B4F86C0001AB02220121FEF7B8
:10F8B00060F8206B90B1022810D001AAD0A1B44802
:10F8C00013F096FEB34A0095B1B25268B8B24346FF
:10F8D0009468AF4AA04706B0BDE8F08101AACDA167
:10F8E000EDE7F8B50646A3480D461C46016BB0F897
:10F8F0006A00174621B1022902D040B1C94A08E086
:10F9000008B1C84A01E0C74A1832C7A102E0C54A97
:10F910001832C8A19E4813F06BFE9E4A0094A9B20B
:10F920005268B0B23B469468994AA047F8BD2DE9A9
:10F93000F84F1F46814612F807B00020DDF82CA0D2
:10F94000DFF85082D0551446CDF800A0D8F8042036
:10F950000D4689B296681FFA89F022460A9BB04785
:10F96000204612F0DCFFD8F80420A9B2137800FB7F
:10F9700003960A980090D2F804C0B0B253465A4693
:10F98000E047D8F804103C441FFA85FC0878CDF80D
:10F9900000A006448F68621CB0B261460A9BB8475B
:10F9A0007448621C2946838B01B03046BDE8F04F95
:10F9B000FEF7BCB82DE9FC5F1D46814612F805A094
:10F9C0000020DDF838B0734E50551446CDF800B025
:10F9D0007268884689B297681FFA89F022460D9BA3
:10F9E000B847204612F09BFF71685B460A7804F81E
:10F9F00005A000FB02990C9804EB050A2F180020C3
:10FA0000E15D0191E0550D98009072681FFA88F150
:10FA10001FFA89F095685246A847504612F07FFFBA
:10FA200071683A19097800FB01900199E155CDF808
:10FA300000B073681FFA88F180B29C680D9BA047E4
:10FA4000BDE8FC9F2DE9F0431C467DA391460E4680
:10FA500007460FCB89B004ADDFF818810FC5D8F881
:10FA60003000A8B3022834D079A1494812F079FFB8
:10FA7000484D0094B1B26A68B8B24B46D2F808C09B
:10FA8000434AE047424812F04AFF6968097800FBA0
:10FA9000017738481638C17990F802C04378027867
:10FAA0008DE80E10837982886BA1394813F0A0FD90
:10FAB00098F80A000E280ED2CDE9009404A9344A21
:10FAC0000B5C31463846FFF732FF09B0BDE8F083E2
:10FAD000FFE769A1C9E700946A68B1B2B8B2946857
:10FAE0004B462B4AA047F0E7F8B5064621481C468E
:10FAF0001746006B0D4618B1022803D060A102E042
:10FB000064A100E06AA1224812F02BFF214A009470
:10FB1000A9B25268B0B23B4694681D4AA047F8BDEE
:10FB2000F8B5064613481C461746006B0D4618B13B
:10FB3000022803D065A102E066A100E06BA1144891
:10FB400012F00FFF134A0094A9B25268B0B23B46BC
:10FB500094680F4AA047F8BDF8B5064605481C460C
:10FB60001746006B0D4618B1022802D066A1D2E0FC
:10FB7000CEE0CFE0BC3E002080510100B4BFBBAF5F
:10FB8000D6F93A256420CCEC202564C9FD2020005C
:10FB9000702F00202C0000205041434B3A25642058
:10FBA000444159532025644C2020202000000000AF
:10FBB000B9FDC2CBC6F73A256420CCEC202020004A
:10FBC00046494C5445523A2564204441595320201B
:10FBD00020000000D7CFCDE2B5C63A256420CCEC9A
:10FBE00020256420D0A1CAB12020000055563A2516
:10FBF000642044415953202564487220202000008D
:10FC0000C1F7CBD93A257320C9FD2FB7D6D6D3205B
:10FC100020000000464C4F573A2573204C2F6D6949
:10FC20006E20200094E30008554E49543A25732075
:10FC300020202000B5A5CEBB3A257320202020002F
:10FC400000010203050608090B0C0E0F111200003B
:10FC5000CAB1BCE43A000000253034642D253032AE
:10FC6000642D2530326420253032643A25303264E8
:10FC70003A2530326400000054494D453A000000F6
:10FC80004C414E47554147452FD3EFD1D43AD6D0BA
:10FC9000CEC400004C414E47554147452F5350526A
:10FCA000414348453A454E474C49534800000000FF
:10FCB0004C414E47554147452F53505241434845CB
:10FCC0003A4445555453434800000000C7E5CFB4BB
:10FCD00020554600434C45414E2055462F4449533C
:10FCE000494E46454354494F4E0000005245494E47
:10FCF0004947554E472055462F444553494E4645A2
:10FD00004B54494F4E000000B3E5CFB42055460098
:10FD1000F9A100E0FBA1FE4812F023FEFD4A009489
:10FD2000A9B25268B0B23B469468F94AA047F8BD00
:10FD30002DE9FF4FF84C804685B0206B1E460D46DE
:10FD400018B1022803D0F5A102E0F7A100E0FAA162
:10FD5000EF4812F006FEDFF8BCB30096E17ADBF85C
:10FD60000430DFF8ACA31FFA88F001EB0A029F68A9
:10FD7000A9B2D946079BB847E17A01EB0A0012F015
:10FD8000CEFDD9F804104FF064090A7802FB008711
:10FD9000B4F86A000028D4F8940045D0EA4901ABD1
:10FDA00091FBF0F003220121FDF7E3FDE74B01AAEF
:10FDB000E7A1D74813F01CFC0096DBF80420A9B299
:10FDC000B8B2D2F808C0D846D14A079BE047D0481D
:10FDD00012F0A5FDD8F80410012201AB097801FB4F
:10FDE0000077D4F8A0001146323090FBF9F0FDF70F
:10FDF000C0FD01AAD8A1C64813F0FAFB0096D8F8B6
:10FE00000420A9B2B8B2D2F808C0C14A079BE047A3
:10FE1000A4F80272A4F804520798A4F80602A4F801
:10FE2000086209B0BDE8F08F323090FBF9F0012292
:10FE300001AB0221B8E7F8B50646B7481746B64AFF
:10FE4000006B1C460D46803218B1022803D0C4A1B5
:10FE500002E0C6A100E0C9A1AD4813F0C9FBAD4A5C
:10FE60000094A9B25268B0B23B469468A84AA04731
:10FE7000F8BDA949887B01280BD1B1F80202A0F591
:10FE80007F42FF3A05D001F501718B884A880988C5
:10FE90004EE770472DE9F84F824605200025904631
:10FEA0008B4607462C4600900BF0C5FA9A48B74996
:10FEB00016384FF6FF760A6802604A684260098980
:10FEC0000181304604F0DDFEDFF84C9289F808A08D
:10FED00089F80AB089F8F280AB4689F80BB0A9F826
:10FEE0000262A9F80462A9F80662A9F80862C8F1DA
:10FEF000080666E005EB0800082860D2DFE800F09D
:10FF00000419283B4A657483B9F87C1091BBB9F891
:10FF10001C30554502D148F21F4201E0B9F81820C3
:10FF200039460098FFF73EFC09EB040080F8E8B082
:10FF300042E0B9F81C30554502D148F21F4201E0B9
:10FF4000B9F8182039460098FFF753FC012168E002
:10FF5000B9F87C1071B9B9F81C30554502D148F296
:10FF60001F4201E0B9F8182039460098FFF766FCF7
:10FF7000022156E023E0B9F81C30554502D148F281
:10FF80001F4201E0B9F8182039460098FFF782FCBB
:10FF9000032146E0B9F87C1089B9B9F81C30554501
:10FFA00002D148F21F4201E0B9F818203946009802
:10FFB000FFF797FC042134E0641CE4B218376D1C91
:10FFC000EDB2092E32DD092031E0B9F81C3055457B
:10FFD00002D148F21F4201E0B9F8182039460098D2
:10FFE000FFF730FD05211CE0B9F81C30554502D162
:10FFF00048F21F4201E0B9F8182039460098FFF78F
:020000040801F1
:1000000073FD06210DE0B9F81C30554502D148F2C8
:100010001F4201E0B9F8182039460098FFF70BFF9E
:10002000072109EB040080F8E810C5E73046A84234
:100030003FF760AF89F80940BDE8F88F10B5FDF7CC
:1000400013FE0022BDE81040FF21104622E732488F
:100050000121017400214174F0E72DE9F0430546C8
:100060004BA087B00068DFF8B080069008EB8500F1
:10007000994614460F460E9E806B02AB0322012167
:10008000FDF777FCD8F8300028B102280BD095B1E5
:10009000022D2FD013E015B1022D02D00FE03DA1AB
:1000A0000AE040A108E015B1022D02D007E041A10D
:1000B00002E044A100E047A1154812F052FC154DA2
:1000C0000096A1B26A68B8B24B46D2F808C0104A8E
:1000D000E0470F4812F023FC696802AA097800FB88
:1000E000017740A10A4813F083FA98F80A0004281F
:1000F00001D279E083E084E0464C555348205546D0
:1001000000000000535055454C554E4720554600C1
:10011000702F00202C000020BC3E0020BDF8CBAE8C
:10012000CBAED6CA3A000000464545442051554161
:100130004C4954593A00000045494E47414E4753F7
:10014000574552543A00000040420F0094E3000823
:100150002573202573200000257320A1E6202000B0
:10016000D0F2C1D0BAC53A257300000053455249B8
:10017000414C204E4F3A2573000000005345524930
:10018000454E4E554D4D45523A2573005C6000205A
:100190000002030443454C4C20434F4E535420204F
:1001A000203A000043454C4C20434F4E53542E54AC
:1001B0004F433A005A454C4C204B4F4E535420204D
:1001C000203A00005A454C4C20434F4E53542E5475
:1001D0004F433A00B5E7BCABB3A3CAFD20202020B3
:1001E000203A000025730000CDE9009606A9FB4ADD
:1001F0000B5C21463846FFF79AFB07B066E4F8A18E
:100200005AE700966A68A1B2B8B294684B46F34ABE
:10021000A047F2E72DE9F04387B0994614460F4610
:100220000546AFF294000068DFF8C483069008EB3F
:1002300085000E9E406C02AB03220121FDF799FB65
:10024000D8F8300028B1022808D06DB1022D32D084
:100250000EE025B9E7A108E0EAA106E015B1022DFC
:10026000FAD005E0EBA100E0EEA1DC4812F079FB4A
:10027000F04D0096A1B26A68B8B24B46D2F808C0F9
:10028000D64AE047D54812F04AFB6968097800FB76
:10029000017702A9D14812F064FB98F80A000428FB
:1002A0000BD2CDE9009606A9CC4A0B5C2146384614
:1002B000FFF73DFBA1E7E0A1D7E700966A68A1B28E
:1002C000B8B294684B46C54AA04796E72DE9FE4F61
:1002D0000446DDA0DFF818A30C9F00688846029052
:1002E000DAF830101D46164648F21F4019B10229AF
:1002F00001D044B10BE0854202D144B9D3A103E05F
:100300002CB9D4A100E0D6A1B44812F02AFBDFF842
:1003100024B30097B1B2DBF804201FFA88F0D94665
:10032000D2F808C02B46AD4AE047AC4812F0F7FAC5
:10033000D9F80410D1460A78CCA100FB02880AEB58
:100340004400583083880288A44813F051F999F882
:100350000A0004280AD2CDE9005702A99F4A0B5C83
:1003600031464046FFF7E3FABDE8FE8F0097DBF821
:100370000420B1B21FFA88F094682B46974AA04730
:10038000F2E72DE9F0439A4D044685B0164605EB99
:10039000840099460F460122DDF83080006D01ABE4
:1003A0001146FDF7E6FA286B18B1022801D024B1F6
:1003B00008E03CB901AAB4A101E001AAB8A18748AC
:1003C00013F016F99B4ACDF80080B1B25268B8B26A
:1003D0004B469468814AA04705B0BDE8F0832DE9FB
:1003E000FF470746B4A00E46D0E90010804CCDE987
:1003F0000210206B1D46914630B3022824D0B0A1D4
:10040000764813F0F5F8DFF82C820095B1B2D8F8F1
:100410000420B8B24B46D2F808C0704AE0476F4893
:1004200012F07DFAD8F80410097800FB0177A07A61
:100430000728206B20D248B1B4F86230B4F86020AD
:10044000022817D0A2A106E0A5A1D9E7B4F862302E
:10045000B4F86020A6A1614813F0CAF8CDE9009570
:10046000A07A02A95D4A0B5C31463846FFF75FFA75
:10047000BDE8FF87A2A1EEE738B104F160040228CD
:100480006388228806D0A2A105E06034A4A1638815
:10049000228800E0A6A1514813F0AAF80095D8F8E8
:1004A0000420B1B2B8B294684B464C4AA047DFE78B
:1004B000F8B50D4606464E484D491746006BB1F853
:1004C00068201C4618B1022803D09DA102E0A2A119
:1004D00000E0A7A1414813F08BF8564A0094A9B256
:1004E0005268B0B23B4694683C4AA047F8BD2DE93B
:1004F000FF470E4670A10746D1E900013C4D9246E8
:10050000CDE902012A6B1C460DF10809012A08D128
:10051000032049460B5C9B1E0B54401CC0B20728AD
:10052000F8D3A8462AB3022A23D097A12B4813F068
:100530005FF8404D0094B1B26A68B8B25346D2F841
:1005400008C0264AE047254812F0E9F969680978A9
:1005500000FB017798F80A000728D8F8300020D26D
:1005600048B1B8F86630B8F86420022817D08AA1DC
:1005700006E08DA1DAE7B8F86630B8F864208EA1FD
:10058000164813F035F8CDE900A498F80A10134A7C
:10059000384619F801303146FFF7C9F968E78AA1F2
:1005A000EEE738B1B8F86630B8F86420022807D012
:1005B00089A106E0B8F86630B8F864208AA100E0A6
:1005C0008DA1064813F014F800946A68B1B2B8B26D
:1005D00094685346014AA0474AE70000702F002064
:1005E000B5E7BCABB3A3CAFD2E544F43203A00007D
:1005F000BC3E002054454D5020434F4E53542020C4
:10060000203A000054454D5020434F4E53542E5431
:100610004F433A0054454D50204B4F4E53542020E9
:10062000203A0000CEC2B2B9CFB5CAFD2E2020209C
:10063000203A00002C000020CEC2B2B9CFB5CAFDCE
:100640002E544F43203A000004050B0C54454D50E6
:100650003A00000054454D502E532E503A000000F1
:10066000CEC2B6C8C9E8B6A83A0000004D4158202D
:1006700025303264204D494E202530326420A1E6D9
:10068000202020202020000050524F44205245536B
:100690002E532E503A25734DA6B82E636D000000E0
:1006A000CBAED6CAC9E8B6A82020203A2573204D83
:1006B000A6B82E636D00000000010208090A0B00B5
:1006C000B4BFBBAFD6F9CAD9C3FC203A00000000C2
:1006D0002530336420CCEC202025303464C9FD0063
:1006E0005041434B20204C494645203A0000000031
:1006F000253033644441595320253034644C000084
:10070000253033645441474520253034644C000083
:10071000256420CCEC20202564C9FD202020200069
:100720002564444159532025644C2020202000009A
:100730002564544147452025644C2020202000009A
:10074000B9FDC2CBC6F7CAD9C3FC203A256420CC78
:10075000EC2020202000000046494C544552204CFB
:100760004946453A25642044415953202020200021
:1007700046494C544552204C4946453A256420543C
:100780004147452020202000D7CFCDE2B5C6CAD9A9
:10079000C3FC203A0000000025303364CCEC202557
:1007A000303464D0A1CAB100555620204C4946458A
:1007B0002020203A00000000253033644441595382
:1007C0002025303464487200253033645441474555
:1007D00020253034644872002564CCEC202564D098
:1007E000A1CAB120200000002564444159532025AE
:1007F000644872202020200025645441474520256C
:100800006448722020202000F8B50D460646EC48CA
:10081000EB491746006B4A6B1C4618B1022803D0FF
:10082000E8A102E0EEA100E0F4A1FB4812F0E0FE36
:10083000FA4A0094A9B25268B0B23B469468F64AAC
:10084000A047F8BDF8B50D460646DD48DC49174619
:10085000006BB1F874201C4618B1022803D0F0A137
:1008600002E0F6A100E0FCA1EB4812F0C1FEEB4A69
:100870000094A9B25268B0B23B469468E64AA047D9
:10088000F8BDF8B50D460646CD48CD491746006B74
:10089000B1F876201C4678B102280FD0F5A1DE48C9
:1008A00012F0A6FEDD4A0094A9B25268B0B23B46EF
:1008B0009468D94AA047F8BDF4A1F0E7F9A1EEE7A2
:1008C000F8B50D460646BE48BD491746006BB1F85F
:1008D00078201C4678B102280FD0F8A1CE4812F03B
:1008E00087FECE4A0094A9B25268B0B23B469468E3
:1008F000C94AA047F8BDF8A1F0E7FEA1EEE72DE94F
:10090000FC5F8346052007460025019090460E4671
:100910002C464FF6FF7004F0B4F9DFF8A4920021E2
:1009200089F808B089F80A6089F8F28089F80B1014
:10093000C8F10A06B3E000BF05EB080ABAF10A0FD6
:1009400069D2DFE80AF0051A051A364A5E7180920C
:10095000B9F87C1000295ED1B9F81C0000905D4503
:1009600002D148F21F4301E0B9F818304FEA5A00AB
:100970003A460199FFF771FB16E0B9F87C1000299F
:1009800049D1B9F81C00AAF1010100905D4502D1DE
:1009900048F21F4301E0B9F8183001EBD170401064
:1009A0003A460199FFF736FC09EB040181F8E8A00B
:1009B00070E0B9F87C1071BBB9F81C0000905D457F
:1009C00002D148F21F4301E0B9F81830AAF104003F
:1009D0003A460199FFF77AFCE6E7B9F87C10D1B9FD
:1009E000B9F81C0000905D4502D148F21F4301E0B8
:1009F000B9F81830AAF105003A460199FFF7C1FC91
:100A0000D2E7B9F87C1031B9B9F81C305D4503D193
:100A100048F21F4202E040E0B9F818203946019838
:100A2000FFF7DDFC062131E0B9F81C305D4502D14D
:100A300048F21F4201E0B9F8182039460198FFF743
:100A400037FD072122E0B9F87C1031BBB9F81C3022
:100A50005D4502D148F21F4201E0B9F8182039463D
:100A60000198FFF744FD082110E0B9F87C10A1B906
:100A7000B9F81C305D4502D148F21F4201E0B9F8D7
:100A8000182039460198FFF7BFFE092109EB040041
:100A900080F8E810641CE4B218376D1CEDB2092E22
:100AA00001DD092000E03046A8423FF745AF89F854
:100AB0000940BDE8FC9F10B5FDF7D6F80022BDE85F
:100AC0001040FF2110461AE73D4802210174002121
:100AD0004174F0E770B50D46B8B1394C01281AD011
:100AE000022827D003284DD109F01BFA012D49D146
:100AF0000C283ED006202074002060740421A171CF
:100B0000E071BDE87040FEF71DBD01293AD1BDE896
:100B10007040FEF7ECBC09F004FA012D32D1062832
:100B200003D0BDE87040FEF736B894F8C80140F035
:100B3000040013E009F0F5F9012D23D1062809D0AE
:100B40000C2811D00520207450206074BDE870403E
:100B5000FEF739BC94F8C80140F0020084F8C801DF
:100B6000BDE87040FFF773BA94F8C80140F0080080
:100B700003E094F8C80140F0040084F8C801BDE81F
:100B80007040A1E770BD08B1022803D1012901D14D
:100B9000FDF762BD704710B5FDF7E2F80849002285
:100BA00060B1B1F8F40050B10520087452204874C7
:100BB00003208871CA71FEF74CFCA9E0ACE0B4E0F8
:100BC000BC3E0020D1ADBBB7CAB1BCE42020203A66
:100BD000256420B7D6D6D320202020200000000096
:100BE0005245434952432E202020203A2564206D4F
:100BF000696E2020202020200000000052455A4924
:100C0000524B2E202020203A2564206D696E202032
:100C10002020202000000000702F00202C00002049
:100C2000554620C7E5CFB4D6DCC6DA3A2564202085
:100C3000CCEC2020202020202020200055462044DD
:100C40004953494E46454354494F4E3A2564204442
:100C500041595320202020005546205245494E49F5
:100C600047554E472E3A25642054414745202020C1
:100C700020202000B3E5CFB4CAB1BCE43A256420FB
:100C8000C3EB2020202020202000000055462046D5
:100C90004C555348203A256420736563202020205A
:100CA000202000005350454C554E47203A256420E3
:100CB000736563202020202020000000D7D4B6AF29
:100CC000B3E5CFB4CAB1BCE43A256420B7D6D6D3D5
:100CD00020202020202020004155544F2E20464C1B
:100CE000555348203A2564204D696E20202020204D
:100CF000200000004155544F2E20535055454C556F
:100D00004E473A2564204D696E2020202020200087
:100D1000BDE81040FCF7F7BD0A74012048748A71E1
:100D2000CA71BDE81040FEF769BBBDE81040FDF791
:100D300032BFE0B1F94B0128B3F8F4200CD00228FF
:100D400012D0032817D1002A15D0012913D1521E21
:100D5000A3F8F420FDF71EB840F2E73082420AD231
:100D6000012908D1521CF3E7012904D113E7012915
:100D700001D1FEF7BCBB7047704710B548B10228DF
:100D80000FD101290DD1FDF72EFDBDE81040FDF773
:100D900002BF012905D1FDF726FDBDE81040FEF791
:100DA000A6BB10BDDD4AD27B502A04D0512A03D005
:100DB000522A01D1E1E7BCE7704710B5002807D1FE
:100DC000012905D1FDF716FDBDE81040FDF7E3BE92
:100DD00010BDD24AD27B002A00D1EEE77047020054
:100DE00010B5CF480BD0012A11D0022A17D1012902
:100DF00015D109F0E6FBBDE81040FEF7EBBA01297A
:100E00000DD109F0DEFBBDE81040FEF770BB0129F3
:100E100005D109F0D6FBBDE81040FDF71DBC10BDA3
:100E2000BE4AD27B002A00D1D9E770477047032819
:100E300003D1012901D1FDF70FBC7047B74AD27B1E
:100E4000002A00D1F3E7704703280BD1012909D10B
:100E5000B248C07B612803D0622803D1FEF790BC62
:100E6000FEF782BA7047AD4AD27B612A01D0622A6E
:100E700000D1E9E770472DE9F041A84C0527207A19
:100E800094F8F2104218521C082A01D3002206E0FE
:100E9000421C092A09D30931CAB284F8F220BDE8FC
:100EA000F041FF210020FEF7F5BFFF229C4DA2720A
:100EB0000022383DE27200EB400110F805C097486F
:100EC000052606EBC101028B808BBCF1080F2CD2EA
:100ED000DFE80CF004090E13181D222703463846DC
:100EE000FEF760FC21E003463846FEF782FC1CE07A
:100EF00003463846FEF7A2FC17E003463846FEF7E5
:100F0000C9FC12E003463846FEF7EBFC0DE0034651
:100F10003846FEF797FD08E003463846FEF7E4FD45
:100F200003E003463846FEF786FF207A617A401CCC
:100F3000B0FBF1F201FB1200C0B2207200EB4001E5
:100F4000405D06EBC10148F21F42082835D2DFE8B8
:100F500000F0040A10161C22282EA38B3846BDE888
:100F6000F041FEF71FBCA38B3846BDE8F041FEF709
:100F700040BCA38B3846BDE8F041FEF75FBCA38BB5
:100F80003846BDE8F041FEF785BCA38B3846BDE886
:100F9000F041FEF7A6BCA38B3846BDE8F041FEF752
:100FA00051BDA38B3846BDE8F041FEF79DBDA38B34
:100FB0003846BDE8F041FEF73EBFBDE8F08110B510
:100FC0000AF01CFA554908620020C88510BD10B50A
:100FD0000AF014FA5149486210BD10B50AF00EFA31
:100FE0004E4988620020888510BD4C4A0328B2F81B
:100FF0006C1008D040F2E730814203D211F10101B8
:10100000A2F86C1070470029FCD0491EF8E708B51B
:1010100044A0006800904148016B1DF80110016375
:1010200008BD3E48B0F86A1019B10021A0F86A1056
:1010300070470121FAE7F0B5384D8FB00128A97A41
:1010400027D00E292DD2384B04AEA5F116040FCBB4
:101050000FC6E079A378627821788DE80F003249D5
:10106000A379A2881831314812F0C2FA28683021D9
:1010700040F008002860AA7A3125161F2B4804AFDB
:10108000092E45D2DFE806F00F15252B3F443F44DB
:101090003F00491CC8B20E21B0FBF1F201FB120067
:1010A000A8720FB0F0BD9DF81430C25C312A33D263
:1010B0003EE09DF81420825C302A9DF8152003D074
:1010C000835C322B15D21BE0815C392916D0491C78
:1010D0000FE09DF81630C25C332A1DD228E09DF83F
:1010E0001620825C302A9DF8172004D0835C392BAF
:1010F00006D381541EE0815C3929E8D3855419E078
:101100005B1C835416E0BB5CC25C352A04D20FE042
:10111000BB5CC25C392A0BD3C1540BE0BC3E00203F
:10112000DC3F00200102000040FC0008702F00207E
:10113000521CC2540DAB0CAA0BA90AA88DE80F00D3
:1011400009AB08AAF649F74811F024FC0898A080DA
:101150000998A0710A98E0710B9820700C98607043
:101160000D98A0709DE7032801D1FEF7D1B8704714
:10117000032801D1FDF7E3BA7047032805D1EA48F7
:10118000C17A491C01F00701C17270472DE9F04195
:10119000E54C052648F21F47217A01EB410206EB98
:1011A000C20504F1E802895C07294FD2DFE801F0AB
:1011B00004101C263A443000032847D1FFF7FFFEF5
:1011C000A38B3A4629463046BDE8F041FEF7EABA1D
:1011D00003283BD1FFF7FBFEA38B3A462946304656
:1011E000BDE8F041FEF705BBFFF7F7FEA38B3A46DB
:1011F00029463046BDE8F041FEF720BBFFF7F5FE7B
:10120000A38B3A4629463046BDE8F041FEF742BB83
:10121000FFF7FDFE94F8F220A17A207ABDE8F041B4
:10122000FEF738BEFFF7FDFEA38B3A46294630464F
:10123000BDE8F041FEF755BBFFF7FDFEA38B3A4634
:1012400029463046BDE8F041FEF7FCBBB5E670B577
:10125000B54820223030B549044611F075FB48B13D
:1012600020222146B14811F02CFBB04A20218020D9
:10127000FBF736FDAD49AC482031503020220C46FA
:10128000054611F061FB48B120222946204611F0A5
:1012900018FB224620218120FBF722FDA349A2480A
:1012A00040310C220C46703011F04EFB00280FD05C
:1012B0009D499E4840310A6B02644A6B4264896BC7
:1012C00081642246BDE8704020218220FBF708BDE2
:1012D00070BD1CB5FFF7BBFF9349086802070ED528
:1012E00020F008000860A1F1160082784178CDE96D
:1012F00000120378C2798179808809F02AFFFCF70F
:10130000D6FABDE81C40FCF795BBF0B48648002433
:10131000B0F87C1000293AD10146D0F8B830D1F8A5
:10132000BC204FF6FF7753B34FF47A75B3FBF5F15A
:1013300059B105FB1133C0F8B830C38DFD1A8D4289
:1013400003D30B44C3854FF0010403885B0404D529
:10135000D0F830321944C0F830129AB14FF41673F5
:10136000B2FBF3F171B103FB1122C0F8BC20828DF6
:101370000D46BB1A8B4205D35119818504E0002A22
:1013800005D0EBE7002C02D0F0BCFCF790BAF0BC23
:10139000704770B5644C0546012808D0022D13D063
:1013A000032D26D1012924D1BDE87040EEE60129A4
:1013B0001FD108F0B6FD062801D02846F4E794F8BE
:1013C000C80140F004000CE0012912D108F0A9FD89
:1013D000062802D0BDE870404DE594F8C80140F001
:1013E000020084F8C801FFF774FFBDE87040FDF704
:1013F00033B970BD4C4AD27B002A00D1C9E770478F
:10140000F8B5494C0527207A94F8F2104218521C7E
:101410000A2A01D3002206E0421C092A09D3093115
:10142000CAB284F8F220BDE8F840FF210020FFF79F
:1014300066BA00EB400105263B4D06EBC10CFF21CF
:10144000E835394AA172415D908B128B0A2942D24C
:10145000DFE801F0050F050F1A222A30363C009014
:1014600001EBD1701346401062463946FEF7F5FD98
:1014700031E0491E009001EBD170134640106246E6
:101480003946FEF7C7FE26E013460090624639460D
:101490000020FEF71BFF1EE013460090624639460F
:1014A0000020FEF76EFF16E0034661463846FEF761
:1014B00096FF10E0034661463846FEF7F9FF0AE062
:1014C000034661463846FFF712F804E003466146DA
:1014D0003846FFF799F9207A617A401CB0FBF1F2A7
:1014E00001FB1200C0B2207200EB4001405D06EB30
:1014F000C10148F21F420A2810D2DFE800F00519A6
:101500000519252E373E454CA38B0093134600EB5F
:10151000D0700A4640103946FEF79FFDF8BD000026
:1015200058FC0008702F0020BC3E00207A330020B9
:10153000A38B0093401E134600EBD0700A46401068
:101540003946FEF767FEE9E7A08B13460A4600908E
:1015500039460020FEF7BAFEE0E7A08B13460A46A4
:10156000009039460020FEF70CFFD7E7A38B01B0AF
:101570003846BDE8F040FEF732BFA38B01B03846D5
:10158000BDE8F040FEF794BFA38B01B03846BDE83C
:10159000F040FEF7ACBFA38B01B03846BDE8F04089
:1015A000FFF732B930B5FF4C87B00129A27A16D0C7
:1015B000042A18D2FC4904EB80056B4609680691A1
:1015C00003220121A86BFCF7D4F9A17A06A8415C9B
:1015D00068461DF90120392A07DB302206E0521C3B
:1015E00002F00300A07207B030BD521C42544FF409
:1015F0007A7204A9FCF73BF80498A863F3E730B5C6
:10160000E84C87B00129A27A16D0042AEBD2E64929
:1016100004EB80056B460968069103220121686C82
:10162000FCF7A7F9A17A06A8415C68461DF90120DC
:10163000392A06DB302205E0521C02F00300A072BA
:10164000D1E7521C42544FF47A7204A9FCF70FF808
:1016500004986864C7E73EB5D24C0129A27A18D035
:10166000042A1AD2D14904EB4005D14809680091F7
:10167000CE49B5F85C30B5F85820243111F0B8FFE8
:10168000A17ACB4A1DF80100115C392906D330211B
:1016900005E0521C02F00300A0723EBD491C11542B
:1016A000C24902AB01AA2431C14811F073F9019873
:1016B00025F8580F0298A8803EBDBA4A032902EBCC
:1016C0008002106D04D0B62801D2401C106570470E
:1016D0000028FCD0401EF9E71FB5B24C0128A17AC2
:1016E00012D0072918D2B1497031D1E90001CDE9F2
:1016F000000104F16000216B0288438869B102296E
:1017000019D0AA4988310AE0491CC8B20721B0FBA8
:10171000F1F201FB1200A0721FBDA449A831A44838
:1017200011F066FFA17A1DF80100A1490A5C392A6F
:1017300004D3302203E09D49B831F0E7521C0A542B
:10174000206B30B1022803AB02AA0FD09749883131
:1017500003E0964903AB02AAA831954811F01AF9A3
:10176000029824F8600F039860801FBD8F49B8313C
